{
  "_format": "hh-sol-artifact-1",
  "contractName": "WincketLottery",
  "sourceName": "contracts/WincketLottery.sol",
  "abi": [
    {
      "inputs": [
        {
          "internalType": "address",
          "name": "_busdTokenAddress",
          "type": "address"
        },
        {
          "internalType": "address",
          "name": "_randomGeneratorAddress",
          "type": "address"
        }
      ],
      "stateMutability": "nonpayable",
      "type": "constructor"
    },
    {
      "anonymous": false,
      "inputs": [
        {
          "indexed": false,
          "internalType": "address",
          "name": "token",
          "type": "address"
        },
        {
          "indexed": false,
          "internalType": "uint256",
          "name": "amount",
          "type": "uint256"
        }
      ],
      "name": "AdminTokenRecovery",
      "type": "event"
    },
    {
      "anonymous": false,
      "inputs": [
        {
          "indexed": false,
          "internalType": "address",
          "name": "claimer",
          "type": "address"
        },
        {
          "indexed": false,
          "internalType": "uint256",
          "name": "amount",
          "type": "uint256"
        }
      ],
      "name": "DistributeRewards",
      "type": "event"
    },
    {
      "anonymous": false,
      "inputs": [
        {
          "indexed": true,
          "internalType": "uint256",
          "name": "lotteryId",
          "type": "uint256"
        },
        {
          "indexed": false,
          "internalType": "uint256",
          "name": "firstTicketIdNextLottery",
          "type": "uint256"
        }
      ],
      "name": "LotteryClose",
      "type": "event"
    },
    {
      "anonymous": false,
      "inputs": [
        {
          "indexed": true,
          "internalType": "uint256",
          "name": "lotteryId",
          "type": "uint256"
        },
        {
          "indexed": false,
          "internalType": "uint256",
          "name": "injectedAmount",
          "type": "uint256"
        }
      ],
      "name": "LotteryInjection",
      "type": "event"
    },
    {
      "anonymous": false,
      "inputs": [
        {
          "indexed": true,
          "internalType": "uint256",
          "name": "lotteryId",
          "type": "uint256"
        },
        {
          "indexed": false,
          "internalType": "uint256",
          "name": "finalNumber",
          "type": "uint256"
        },
        {
          "indexed": false,
          "internalType": "uint256",
          "name": "countWinningTickets",
          "type": "uint256"
        }
      ],
      "name": "LotteryNumberDrawn",
      "type": "event"
    },
    {
      "anonymous": false,
      "inputs": [
        {
          "indexed": true,
          "internalType": "uint256",
          "name": "lotteryId",
          "type": "uint256"
        },
        {
          "indexed": false,
          "internalType": "uint256",
          "name": "startTime",
          "type": "uint256"
        },
        {
          "indexed": false,
          "internalType": "uint256",
          "name": "endTime",
          "type": "uint256"
        },
        {
          "indexed": false,
          "internalType": "uint256",
          "name": "priceTicketInBusd",
          "type": "uint256"
        },
        {
          "indexed": false,
          "internalType": "uint256",
          "name": "firstTicketId",
          "type": "uint256"
        },
        {
          "indexed": false,
          "internalType": "uint256",
          "name": "injectedAmount",
          "type": "uint256"
        }
      ],
      "name": "LotteryOpen",
      "type": "event"
    },
    {
      "anonymous": false,
      "inputs": [
        {
          "indexed": false,
          "internalType": "uint256",
          "name": "number",
          "type": "uint256"
        }
      ],
      "name": "NewExpandTo",
      "type": "event"
    },
    {
      "anonymous": false,
      "inputs": [
        {
          "indexed": false,
          "internalType": "address",
          "name": "operator",
          "type": "address"
        },
        {
          "indexed": false,
          "internalType": "address",
          "name": "treasury",
          "type": "address"
        },
        {
          "indexed": false,
          "internalType": "address",
          "name": "injector",
          "type": "address"
        }
      ],
      "name": "NewOperatorAndTreasuryAndInjectorAddresses",
      "type": "event"
    },
    {
      "anonymous": false,
      "inputs": [
        {
          "indexed": true,
          "internalType": "address",
          "name": "randomGenerator",
          "type": "address"
        }
      ],
      "name": "NewRandomGenerator",
      "type": "event"
    },
    {
      "anonymous": false,
      "inputs": [
        {
          "indexed": true,
          "internalType": "address",
          "name": "previousOwner",
          "type": "address"
        },
        {
          "indexed": true,
          "internalType": "address",
          "name": "newOwner",
          "type": "address"
        }
      ],
      "name": "OwnershipTransferred",
      "type": "event"
    },
    {
      "anonymous": false,
      "inputs": [
        {
          "indexed": false,
          "internalType": "address",
          "name": "owner",
          "type": "address"
        },
        {
          "indexed": false,
          "internalType": "uint256",
          "name": "amount",
          "type": "uint256"
        }
      ],
      "name": "ReturnFunds",
      "type": "event"
    },
    {
      "anonymous": false,
      "inputs": [
        {
          "indexed": true,
          "internalType": "address",
          "name": "claimer",
          "type": "address"
        },
        {
          "indexed": false,
          "internalType": "uint256",
          "name": "amount",
          "type": "uint256"
        },
        {
          "indexed": true,
          "internalType": "uint256",
          "name": "lotteryId",
          "type": "uint256"
        },
        {
          "indexed": false,
          "internalType": "uint256",
          "name": "numberTickets",
          "type": "uint256"
        }
      ],
      "name": "TicketsClaim",
      "type": "event"
    },
    {
      "anonymous": false,
      "inputs": [
        {
          "indexed": true,
          "internalType": "address",
          "name": "buyer",
          "type": "address"
        },
        {
          "indexed": true,
          "internalType": "uint256",
          "name": "lotteryId",
          "type": "uint256"
        },
        {
          "indexed": false,
          "internalType": "uint256",
          "name": "numberTickets",
          "type": "uint256"
        }
      ],
      "name": "TicketsPurchase",
      "type": "event"
    },
    {
      "inputs": [],
      "name": "MAX_LENGTH_LOTTERY",
      "outputs": [
        {
          "internalType": "uint256",
          "name": "",
          "type": "uint256"
        }
      ],
      "stateMutability": "view",
      "type": "function"
    },
    {
      "inputs": [],
      "name": "MAX_REFERRAL_FEE",
      "outputs": [
        {
          "internalType": "uint256",
          "name": "",
          "type": "uint256"
        }
      ],
      "stateMutability": "view",
      "type": "function"
    },
    {
      "inputs": [],
      "name": "MIN_LENGTH_LOTTERY",
      "outputs": [
        {
          "internalType": "uint256",
          "name": "",
          "type": "uint256"
        }
      ],
      "stateMutability": "view",
      "type": "function"
    },
    {
      "inputs": [
        {
          "internalType": "uint256",
          "name": "",
          "type": "uint256"
        }
      ],
      "name": "_winners",
      "outputs": [
        {
          "internalType": "uint256",
          "name": "lotteryId",
          "type": "uint256"
        },
        {
          "internalType": "uint256",
          "name": "ticket",
          "type": "uint256"
        },
        {
          "internalType": "uint256",
          "name": "prize",
          "type": "uint256"
        },
        {
          "internalType": "address",
          "name": "owner",
          "type": "address"
        },
        {
          "internalType": "bool",
          "name": "claimed",
          "type": "bool"
        }
      ],
      "stateMutability": "view",
      "type": "function"
    },
    {
      "inputs": [],
      "name": "busdToken",
      "outputs": [
        {
          "internalType": "contract IERC20",
          "name": "",
          "type": "address"
        }
      ],
      "stateMutability": "view",
      "type": "function"
    },
    {
      "inputs": [
        {
          "internalType": "uint256",
          "name": "_lotteryId",
          "type": "uint256"
        },
        {
          "internalType": "uint32[]",
          "name": "_ticketNumbers",
          "type": "uint32[]"
        },
        {
          "internalType": "address",
          "name": "_referral",
          "type": "address"
        }
      ],
      "name": "buyTickets",
      "outputs": [],
      "stateMutability": "nonpayable",
      "type": "function"
    },
    {
      "inputs": [
        {
          "internalType": "address",
          "name": "_randomGeneratorAddress",
          "type": "address"
        }
      ],
      "name": "changeRandomGenerator",
      "outputs": [],
      "stateMutability": "nonpayable",
      "type": "function"
    },
    {
      "inputs": [
        {
          "internalType": "uint256",
          "name": "_lotteryId",
          "type": "uint256"
        },
        {
          "internalType": "uint256[]",
          "name": "_ticketNumbers",
          "type": "uint256[]"
        }
      ],
      "name": "claimTickets",
      "outputs": [],
      "stateMutability": "nonpayable",
      "type": "function"
    },
    {
      "inputs": [
        {
          "internalType": "uint256",
          "name": "_lotteryId",
          "type": "uint256"
        }
      ],
      "name": "closeLottery",
      "outputs": [],
      "stateMutability": "nonpayable",
      "type": "function"
    },
    {
      "inputs": [],
      "name": "currentLotteryId",
      "outputs": [
        {
          "internalType": "uint256",
          "name": "",
          "type": "uint256"
        }
      ],
      "stateMutability": "view",
      "type": "function"
    },
    {
      "inputs": [],
      "name": "currentTicketId",
      "outputs": [
        {
          "internalType": "uint256",
          "name": "",
          "type": "uint256"
        }
      ],
      "stateMutability": "view",
      "type": "function"
    },
    {
      "inputs": [],
      "name": "currentWinnerId",
      "outputs": [
        {
          "internalType": "uint256",
          "name": "",
          "type": "uint256"
        }
      ],
      "stateMutability": "view",
      "type": "function"
    },
    {
      "inputs": [
        {
          "internalType": "uint256",
          "name": "_lotteryId",
          "type": "uint256"
        }
      ],
      "name": "distributeReferralRewards",
      "outputs": [],
      "stateMutability": "nonpayable",
      "type": "function"
    },
    {
      "inputs": [
        {
          "internalType": "uint256",
          "name": "_lotteryId",
          "type": "uint256"
        }
      ],
      "name": "drawAndMakeLotteryClaimable",
      "outputs": [],
      "stateMutability": "nonpayable",
      "type": "function"
    },
    {
      "inputs": [],
      "name": "expandTo",
      "outputs": [
        {
          "internalType": "uint256",
          "name": "",
          "type": "uint256"
        }
      ],
      "stateMutability": "view",
      "type": "function"
    },
    {
      "inputs": [],
      "name": "getWinningTickets",
      "outputs": [
        {
          "components": [
            {
              "internalType": "uint256",
              "name": "lotteryId",
              "type": "uint256"
            },
            {
              "internalType": "uint256",
              "name": "ticket",
              "type": "uint256"
            },
            {
              "internalType": "uint256",
              "name": "prize",
              "type": "uint256"
            },
            {
              "internalType": "address",
              "name": "owner",
              "type": "address"
            },
            {
              "internalType": "bool",
              "name": "claimed",
              "type": "bool"
            }
          ],
          "internalType": "struct WincketLottery.Winners[]",
          "name": "",
          "type": "tuple[]"
        }
      ],
      "stateMutability": "view",
      "type": "function"
    },
    {
      "inputs": [
        {
          "internalType": "uint256",
          "name": "_lotteryId",
          "type": "uint256"
        }
      ],
      "name": "getWinningTicketsPerLotteryId",
      "outputs": [
        {
          "components": [
            {
              "internalType": "uint256",
              "name": "lotteryId",
              "type": "uint256"
            },
            {
              "internalType": "uint256",
              "name": "ticket",
              "type": "uint256"
            },
            {
              "internalType": "uint256",
              "name": "prize",
              "type": "uint256"
            },
            {
              "internalType": "address",
              "name": "owner",
              "type": "address"
            },
            {
              "internalType": "bool",
              "name": "claimed",
              "type": "bool"
            }
          ],
          "internalType": "struct WincketLottery.Winners[]",
          "name": "",
          "type": "tuple[]"
        }
      ],
      "stateMutability": "view",
      "type": "function"
    },
    {
      "inputs": [
        {
          "internalType": "uint256",
          "name": "_lotteryId",
          "type": "uint256"
        },
        {
          "internalType": "address",
          "name": "user",
          "type": "address"
        }
      ],
      "name": "hasAmountToWithdraw",
      "outputs": [
        {
          "internalType": "uint256",
          "name": "",
          "type": "uint256"
        },
        {
          "internalType": "uint256",
          "name": "",
          "type": "uint256"
        }
      ],
      "stateMutability": "view",
      "type": "function"
    },
    {
      "inputs": [
        {
          "internalType": "uint256",
          "name": "_lotteryId",
          "type": "uint256"
        },
        {
          "internalType": "address",
          "name": "user",
          "type": "address"
        }
      ],
      "name": "hasReferralRewardsToClaim",
      "outputs": [
        {
          "internalType": "uint256",
          "name": "",
          "type": "uint256"
        }
      ],
      "stateMutability": "view",
      "type": "function"
    },
    {
      "inputs": [
        {
          "internalType": "uint256",
          "name": "_lotteryId",
          "type": "uint256"
        },
        {
          "internalType": "uint256",
          "name": "_amount",
          "type": "uint256"
        }
      ],
      "name": "injectFunds",
      "outputs": [],
      "stateMutability": "nonpayable",
      "type": "function"
    },
    {
      "inputs": [],
      "name": "injectorAddress",
      "outputs": [
        {
          "internalType": "address",
          "name": "",
          "type": "address"
        }
      ],
      "stateMutability": "view",
      "type": "function"
    },
    {
      "inputs": [],
      "name": "maxNumberTicketsPerBuyOrClaim",
      "outputs": [
        {
          "internalType": "uint256",
          "name": "",
          "type": "uint256"
        }
      ],
      "stateMutability": "view",
      "type": "function"
    },
    {
      "inputs": [],
      "name": "maxPriceTicketInBusd",
      "outputs": [
        {
          "internalType": "uint256",
          "name": "",
          "type": "uint256"
        }
      ],
      "stateMutability": "view",
      "type": "function"
    },
    {
      "inputs": [],
      "name": "minPriceTicketInBusd",
      "outputs": [
        {
          "internalType": "uint256",
          "name": "",
          "type": "uint256"
        }
      ],
      "stateMutability": "view",
      "type": "function"
    },
    {
      "inputs": [],
      "name": "operatorAddress",
      "outputs": [
        {
          "internalType": "address",
          "name": "",
          "type": "address"
        }
      ],
      "stateMutability": "view",
      "type": "function"
    },
    {
      "inputs": [],
      "name": "owner",
      "outputs": [
        {
          "internalType": "address",
          "name": "",
          "type": "address"
        }
      ],
      "stateMutability": "view",
      "type": "function"
    },
    {
      "inputs": [],
      "name": "pendingInjectionNextLottery",
      "outputs": [
        {
          "internalType": "uint256",
          "name": "",
          "type": "uint256"
        }
      ],
      "stateMutability": "view",
      "type": "function"
    },
    {
      "inputs": [],
      "name": "randomGenerator",
      "outputs": [
        {
          "internalType": "contract IRandomNumberGenerator",
          "name": "",
          "type": "address"
        }
      ],
      "stateMutability": "view",
      "type": "function"
    },
    {
      "inputs": [
        {
          "internalType": "address",
          "name": "_tokenAddress",
          "type": "address"
        },
        {
          "internalType": "uint256",
          "name": "_tokenAmount",
          "type": "uint256"
        }
      ],
      "name": "recoverWrongTokens",
      "outputs": [],
      "stateMutability": "nonpayable",
      "type": "function"
    },
    {
      "inputs": [],
      "name": "renounceOwnership",
      "outputs": [],
      "stateMutability": "nonpayable",
      "type": "function"
    },
    {
      "inputs": [
        {
          "internalType": "uint256",
          "name": "_number",
          "type": "uint256"
        }
      ],
      "name": "setExpandTo",
      "outputs": [],
      "stateMutability": "nonpayable",
      "type": "function"
    },
    {
      "inputs": [
        {
          "internalType": "uint256",
          "name": "_maxNumberTicketsPerBuy",
          "type": "uint256"
        }
      ],
      "name": "setMaxNumberTicketsPerBuy",
      "outputs": [],
      "stateMutability": "nonpayable",
      "type": "function"
    },
    {
      "inputs": [
        {
          "internalType": "uint256",
          "name": "_minPriceTicketInBusd",
          "type": "uint256"
        },
        {
          "internalType": "uint256",
          "name": "_maxPriceTicketInBusd",
          "type": "uint256"
        }
      ],
      "name": "setMinAndMaxTicketPriceInBusd",
      "outputs": [],
      "stateMutability": "nonpayable",
      "type": "function"
    },
    {
      "inputs": [
        {
          "internalType": "address",
          "name": "_operatorAddress",
          "type": "address"
        },
        {
          "internalType": "address",
          "name": "_treasuryAddress",
          "type": "address"
        },
        {
          "internalType": "address",
          "name": "_injectorAddress",
          "type": "address"
        }
      ],
      "name": "setOperatorAndTreasuryAndInjectorAddresses",
      "outputs": [],
      "stateMutability": "nonpayable",
      "type": "function"
    },
    {
      "inputs": [
        {
          "internalType": "uint256",
          "name": "_endTime",
          "type": "uint256"
        },
        {
          "internalType": "uint256",
          "name": "_priceTicketInBusd",
          "type": "uint256"
        },
        {
          "internalType": "uint256",
          "name": "_minTicketsToSell",
          "type": "uint256"
        },
        {
          "internalType": "uint256",
          "name": "_maxTicketsToSell",
          "type": "uint256"
        },
        {
          "internalType": "uint256[]",
          "name": "_prizes",
          "type": "uint256[]"
        },
        {
          "internalType": "uint256",
          "name": "_referralReward",
          "type": "uint256"
        }
      ],
      "name": "startLottery",
      "outputs": [],
      "stateMutability": "nonpayable",
      "type": "function"
    },
    {
      "inputs": [
        {
          "internalType": "address",
          "name": "newOwner",
          "type": "address"
        }
      ],
      "name": "transferOwnership",
      "outputs": [],
      "stateMutability": "nonpayable",
      "type": "function"
    },
    {
      "inputs": [],
      "name": "treasuryAddress",
      "outputs": [
        {
          "internalType": "address",
          "name": "",
          "type": "address"
        }
      ],
      "stateMutability": "view",
      "type": "function"
    },
    {
      "inputs": [],
      "name": "viewCurrentLotteryId",
      "outputs": [
        {
          "internalType": "uint256",
          "name": "",
          "type": "uint256"
        }
      ],
      "stateMutability": "view",
      "type": "function"
    },
    {
      "inputs": [
        {
          "internalType": "uint256",
          "name": "_lotteryId",
          "type": "uint256"
        }
      ],
      "name": "viewLottery",
      "outputs": [
        {
          "components": [
            {
              "internalType": "enum WincketLottery.Status",
              "name": "status",
              "type": "uint8"
            },
            {
              "internalType": "uint256",
              "name": "startTime",
              "type": "uint256"
            },
            {
              "internalType": "uint256",
              "name": "endTime",
              "type": "uint256"
            },
            {
              "internalType": "uint256",
              "name": "priceTicketInBusd",
              "type": "uint256"
            },
            {
              "internalType": "uint256",
              "name": "firstTicketId",
              "type": "uint256"
            },
            {
              "internalType": "uint256",
              "name": "firstTicketIdNextLottery",
              "type": "uint256"
            },
            {
              "internalType": "uint256",
              "name": "amountCollectedInBusd",
              "type": "uint256"
            },
            {
              "internalType": "uint32",
              "name": "finalNumber",
              "type": "uint32"
            },
            {
              "internalType": "uint256",
              "name": "ticketsSold",
              "type": "uint256"
            },
            {
              "internalType": "uint256",
              "name": "minTicketsToSell",
              "type": "uint256"
            },
            {
              "internalType": "uint256",
              "name": "maxTicketsToSell",
              "type": "uint256"
            },
            {
              "internalType": "uint256[]",
              "name": "prizes",
              "type": "uint256[]"
            },
            {
              "internalType": "uint256",
              "name": "referralReward",
              "type": "uint256"
            },
            {
              "internalType": "uint256",
              "name": "firstWinnerId",
              "type": "uint256"
            },
            {
              "internalType": "uint256",
              "name": "firstWinnerIdNextLottery",
              "type": "uint256"
            }
          ],
          "internalType": "struct WincketLottery.Lottery",
          "name": "",
          "type": "tuple"
        }
      ],
      "stateMutability": "view",
      "type": "function"
    },
    {
      "inputs": [
        {
          "internalType": "uint256[]",
          "name": "_ticketIds",
          "type": "uint256[]"
        }
      ],
      "name": "viewNumbersAndStatusesForTicketIds",
      "outputs": [
        {
          "internalType": "uint32[]",
          "name": "",
          "type": "uint32[]"
        },
        {
          "internalType": "bool[]",
          "name": "",
          "type": "bool[]"
        }
      ],
      "stateMutability": "view",
      "type": "function"
    },
    {
      "inputs": [
        {
          "internalType": "uint256",
          "name": "_lotteryId",
          "type": "uint256"
        },
        {
          "internalType": "uint256",
          "name": "_ticketNumber",
          "type": "uint256"
        }
      ],
      "name": "viewRewardsForTicketNumber",
      "outputs": [
        {
          "internalType": "uint256",
          "name": "",
          "type": "uint256"
        }
      ],
      "stateMutability": "view",
      "type": "function"
    },
    {
      "inputs": [
        {
          "internalType": "address",
          "name": "_user",
          "type": "address"
        },
        {
          "internalType": "uint256",
          "name": "_lotteryId",
          "type": "uint256"
        },
        {
          "internalType": "uint256",
          "name": "_cursor",
          "type": "uint256"
        },
        {
          "internalType": "uint256",
          "name": "_size",
          "type": "uint256"
        }
      ],
      "name": "viewUserInfoForLotteryId",
      "outputs": [
        {
          "internalType": "uint256[]",
          "name": "",
          "type": "uint256[]"
        },
        {
          "internalType": "uint32[]",
          "name": "",
          "type": "uint32[]"
        },
        {
          "internalType": "bool[]",
          "name": "",
          "type": "bool[]"
        },
        {
          "internalType": "uint256",
          "name": "",
          "type": "uint256"
        }
      ],
      "stateMutability": "view",
      "type": "function"
    },
    {
      "inputs": [
        {
          "internalType": "uint256",
          "name": "_lotteryId",
          "type": "uint256"
        }
      ],
      "name": "withdrawFunds",
      "outputs": [],
      "stateMutability": "nonpayable",
      "type": "function"
    }
  ],
  "bytecode": "0x6080604052600560085560646009556802b5e3af16b1880000600a556706f05b59d3b20000600b553480156200003457600080fd5b5060405162004f1d38038062004f1d833981016040819052620000579162000108565b6001600055620000673362000099565b600d80546001600160a01b039384166001600160a01b031991821617909155600e80549290931691161790556200013f565b600180546001600160a01b038381166001600160a01b0319831681179093556040519116919082907f8be0079c531659141344cd1fd0a4f28419497f9722a3daafe3b4186f6b6457e090600090a35050565b80516001600160a01b03811681146200010357600080fd5b919050565b600080604083850312156200011b578182fd5b6200012683620000eb565b91506200013660208401620000eb565b90509250929050565b614dce806200014f6000396000f3fe608060405234801561001057600080fd5b50600436106102e95760003560e01c8063805955a611610191578063c84748b6116100e3578063dcbad90d11610097578063e8ae2edf11610071578063e8ae2edf146105d4578063f2fde38b146105e7578063f6903411146105fa57600080fd5b8063dcbad90d1461059b578063de0e7014146105ae578063e49eb0da146105c157600080fd5b8063d9f9061a116100c8578063d9f9061a14610575578063da4ca0391461057e578063db19da0d1461059157600080fd5b8063c84748b614610559578063cc058a851461056c57600080fd5b80639c38465311610145578063b2186e8f1161011f578063b2186e8f1461050b578063b6c9a7371461051e578063c5f956af1461054657600080fd5b80639c384653146104dd5780639d8ca531146104f0578063a1f930561461050357600080fd5b80638da5cb5b116101765780638da5cb5b146104985780638fc3539a146104a957806398359fa1146104ca57600080fd5b8063805955a61461047d57806380a061601461049057600080fd5b80632423807a1161024a5780634a53783b116101fe5780636b873788116101d85780636b873788146104595780636be4097c1461046c578063715018a61461047557600080fd5b80634a53783b1461041d578063542df7081461043d578063686465b81461045057600080fd5b80633d78a0791161022f5780633d78a079146103ee5780633f138d4b146103f7578063471aeab41461040a57600080fd5b80632423807a146103bb57806328ac7010146103db57600080fd5b8063155dd5ee116102a15780631e61079c116102865780631e61079c146103965780631fe86c6b1461039f578063203214ea146103a857600080fd5b8063155dd5ee1461037a57806316aa3c781461038d57600080fd5b806307fb5a9c116102d257806307fb5a9c1461032f578063127effb21461034657806312a9769d1461037157600080fd5b806305531eeb146102ee57806307720da31461031a575b600080fd5b6103016102fc3660046146ad565b610677565b6040516103119493929190614b27565b60405180910390f35b61032d6103283660046148aa565b6109ef565b005b61033861371481565b604051908152602001610311565b600354610359906001600160a01b031681565b6040516001600160a01b039091168152602001610311565b610338600c5481565b61032d610388366004614805565b6111e7565b61033860075481565b61033861138881565b61033860095481565b61032d6103b6366004614927565b611534565b6103ce6103c9366004614805565b61198b565b6040516103119190614bd3565b61032d6103e9366004614805565b611b6b565b610338600a5481565b61032d610405366004614684565b61217a565b61032d610418366004614906565b61228c565b61043061042b366004614805565b6123e5565b6040516103119190614aae565b61033861044b366004614906565b612556565b61033860065481565b61032d610467366004614805565b6125e9565b61033860055481565b61032d612695565b61032d61048b366004614805565b6126fb565b600554610338565b6001546001600160a01b0316610359565b6104bc6104b73660046146e5565b612aba565b604051610311929190614b72565b61032d6104d8366004614628565b612cd6565b600254610359906001600160a01b031681565b61032d6104fe366004614805565b612f1a565b6104306131f1565b610338610519366004614835565b61333e565b61053161052c366004614835565b6134ce565b60408051928352602083019190915201610311565b600454610359906001600160a01b031681565b61032d610567366004614805565b613677565b61033860085481565b610338600b5481565b61032d61058c366004614642565b61370c565b6103386283d72c81565b600e54610359906001600160a01b031681565b600d54610359906001600160a01b031681565b61032d6105cf366004614860565b6138f9565b61032d6105e2366004614906565b613d4d565b61032d6105f5366004614628565b613e02565b610644610608366004614805565b6011602052600090815260409020805460018201546002830154600390930154919290916001600160a01b03811690600160a01b900460ff1685565b604080519586526020860194909452928401919091526001600160a01b031660608301521515608082015260a001610311565b6001600160a01b0384166000908152601260209081526040808320868452909152812054606091829182919085906106af8882614cfb565b8211156106c3576106c08882614cfb565b91505b60008267ffffffffffffffff8111156106ec57634e487b7160e01b600052604160045260246000fd5b604051908082528060200260200182016040528015610715578160200160208202803683370190505b50905060008367ffffffffffffffff81111561074157634e487b7160e01b600052604160045260246000fd5b60405190808252806020026020018201604052801561076a578160200160208202803683370190505b50905060008467ffffffffffffffff81111561079657634e487b7160e01b600052604160045260246000fd5b6040519080825280602002602001820160405280156107bf578160200160208202803683370190505b50905060005b858110156109c957601260008f6001600160a01b03166001600160a01b0316815260200190815260200160002060008e81526020019081526020016000208c8261080f9190614cb0565b8154811061082d57634e487b7160e01b600052603260045260246000fd5b906000526020600020015484828151811061085857634e487b7160e01b600052603260045260246000fd5b6020026020010181815250506010600085838151811061088857634e487b7160e01b600052603260045260246000fd5b6020026020010151815260200190815260200160002060000160009054906101000a900463ffffffff168382815181106108d257634e487b7160e01b600052603260045260246000fd5b602002602001019063ffffffff16908163ffffffff168152505060006001600160a01b03166010600086848151811061091b57634e487b7160e01b600052603260045260246000fd5b60209081029190910181015182528101919091526040016000205464010000000090046001600160a01b0316141561098457600182828151811061096f57634e487b7160e01b600052603260045260246000fd5b911515602092830291909101909101526109b7565b60008282815181106109a657634e487b7160e01b600052603260045260246000fd5b911515602092830291909101909101525b806109c181614d3e565b9150506107c5565b508282826109d7888f614cb0565b98509850985098505050505050945094509450949050565b333b15610a3a5760405162461bcd60e51b815260206004820152601460248201527310dbdb9d1c9858dd081b9bdd08185b1b1bddd95960621b60448201526064015b60405180910390fd5b333214610a895760405162461bcd60e51b815260206004820152601a60248201527f50726f787920636f6e7472616374206e6f7420616c6c6f7765640000000000006044820152606401610a31565b60026000541415610adc5760405162461bcd60e51b815260206004820152601f60248201527f5265656e7472616e637947756172643a207265656e7472616e742063616c6c006044820152606401610a31565b600260005581610b2e5760405162461bcd60e51b815260206004820152601360248201527f4e6f207469636b657420737065636966696564000000000000000000000000006044820152606401610a31565b600954821115610b735760405162461bcd60e51b815260206004820152601060248201526f546f6f206d616e79207469636b65747360801b6044820152606401610a31565b60016000858152600f602052604090205460ff166004811115610ba657634e487b7160e01b600052602160045260246000fd5b14610bf35760405162461bcd60e51b815260206004820152601360248201527f4c6f7474657279206973206e6f74206f70656e000000000000000000000000006044820152606401610a31565b6000848152600f60205260409020600201544210610c535760405162461bcd60e51b815260206004820152600f60248201527f4c6f7474657279206973206f76657200000000000000000000000000000000006044820152606401610a31565b6000848152600f60205260409020600a8101546008909101541115610ce05760405162461bcd60e51b815260206004820152603260248201527f4d6178696d756d206e756d626572206f66206c6f7474657279207469636b657460448201527f7320746f2073656c6c20657863656564656400000000000000000000000000006064820152608401610a31565b6000848152600f6020526040812060080154610cfd908490614cb0565b6000868152600f60205260409020600a0154909150811115610dad5760405162461bcd60e51b815260206004820152604c60248201527f546865206e756d626572206f66207469636b65747320746f206275792065786360448201527f6565647320746865206d6178696d756d206e756d626572206f66207469636b6560648201527f747320617661696c61626c650000000000000000000000000000000000000000608482015260a401610a31565b6000858152600f6020526040812060030154610dca908590614cdc565b6000878152600f60205260408120600c8101546003909101549293509091610df3919087613ee4565b600d54909150610e0e906001600160a01b0316333085613f12565b336001600160a01b03851614610e83576001600160a01b03841660009081526014602090815260408083208a845282528083208151808301909252848252818301848152815460018082018455928652939094209151600290930290910191825591519101805460ff19169115159190911790555b6000878152600f602052604081206006018054849290610ea4908490614cb0565b90915550600090505b858110156111a1576000878783818110610ed757634e487b7160e01b600052603260045260246000fd5b9050602002016020810190610eec9190614998565b9050620f42408163ffffffff1610158015610f105750621e847f8163ffffffff1611155b610f5c5760405162461bcd60e51b815260206004820152600d60248201527f4f7574736964652072616e6765000000000000000000000000000000000000006044820152606401610a31565b600089815260136020908152604080832063ffffffff8516845290915290205460ff1615610ff25760405162461bcd60e51b815260206004820152603c60248201527f5469636b657420616c726561647920736f6c642c2063686f6f736520616e6f7460448201527f686572206e756d62657220616e642074727920697420616761696e2e000000006064820152608401610a31565b6001601360008b815260200190815260200160002060008363ffffffff16815260200190815260200160002060006101000a81548160ff02191690831515021790555060126000336001600160a01b03166001600160a01b0316815260200190815260200160002060008a8152602001908152602001600020600654908060018154018082558091505060019003906000526020600020016000909190919091505560405180606001604052808263ffffffff168152602001336001600160a01b031681526020016001151581525060106000600654815260200190815260200160002060008201518160000160006101000a81548163ffffffff021916908363ffffffff16021790555060208201518160000160046101000a8154816001600160a01b0302191690836001600160a01b0316021790555060408201518160000160186101000a81548160ff0219169083151502179055509050506006600081548092919061116090614d3e565b90915550506000898152600f60205260408120600801805460019290611187908490614cb0565b90915550829150611199905081614d3e565b915050610ead565b50604051858152879033907fd7d247b583de1023852eef87b48f54354dbec771d01bc2cc49e96094efc322b99060200160405180910390a3505060016000555050505050565b333b1561122d5760405162461bcd60e51b815260206004820152601460248201527310dbdb9d1c9858dd081b9bdd08185b1b1bddd95960621b6044820152606401610a31565b33321461127c5760405162461bcd60e51b815260206004820152601a60248201527f50726f787920636f6e7472616374206e6f7420616c6c6f7765640000000000006044820152606401610a31565b600260005414156112cf5760405162461bcd60e51b815260206004820152601f60248201527f5265656e7472616e637947756172643a207265656e7472616e742063616c6c006044820152606401610a31565b600260005560046000828152600f602052604090205460ff16600481111561130757634e487b7160e01b600052602160045260246000fd5b146113545760405162461bcd60e51b815260206004820152601560248201527f4c6f747465727920213d20756e7265616c697a656400000000000000000000006044820152606401610a31565b336000908152601260209081526040808320848452909152812054815b8181101561147c5733600090815260126020908152604080832087845290915281208054829190849081106113b657634e487b7160e01b600052603260045260246000fd5b6000918252602080832090910154808352601090915260409091205490915064010000000090046001600160a01b03163314801561140e5750600081815260106020526040902054600160c01b900460ff1615156001145b1561145b57600081815260106020908152604080832080547fffffffffffffff00ffffffffffffffffffffffffffffffffffffffffffffffff169055888352600f90915290206003015491505b6114658286614cb0565b94505050808061147490614d3e565b915050611371565b50600082116114d95760405162461bcd60e51b8152602060048201526024808201527f4e6f20616d6f756e7420746f2072657475726e20666f722074686973206c6f746044820152637465727960e01b6064820152608401610a31565b600d546114f0906001600160a01b03163384613f98565b60408051338152602081018490527ff8b026935c2d27799fd0d371c6695492c8de099c04ee9281ca03f935790d6b4191015b60405180910390a15050600160005550565b6003546001600160a01b0316331461157d5760405162461bcd60e51b815260206004820152600c60248201526b2737ba1037b832b930ba37b960a11b6044820152606401610a31565b60055415806115bf575060036005546000908152600f602052604090205460ff1660048111156115bd57634e487b7160e01b600052602160045260246000fd5b145b806115fd575060046005546000908152600f602052604090205460ff1660048111156115fb57634e487b7160e01b600052602160045260246000fd5b145b6116495760405162461bcd60e51b815260206004820152601960248201527f4e6f742074696d6520746f207374617274206c6f7474657279000000000000006044820152606401610a31565b6137146116564289614cfb565b11801561166e57506283d72c61166c4289614cfb565b105b6116ba5760405162461bcd60e51b815260206004820152601f60248201527f4c6f7474657279206c656e677468206f757473696465206f662072616e6765006044820152606401610a31565b600b5486101580156116ce5750600a548611155b61171a5760405162461bcd60e51b815260206004820152601160248201527f4f757473696465206f66206c696d6974730000000000000000000000000000006044820152606401610a31565b61138881111561176c5760405162461bcd60e51b815260206004820152601560248201527f526566657272616c2066656520746f6f206869676800000000000000000000006044820152606401610a31565b6005805490600061177c83614d3e565b9091555050604080516101e08101909152806001815260200142815260200188815260200187815260200160065481526020016006548152602001600c548152602001600063ffffffff168152602001600081526020018681526020018581526020018484808060200260200160405190810160405280939291908181526020018383602002808284376000920182905250938552505050602080830185905260075460408085018290526060909401526005548252600f90522081518154829060ff1916600183600481111561186357634e487b7160e01b600052602160045260246000fd5b0217905550602082810151600183015560408301516002830155606083015160038301556080830151600483015560a0830151600583015560c0830151600683015560e083015160078301805463ffffffff191663ffffffff90921691909117905561010083015160088301556101208301516009830155610140830151600a83015561016083015180516118fe92600b8501920190614569565b50610180820151600c808301919091556101a0830151600d8301556101c090920151600e90910155600554600654915460408051428152602081018c90529081018a905260608101939093526080830152907f367e70f8c0e0c0a6504d92172bda155c02022d532fc85b5d66a9c49e31c8bc779060a00160405180910390a250506000600c555050505050565b611a0b604080516101e081019091528060008152602001600081526020016000815260200160008152602001600081526020016000815260200160008152602001600063ffffffff168152602001600081526020016000815260200160008152602001606081526020016000815260200160008152602001600081525090565b6000828152600f60205260409081902081516101e081019092528054829060ff166004811115611a4b57634e487b7160e01b600052602160045260246000fd5b6004811115611a6a57634e487b7160e01b600052602160045260246000fd5b81526020016001820154815260200160028201548152602001600382015481526020016004820154815260200160058201548152602001600682015481526020016007820160009054906101000a900463ffffffff1663ffffffff1663ffffffff1681526020016008820154815260200160098201548152602001600a8201548152602001600b8201805480602002602001604051908101604052809291908181526020018280548015611b3d57602002820191906000526020600020905b815481526020019060010190808311611b29575b50505050508152602001600c8201548152602001600d8201548152602001600e820154815250509050919050565b6003546001600160a01b03163314611bb45760405162461bcd60e51b815260206004820152600c60248201526b2737ba1037b832b930ba37b960a11b6044820152606401610a31565b60026000541415611c075760405162461bcd60e51b815260206004820152601f60248201527f5265656e7472616e637947756172643a207265656e7472616e742063616c6c006044820152606401610a31565b60026000818155828152600f602052604090205460ff166004811115611c3d57634e487b7160e01b600052602160045260246000fd5b14611c8a5760405162461bcd60e51b815260206004820152601160248201527f4c6f7474657279206e6f7420636c6f73650000000000000000000000000000006044820152606401610a31565b600e60009054906101000a90046001600160a01b03166001600160a01b031663fbe5d9176040518163ffffffff1660e01b815260040160206040518083038186803b158015611cd857600080fd5b505afa158015611cec573d6000803e3d6000fd5b505050506040513d601f19601f82011682018060405250810190611d10919061481d565b8114611d5e5760405162461bcd60e51b815260206004820152601160248201527f4e756d62657273206e6f7420647261776e0000000000000000000000000000006044820152606401610a31565b600080600090506000600e60009054906101000a90046001600160a01b03166001600160a01b031663a1c4f55a6040518163ffffffff1660e01b815260040160206040518083038186803b158015611db557600080fd5b505afa158015611dc9573d6000803e3d6000fd5b505050506040513d601f19601f82011682018060405250810190611ded91906149b4565b600e546008546040516321d2cebf60e21b815263ffffffff8416600482015260248101919091529192506000916001600160a01b039091169063874b3afc9060440160006040518083038186803b158015611e4757600080fd5b505afa158015611e5b573d6000803e3d6000fd5b505050506040513d6000823e601f3d908101601f19168201604052611e839190810190614725565b90506000611e9086613fcd565b90506000611e9e82846140ae565b905060005b6000888152600f60205260409020600b0154811015612060576000828281518110611ede57634e487b7160e01b600052603260045260246000fd5b60200260200101519050600f60008a8152602001908152602001600020600b018281548110611f1d57634e487b7160e01b600052603260045260246000fd5b906000526020600020015487611f339190614cb0565b6040805160a0810182528b81526000848152601060209081528382205463ffffffff16818401528d8252600f9052829020600b018054939a5090929183019185908110611f9057634e487b7160e01b600052603260045260246000fd5b60009182526020808320909101548352848252601081526040808320546001600160a01b0364010000000090910481168584015293810183905260078054845260118352818420865181559286015160018401559085015160028301556060850151600390920180546080909601511515600160a01b027fffffffffffffffffffffff0000000000000000000000000000000000000000009096169290941691909117939093179091558154919061204783614d3e565b919050555050808061205890614d3e565b915050611ea3565b506000878152600f602052604081206007808201805463ffffffff191663ffffffff89161790558154600360ff19909116811783559054600e830155600c82015490820154600890920154612710926120b891614cdc565b6120c29190614cdc565b6120cc9190614cc8565b6000898152600f602052604090206006015490915081906120ee908890614cfb565b6120f89190614cfb565b600454600d54919850612118916001600160a01b03908116911689613f98565b6005546000898152600f6020908152604091829020600b0154825163ffffffff8a168152918201527f98e31a6607b8b15b4d5b91de54f4c09ffe4c4cf162aa532c70b5213754e2e703910160405180910390a250506001600055505050505050565b6001546001600160a01b031633146121d45760405162461bcd60e51b815260206004820181905260248201527f4f776e61626c653a2063616c6c6572206973206e6f7420746865206f776e65726044820152606401610a31565b600d546001600160a01b03838116911614156122325760405162461bcd60e51b815260206004820152601460248201527f43616e6e6f74206265204255534420746f6b656e0000000000000000000000006044820152606401610a31565b6122466001600160a01b0383163383613f98565b604080516001600160a01b0384168152602081018390527f74545154aac348a3eac92596bd1971957ca94795f4e954ec5f613b55fab78129910160405180910390a15050565b6001546001600160a01b03163314806122af57506002546001600160a01b031633145b6122fb5760405162461bcd60e51b815260206004820152601560248201527f4e6f74206f776e6572206f7220696e6a6563746f7200000000000000000000006044820152606401610a31565b60016000838152600f602052604090205460ff16600481111561232e57634e487b7160e01b600052602160045260246000fd5b1461236e5760405162461bcd60e51b815260206004820152601060248201526f2637ba3a32b93c903737ba1037b832b760811b6044820152606401610a31565b600d54612386906001600160a01b0316333084613f12565b6000828152600f6020526040812060060180548392906123a7908490614cb0565b909155505060405181815282907f1bbd659dd628a25f7ff2eabb69c74a56939c539728282275c1c9c1a2d3e340499060200160405180910390a25050565b6000818152600f60205260408120600d810154600b909101546060928167ffffffffffffffff81111561242857634e487b7160e01b600052604160045260246000fd5b60405190808252806020026020018201604052801561249657816020015b6124836040518060a0016040528060008152602001600081526020016000815260200160006001600160a01b031681526020016000151581525090565b8152602001906001900390816124465790505b50905060005b8281101561254d57601160006124b28387614cb0565b81526020808201929092526040908101600020815160a08101835281548152600182015493810193909352600281015491830191909152600301546001600160a01b0381166060830152600160a01b900460ff1615156080820152825183908390811061252f57634e487b7160e01b600052603260045260246000fd5b6020026020010181905250808061254590614d3e565b91505061249c565b50949350505050565b600060036000848152600f602052604090205460ff16600481111561258b57634e487b7160e01b600052602160045260246000fd5b14612598575060006125e3565b6000838152600f6020526040902060050154821180156125c957506000838152600f60205260409020600401548211155b156125d6575060006125e3565b6125e083836141f3565b90505b92915050565b6001546001600160a01b031633146126435760405162461bcd60e51b815260206004820181905260248201527f4f776e61626c653a2063616c6c6572206973206e6f7420746865206f776e65726044820152606401610a31565b806126905760405162461bcd60e51b815260206004820152600b60248201527f4d757374206265203e20300000000000000000000000000000000000000000006044820152606401610a31565b600955565b6001546001600160a01b031633146126ef5760405162461bcd60e51b815260206004820181905260248201527f4f776e61626c653a2063616c6c6572206973206e6f7420746865206f776e65726044820152606401610a31565b6126f96000614311565b565b333b156127415760405162461bcd60e51b815260206004820152601460248201527310dbdb9d1c9858dd081b9bdd08185b1b1bddd95960621b6044820152606401610a31565b3332146127905760405162461bcd60e51b815260206004820152601a60248201527f50726f787920636f6e7472616374206e6f7420616c6c6f7765640000000000006044820152606401610a31565b600260005414156127e35760405162461bcd60e51b815260206004820152601f60248201527f5265656e7472616e637947756172643a207265656e7472616e742063616c6c006044820152606401610a31565b600260005560036000828152600f602052604090205460ff16600481111561281b57634e487b7160e01b600052602160045260246000fd5b146128685760405162461bcd60e51b815260206004820152601560248201527f4c6f7474657279206e6f7420636c61696d61626c6500000000000000000000006044820152606401610a31565b336000908152601460209081526040808320848452909152812054815b818110156129ae5733600090815260146020908152604080832087845290915281208054839081106128c757634e487b7160e01b600052603260045260246000fd5b600091825260209091206001600290920201015460ff1661298e5733600090815260146020908152604080832088845290915290208054600191908490811061292057634e487b7160e01b600052603260045260246000fd5b60009182526020808320600292909202909101600101805460ff1916931515939093179092553381526014825260408082208883529092522080548390811061297957634e487b7160e01b600052603260045260246000fd5b90600052602060002090600202016000015490505b6129988185614cb0565b93505080806129a690614d3e565b915050612885565b50600082116129ff5760405162461bcd60e51b815260206004820152601b60248201527f4e6f207265776172647320666f722074686973206c6f747465727900000000006044820152606401610a31565b600d5460405163a9059cbb60e01b8152336004820152602481018490526001600160a01b039091169063a9059cbb90604401602060405180830381600087803b158015612a4b57600080fd5b505af1158015612a5f573d6000803e3d6000fd5b505050506040513d601f19601f82011682018060405250810190612a8391906147e5565b5060408051338152602081018490527f962bc326c7b063c70721a63687e0e19450155f93c58eca94769746c0cfb02c5d9101611522565b6060808260008167ffffffffffffffff811115612ae757634e487b7160e01b600052604160045260246000fd5b604051908082528060200260200182016040528015612b10578160200160208202803683370190505b50905060008267ffffffffffffffff811115612b3c57634e487b7160e01b600052604160045260246000fd5b604051908082528060200260200182016040528015612b65578160200160208202803683370190505b50905060005b83811015612cc75760106000898984818110612b9757634e487b7160e01b600052603260045260246000fd5b90506020020135815260200190815260200160002060000160009054906101000a900463ffffffff16838281518110612be057634e487b7160e01b600052603260045260246000fd5b63ffffffff9092166020928302919091019091015260006010818a8a85818110612c1a57634e487b7160e01b600052603260045260246000fd5b602090810292909201358352508101919091526040016000205464010000000090046001600160a01b03161415612c82576001828281518110612c6d57634e487b7160e01b600052603260045260246000fd5b91151560209283029190910190910152612cb5565b6000828281518110612ca457634e487b7160e01b600052603260045260246000fd5b911515602092830291909101909101525b80612cbf81614d3e565b915050612b6b565b509093509150505b9250929050565b6001546001600160a01b03163314612d305760405162461bcd60e51b815260206004820181905260248201527f4f776e61626c653a2063616c6c6572206973206e6f7420746865206f776e65726044820152606401610a31565b6005541580612d72575060036005546000908152600f602052604090205460ff166004811115612d7057634e487b7160e01b600052602160045260246000fd5b145b612dbe5760405162461bcd60e51b815260206004820152601860248201527f4c6f7474657279206e6f7420696e20636c61696d61626c6500000000000000006044820152606401610a31565b806001600160a01b031663b37217a4600554600654604051602001612ded929190918252602082015260400190565b60408051808303601f1901815290829052805160209091012060e083901b6001600160e01b03191682526004820152602401600060405180830381600087803b158015612e3957600080fd5b505af1158015612e4d573d6000803e3d6000fd5b50505050806001600160a01b031663a1c4f55a6040518163ffffffff1660e01b815260040160206040518083038186803b158015612e8a57600080fd5b505afa158015612e9e573d6000803e3d6000fd5b505050506040513d601f19601f82011682018060405250810190612ec291906149b4565b50600e805473ffffffffffffffffffffffffffffffffffffffff19166001600160a01b0383169081179091556040517f383f8cb39dfa7c3fb901a460dd449ea924868f0a92ff03da64740fffa5f1de6290600090a250565b6003546001600160a01b03163314612f635760405162461bcd60e51b815260206004820152600c60248201526b2737ba1037b832b930ba37b960a11b6044820152606401610a31565b60026000541415612fb65760405162461bcd60e51b815260206004820152601f60248201527f5265656e7472616e637947756172643a207265656e7472616e742063616c6c006044820152606401610a31565b600260005560016000828152600f602052604090205460ff166004811115612fee57634e487b7160e01b600052602160045260246000fd5b1461302e5760405162461bcd60e51b815260206004820152601060248201526f2637ba3a32b93c903737ba1037b832b760811b6044820152606401610a31565b6000818152600f602052604090206002015442118061306357506000818152600f60205260409020600a810154600890910154145b6130af5760405162461bcd60e51b815260206004820152601060248201527f4c6f7474657279206e6f74206f766572000000000000000000000000000000006044820152606401610a31565b6006546000828152600f60205260409020600581019190915542600282015560098101546008909101541061319357600e546006546040516001600160a01b039092169163b37217a49161311191859190602001918252602082015260400190565b60408051808303601f1901815290829052805160209091012060e083901b6001600160e01b03191682526004820152602401600060405180830381600087803b15801561315d57600080fd5b505af1158015613171573d6000803e3d6000fd5b5050506000828152600f60205260409020805460ff19166002179055506131ad565b6000818152600f60205260409020805460ff191660041790555b807f3728e75294796694d59d2ffced9c394279baf7b9ebd2702db43f5f04bac679296006546040516131e191815260200190565b60405180910390a2506001600055565b6060600060075467ffffffffffffffff81111561321e57634e487b7160e01b600052604160045260246000fd5b60405190808252806020026020018201604052801561328c57816020015b6132796040518060a0016040528060008152602001600081526020016000815260200160006001600160a01b031681526020016000151581525090565b81526020019060019003908161323c5790505b50905060005b60075481101561333857600081815260116020908152604091829020825160a081018452815481526001820154928101929092526002810154928201929092526003909101546001600160a01b0381166060830152600160a01b900460ff1615156080820152825183908390811061331a57634e487b7160e01b600052603260045260246000fd5b6020026020010181905250808061333090614d3e565b915050613292565b50919050565b600060036000848152600f602052604090205460ff16600481111561337357634e487b7160e01b600052602160045260246000fd5b146133c05760405162461bcd60e51b815260206004820152601560248201527f4c6f7474657279206e6f7420636c61696d61626c6500000000000000000000006044820152606401610a31565b6001600160a01b0382166000908152601460209081526040808320868452909152812054815b818110156134c4576001600160a01b0385166000908152601460209081526040808320898452909152812080548390811061343157634e487b7160e01b600052603260045260246000fd5b600091825260209091206001600290920201015460ff166134a4576001600160a01b03861660009081526014602090815260408083208a8452909152902080548390811061348f57634e487b7160e01b600052603260045260246000fd5b90600052602060002090600202016000015490505b6134ae8185614cb0565b93505080806134bc90614d3e565b9150506133e6565b5090949350505050565b60008060046000858152600f602052604090205460ff16600481111561350457634e487b7160e01b600052602160045260246000fd5b146135515760405162461bcd60e51b815260206004820152601c60248201527f4c6f74746572792073746174757320213d20756e7265616c697a6564000000006044820152606401610a31565b6001600160a01b038316600090815260126020908152604080832087845290915281205481805b8281101561366a576001600160a01b03871660009081526012602090815260408083208b845290915281208054829190849081106135c657634e487b7160e01b600052603260045260246000fd5b6000918252602080832090910154808352601090915260409091205490915064010000000090046001600160a01b03908116908a161480156136225750600081815260106020526040902054600160c01b900460ff1615156001145b156136495760008a8152600f60205260409020600301549150613646600185614cb0565b93505b6136538287614cb0565b95505050808061366290614d3e565b915050613578565b5096919550909350505050565b6001546001600160a01b031633146136d15760405162461bcd60e51b815260206004820181905260248201527f4f776e61626c653a2063616c6c6572206973206e6f7420746865206f776e65726044820152606401610a31565b60088190556040518181527f0d59fc83267077d7e0b46ee64cd642d8cb73090ddbf47cc8c7e74a1be74a541c9060200160405180910390a150565b6001546001600160a01b031633146137665760405162461bcd60e51b815260206004820181905260248201527f4f776e61626c653a2063616c6c6572206973206e6f7420746865206f776e65726044820152606401610a31565b6001600160a01b0383166137bc5760405162461bcd60e51b815260206004820152601660248201527f43616e6e6f74206265207a65726f2061646472657373000000000000000000006044820152606401610a31565b6001600160a01b0382166138125760405162461bcd60e51b815260206004820152601660248201527f43616e6e6f74206265207a65726f2061646472657373000000000000000000006044820152606401610a31565b6001600160a01b0381166138685760405162461bcd60e51b815260206004820152601660248201527f43616e6e6f74206265207a65726f2061646472657373000000000000000000006044820152606401610a31565b600380546001600160a01b0385811673ffffffffffffffffffffffffffffffffffffffff19928316811790935560048054868316908416811790915560028054928616929093168217909255604080519384526020840192909252908201527f3e945b7660001d46cfd5e729545f7f0b6c65bdee54066a91c7acad703f1b731e9060600160405180910390a1505050565b333b1561393f5760405162461bcd60e51b815260206004820152601460248201527310dbdb9d1c9858dd081b9bdd08185b1b1bddd95960621b6044820152606401610a31565b33321461398e5760405162461bcd60e51b815260206004820152601a60248201527f50726f787920636f6e7472616374206e6f7420616c6c6f7765640000000000006044820152606401610a31565b600260005414156139e15760405162461bcd60e51b815260206004820152601f60248201527f5265656e7472616e637947756172643a207265656e7472616e742063616c6c006044820152606401610a31565b600260005580613a335760405162461bcd60e51b815260206004820152601160248201527f4c656e677468206d757374206265203e300000000000000000000000000000006044820152606401610a31565b600954811115613a785760405162461bcd60e51b815260206004820152601060248201526f546f6f206d616e79207469636b65747360801b6044820152606401610a31565b60036000848152600f602052604090205460ff166004811115613aab57634e487b7160e01b600052602160045260246000fd5b14613af85760405162461bcd60e51b815260206004820152601560248201527f4c6f7474657279206e6f7420636c61696d61626c6500000000000000000000006044820152606401610a31565b6000838152600f60205260408120600d810154600b90910154825b84811015613c9e576000868683818110613b3d57634e487b7160e01b600052603260045260246000fd5b9050602002013590506000805b84811015613c7c5760116000613b608389614cb0565b81526020019081526020016000206001015483148015613ba9575060116000613b898389614cb0565b81526020810191909152604001600020600301546001600160a01b031633145b8015613bd3575060116000613bbe8389614cb0565b8152602001908152602001600020600001548a145b8015613c08575060116000613be88389614cb0565b8152602081019190915260400160002060030154600160a01b900460ff16155b15613c6a5760116000613c1b8389614cb0565b81526020019081526020016000206002015491506001601160008389613c419190614cb0565b815260200190815260200160002060030160146101000a81548160ff0219169083151502179055505b80613c7481614d3e565b915050613b4a565b50613c878187614cb0565b955050508080613c9690614d3e565b915050613b13565b5082613cec5760405162461bcd60e51b815260206004820152601960248201527f4e6f207072697a6520666f722074686973206c6f7474657279000000000000006044820152606401610a31565b600d54613d03906001600160a01b03163385613f98565b6040805184815260208101869052879133917f0f5fca62da8fb5d95525b49e5eaa7b20bc6bd9e2f6b64b493442d1c0bd6ef486910160405180910390a35050600160005550505050565b6001546001600160a01b03163314613da75760405162461bcd60e51b815260206004820181905260248201527f4f776e61626c653a2063616c6c6572206973206e6f7420746865206f776e65726044820152606401610a31565b80821115613df75760405162461bcd60e51b815260206004820152601b60248201527f6d696e5072696365206d757374206265203c206d6178507269636500000000006044820152606401610a31565b600b91909155600a55565b6001546001600160a01b03163314613e5c5760405162461bcd60e51b815260206004820181905260248201527f4f776e61626c653a2063616c6c6572206973206e6f7420746865206f776e65726044820152606401610a31565b6001600160a01b038116613ed85760405162461bcd60e51b815260206004820152602660248201527f4f776e61626c653a206e6577206f776e657220697320746865207a65726f206160448201527f64647265737300000000000000000000000000000000000000000000000000006064820152608401610a31565b613ee181614311565b50565b600061271084613ef48486614cdc565b613efe9190614cdc565b613f089190614cc8565b90505b9392505050565b6040516001600160a01b0380851660248301528316604482015260648101829052613f929085906323b872dd60e01b906084015b60408051601f198184030181529190526020810180517bffffffffffffffffffffffffffffffffffffffffffffffffffffffff166001600160e01b031990931692909217909152614370565b50505050565b6040516001600160a01b038316602482015260448101829052613fc890849063a9059cbb60e01b90606401613f46565b505050565b6000818152600f602052604081206004810154600590910154606092613ff38383614cfb565b905060008167ffffffffffffffff81111561401e57634e487b7160e01b600052604160045260246000fd5b604051908082528060200260200182016040528015614047578160200160208202803683370190505b5090506000845b848110156140a2578083838151811061407757634e487b7160e01b600052603260045260246000fd5b60209081029190910101528161408c81614d3e565b925050808061409a90614d3e565b91505061404e565b50909695505050505050565b606060005b82518110156141eb5760005b84518110156141d85760008186516140d79190614cfb565b856000815181106140f857634e487b7160e01b600052603260045260246000fd5b602002602001015161410a9190614d59565b6141149083614cb0565b9050600086828151811061413857634e487b7160e01b600052603260045260246000fd5b6020026020010151905086838151811061416257634e487b7160e01b600052603260045260246000fd5b602002602001015187838151811061418a57634e487b7160e01b600052603260045260246000fd5b602002602001018181525050808784815181106141b757634e487b7160e01b600052603260045260246000fd5b602002602001018181525050505080806141d090614d3e565b9150506140bf565b50806141e381614d3e565b9150506140b3565b509192915050565b6000828152600f60205260408120600d810154600b9091015482805b8281101561430757601160006142258387614cb0565b8152602001908152602001600020600101548614801561426e57506011600061424e8387614cb0565b81526020810191909152604001600020600301546001600160a01b031633145b80156142985750601160006142838387614cb0565b81526020019081526020016000206000015487145b80156142cd5750601160006142ad8387614cb0565b8152602081019190915260400160002060030154600160a01b900460ff16155b156142f557601160006142e08387614cb0565b81526020019081526020016000206002015491505b806142ff81614d3e565b91505061420f565b5095945050505050565b600180546001600160a01b0383811673ffffffffffffffffffffffffffffffffffffffff19831681179093556040519116919082907f8be0079c531659141344cd1fd0a4f28419497f9722a3daafe3b4186f6b6457e090600090a35050565b60006143c5826040518060400160405280602081526020017f5361666545524332303a206c6f772d6c6576656c2063616c6c206661696c6564815250856001600160a01b03166144559092919063ffffffff16565b805190915015613fc857808060200190518101906143e391906147e5565b613fc85760405162461bcd60e51b815260206004820152602a60248201527f5361666545524332303a204552433230206f7065726174696f6e20646964206e60448201527f6f742073756363656564000000000000000000000000000000000000000000006064820152608401610a31565b6060613f088484600085856001600160a01b0385163b6144b75760405162461bcd60e51b815260206004820152601d60248201527f416464726573733a2063616c6c20746f206e6f6e2d636f6e74726163740000006044820152606401610a31565b600080866001600160a01b031685876040516144d39190614a92565b60006040518083038185875af1925050503d8060008114614510576040519150601f19603f3d011682016040523d82523d6000602084013e614515565b606091505b5091509150614525828286614530565b979650505050505050565b6060831561453f575081613f0b565b82511561454f5782518084602001fd5b8160405162461bcd60e51b8152600401610a319190614ba0565b8280548282559060005260206000209081019282156145a4579160200282015b828111156145a4578251825591602001919060010190614589565b506145b09291506145b4565b5090565b5b808211156145b057600081556001016145b5565b80356001600160a01b03811681146145e057600080fd5b919050565b60008083601f8401126145f6578081fd5b50813567ffffffffffffffff81111561460d578182fd5b6020830191508360208260051b8501011115612ccf57600080fd5b600060208284031215614639578081fd5b6125e0826145c9565b600080600060608486031215614656578182fd5b61465f846145c9565b925061466d602085016145c9565b915061467b604085016145c9565b90509250925092565b60008060408385031215614696578182fd5b61469f836145c9565b946020939093013593505050565b600080600080608085870312156146c2578081fd5b6146cb856145c9565b966020860135965060408601359560600135945092505050565b600080602083850312156146f7578182fd5b823567ffffffffffffffff81111561470d578283fd5b614719858286016145e5565b90969095509350505050565b60006020808385031215614737578182fd5b825167ffffffffffffffff8082111561474e578384fd5b818501915085601f830112614761578384fd5b81518181111561477357614773614d99565b8060051b604051601f19603f8301168101818110858211171561479857614798614d99565b604052828152858101935084860182860187018a10156147b6578788fd5b8795505b838610156147d85780518552600195909501949386019386016147ba565b5098975050505050505050565b6000602082840312156147f6578081fd5b81518015158114613f0b578182fd5b600060208284031215614816578081fd5b5035919050565b60006020828403121561482e578081fd5b5051919050565b60008060408385031215614847578182fd5b82359150614857602084016145c9565b90509250929050565b600080600060408486031215614874578283fd5b83359250602084013567ffffffffffffffff811115614891578283fd5b61489d868287016145e5565b9497909650939450505050565b600080600080606085870312156148bf578384fd5b84359350602085013567ffffffffffffffff8111156148dc578384fd5b6148e8878288016145e5565b90945092506148fb9050604086016145c9565b905092959194509250565b60008060408385031215614918578182fd5b50508035926020909101359150565b600080600080600080600060c0888a031215614941578485fd5b87359650602088013595506040880135945060608801359350608088013567ffffffffffffffff811115614973578384fd5b61497f8a828b016145e5565b989b979a5095989497959660a090950135949350505050565b6000602082840312156149a9578081fd5b8135613f0b81614daf565b6000602082840312156149c5578081fd5b8151613f0b81614daf565b6000815180845260208085019450808401835b83811015614a015781511515875295820195908201906001016149e3565b509495945050505050565b6000815180845260208085019450808401835b83811015614a0157815187529582019590820190600101614a1f565b6000815180845260208085019450808401835b83811015614a0157815163ffffffff1687529582019590820190600101614a4e565b60058110614a8e57634e487b7160e01b600052602160045260246000fd5b9052565b60008251614aa4818460208701614d12565b9190910192915050565b602080825282518282018190526000919060409081850190868401855b82811015614b1a57815180518552868101518786015285810151868601526060808201516001600160a01b03169086015260809081015115159085015260a09093019290850190600101614acb565b5091979650505050505050565b608081526000614b3a6080830187614a0c565b8281036020840152614b4c8187614a3b565b90508281036040840152614b6081866149d0565b91505082606083015295945050505050565b604081526000614b856040830185614a3b565b8281036020840152614b9781856149d0565b95945050505050565b6020815260008251806020840152614bbf816040850160208701614d12565b601f01601f19169190910160400192915050565b60208152614be5602082018351614a70565b602082015160408201526040820151606082015260608201516080820152608082015160a082015260a082015160c082015260c082015160e0820152600060e0830151610100614c3c8185018363ffffffff169052565b8401516101208481019190915284015161014080850191909152840151610160808501919091528401516101e061018080860182905291925090614c84610200860184614a0c565b908601516101a0868101919091528601516101c080870191909152909501519301929092525090919050565b60008219821115614cc357614cc3614d6d565b500190565b600082614cd757614cd7614d83565b500490565b6000816000190483118215151615614cf657614cf6614d6d565b500290565b600082821015614d0d57614d0d614d6d565b500390565b60005b83811015614d2d578181015183820152602001614d15565b83811115613f925750506000910152565b6000600019821415614d5257614d52614d6d565b5060010190565b600082614d6857614d68614d83565b500690565b634e487b7160e01b600052601160045260246000fd5b634e487b7160e01b600052601260045260246000fd5b634e487b7160e01b600052604160045260246000fd5b63ffffffff81168114613ee157600080fdfea164736f6c6343000804000a",
  "linkReferences": {},
  "deployedLinkReferences": {}
}