{
  "_format": "hh-sol-artifact-1",
  "contractName": "RandomNumberGenerator",
  "sourceName": "contracts/RandomNumberGenerator.sol",
  "abi": [
    {
      "inputs": [
        {
          "internalType": "address",
          "name": "_vrfCoordinator",
          "type": "address"
        },
        {
          "internalType": "address",
          "name": "_linkToken",
          "type": "address"
        }
      ],
      "stateMutability": "nonpayable",
      "type": "constructor"
    },
    {
      "anonymous": false,
      "inputs": [
        {
          "indexed": true,
          "internalType": "address",
          "name": "previousOwner",
          "type": "address"
        },
        {
          "indexed": true,
          "internalType": "address",
          "name": "newOwner",
          "type": "address"
        }
      ],
      "name": "OwnershipTransferred",
      "type": "event"
    },
    {
      "inputs": [
        {
          "internalType": "uint256",
          "name": "randomValue",
          "type": "uint256"
        },
        {
          "internalType": "uint256",
          "name": "n",
          "type": "uint256"
        }
      ],
      "name": "expand",
      "outputs": [
        {
          "internalType": "uint256[]",
          "name": "expandedValues",
          "type": "uint256[]"
        }
      ],
      "stateMutability": "pure",
      "type": "function"
    },
    {
      "inputs": [],
      "name": "fee",
      "outputs": [
        {
          "internalType": "uint256",
          "name": "",
          "type": "uint256"
        }
      ],
      "stateMutability": "view",
      "type": "function"
    },
    {
      "inputs": [
        {
          "internalType": "uint256",
          "name": "_seed",
          "type": "uint256"
        }
      ],
      "name": "getRandomNumber",
      "outputs": [],
      "stateMutability": "nonpayable",
      "type": "function"
    },
    {
      "inputs": [],
      "name": "keyHash",
      "outputs": [
        {
          "internalType": "bytes32",
          "name": "",
          "type": "bytes32"
        }
      ],
      "stateMutability": "view",
      "type": "function"
    },
    {
      "inputs": [],
      "name": "latestLotteryId",
      "outputs": [
        {
          "internalType": "uint256",
          "name": "",
          "type": "uint256"
        }
      ],
      "stateMutability": "view",
      "type": "function"
    },
    {
      "inputs": [],
      "name": "latestRequestId",
      "outputs": [
        {
          "internalType": "bytes32",
          "name": "",
          "type": "bytes32"
        }
      ],
      "stateMutability": "view",
      "type": "function"
    },
    {
      "inputs": [],
      "name": "owner",
      "outputs": [
        {
          "internalType": "address",
          "name": "",
          "type": "address"
        }
      ],
      "stateMutability": "view",
      "type": "function"
    },
    {
      "inputs": [],
      "name": "randomResult",
      "outputs": [
        {
          "internalType": "uint32",
          "name": "",
          "type": "uint32"
        }
      ],
      "stateMutability": "view",
      "type": "function"
    },
    {
      "inputs": [
        {
          "internalType": "bytes32",
          "name": "requestId",
          "type": "bytes32"
        },
        {
          "internalType": "uint256",
          "name": "randomness",
          "type": "uint256"
        }
      ],
      "name": "rawFulfillRandomness",
      "outputs": [],
      "stateMutability": "nonpayable",
      "type": "function"
    },
    {
      "inputs": [],
      "name": "renounceOwnership",
      "outputs": [],
      "stateMutability": "nonpayable",
      "type": "function"
    },
    {
      "inputs": [
        {
          "internalType": "uint256",
          "name": "_fee",
          "type": "uint256"
        }
      ],
      "name": "setFee",
      "outputs": [],
      "stateMutability": "nonpayable",
      "type": "function"
    },
    {
      "inputs": [
        {
          "internalType": "bytes32",
          "name": "_keyHash",
          "type": "bytes32"
        }
      ],
      "name": "setKeyHash",
      "outputs": [],
      "stateMutability": "nonpayable",
      "type": "function"
    },
    {
      "inputs": [
        {
          "internalType": "address",
          "name": "_wincketLottery",
          "type": "address"
        }
      ],
      "name": "setLotteryAddress",
      "outputs": [],
      "stateMutability": "nonpayable",
      "type": "function"
    },
    {
      "inputs": [
        {
          "internalType": "address",
          "name": "newOwner",
          "type": "address"
        }
      ],
      "name": "transferOwnership",
      "outputs": [],
      "stateMutability": "nonpayable",
      "type": "function"
    },
    {
      "inputs": [],
      "name": "viewLatestLotteryId",
      "outputs": [
        {
          "internalType": "uint256",
          "name": "",
          "type": "uint256"
        }
      ],
      "stateMutability": "view",
      "type": "function"
    },
    {
      "inputs": [],
      "name": "viewRandomResult",
      "outputs": [
        {
          "internalType": "uint32",
          "name": "",
          "type": "uint32"
        }
      ],
      "stateMutability": "view",
      "type": "function"
    },
    {
      "inputs": [],
      "name": "wincketLottery",
      "outputs": [
        {
          "internalType": "address",
          "name": "",
          "type": "address"
        }
      ],
      "stateMutability": "view",
      "type": "function"
    },
    {
      "inputs": [
        {
          "internalType": "address",
          "name": "_tokenAddress",
          "type": "address"
        },
        {
          "internalType": "uint256",
          "name": "_tokenAmount",
          "type": "uint256"
        }
      ],
      "name": "withdrawTokens",
      "outputs": [],
      "stateMutability": "nonpayable",
      "type": "function"
    }
  ],
  "bytecode": "0x60c060405234801561001057600080fd5b506040516111f23803806111f283398101604081905261002f916100cd565b6001600160601b0319606083811b821660a05282901b166080526100586100533390565b61005f565b50506100ff565b600180546001600160a01b038381166001600160a01b0319831681179093556040519116919082907f8be0079c531659141344cd1fd0a4f28419497f9722a3daafe3b4186f6b6457e090600090a35050565b80516001600160a01b03811681146100c857600080fd5b919050565b600080604083850312156100df578182fd5b6100e8836100b1565b91506100f6602084016100b1565b90509250929050565b60805160601c60a05160601c6110ba610138600039600081816105390152610aa00152600081816106d00152610a7101526110ba6000f3fe608060405234801561001057600080fd5b50600436106101365760003560e01c80638da5cb5b116100b2578063b37217a411610081578063eed8e1ee11610066578063eed8e1ee14610274578063f2fde38b1461027d578063fbe5d9171461029057600080fd5b8063b37217a414610258578063ddca3f431461026b57600080fd5b80638da5cb5b1461021357806394985ddd146102245780639854471014610237578063a1c4f55a1461024a57600080fd5b806342619f661161010957806369fe0e2d116100ee57806369fe0e2d146101d8578063715018a6146101eb578063874b3afc146101f357600080fd5b806342619f66146101aa57806361728f39146101cf57600080fd5b806306b091f91461013b5780631334165d146101505780631aa46f59146101805780632a332b2a14610197575b600080fd5b61014e610149366004610eaa565b610298565b005b600254610163906001600160a01b031681565b6040516001600160a01b0390911681526020015b60405180910390f35b61018960045481565b604051908152602001610177565b61014e6101a5366004610e90565b61030f565b6005546101ba9063ffffffff1681565b60405163ffffffff9091168152602001610177565b61018960035481565b61014e6101e6366004610ef3565b610398565b61014e6103f7565b610206610201366004610f0b565b61045d565b6040516101779190610fbd565b6001546001600160a01b0316610163565b61014e610232366004610f0b565b61052e565b61014e610245366004610ef3565b6105b0565b60055463ffffffff166101ba565b61014e610266366004610ef3565b61060f565b61018960065481565b61018960075481565b61014e61028b366004610e90565b6107b5565b600754610189565b6001546001600160a01b031633146102f75760405162461bcd60e51b815260206004820181905260248201527f4f776e61626c653a2063616c6c6572206973206e6f7420746865206f776e657260448201526064015b60405180910390fd5b61030b6001600160a01b0383163383610897565b5050565b6001546001600160a01b031633146103695760405162461bcd60e51b815260206004820181905260248201527f4f776e61626c653a2063616c6c6572206973206e6f7420746865206f776e657260448201526064016102ee565b6002805473ffffffffffffffffffffffffffffffffffffffff19166001600160a01b0392909216919091179055565b6001546001600160a01b031633146103f25760405162461bcd60e51b815260206004820181905260248201527f4f776e61626c653a2063616c6c6572206973206e6f7420746865206f776e657260448201526064016102ee565b600655565b6001546001600160a01b031633146104515760405162461bcd60e51b815260206004820181905260248201527f4f776e61626c653a2063616c6c6572206973206e6f7420746865206f776e657260448201526064016102ee565b61045b6000610903565b565b60608167ffffffffffffffff81111561048657634e487b7160e01b600052604160045260246000fd5b6040519080825280602002602001820160405280156104af578160200160208202803683370190505b50905060005b828110156105275760408051602081018690529081018290526060016040516020818303038152906040528051906020012060001c82828151811061050a57634e487b7160e01b600052603260045260246000fd5b60209081029190910101528061051f8161105c565b9150506104b5565b5092915050565b336001600160a01b037f000000000000000000000000000000000000000000000000000000000000000016146105a65760405162461bcd60e51b815260206004820152601f60248201527f4f6e6c7920565246436f6f7264696e61746f722063616e2066756c66696c6c0060448201526064016102ee565b61030b8282610962565b6001546001600160a01b0316331461060a5760405162461bcd60e51b815260206004820181905260248201527f4f776e61626c653a2063616c6c6572206973206e6f7420746865206f776e657260448201526064016102ee565b600355565b6002546001600160a01b031633146106695760405162461bcd60e51b815260206004820152601460248201527f4f6e6c792057696e636b6574204c6f747465727900000000000000000000000060448201526064016102ee565b6003546106b85760405162461bcd60e51b815260206004820152601860248201527f4d75737420686176652076616c6964206b65792068617368000000000000000060448201526064016102ee565b6006546040516370a0823160e01b81523060048201527f00000000000000000000000000000000000000000000000000000000000000006001600160a01b0316906370a082319060240160206040518083038186803b15801561071a57600080fd5b505afa15801561072e573d6000803e3d6000fd5b505050506040513d601f19601f820116820180604052508101906107529190610f2c565b10156107a05760405162461bcd60e51b815260206004820152601660248201527f4e6f7420656e6f756768204c494e4b20746f6b656e730000000000000000000060448201526064016102ee565b6107af60035460065483610a6d565b60045550565b6001546001600160a01b0316331461080f5760405162461bcd60e51b815260206004820181905260248201527f4f776e61626c653a2063616c6c6572206973206e6f7420746865206f776e657260448201526064016102ee565b6001600160a01b03811661088b5760405162461bcd60e51b815260206004820152602660248201527f4f776e61626c653a206e6577206f776e657220697320746865207a65726f206160448201527f646472657373000000000000000000000000000000000000000000000000000060648201526084016102ee565b61089481610903565b50565b604080516001600160a01b038416602482015260448082018490528251808303909101815260649091019091526020810180517bffffffffffffffffffffffffffffffffffffffffffffffffffffffff1663a9059cbb60e01b1790526108fe908490610bf7565b505050565b600180546001600160a01b0383811673ffffffffffffffffffffffffffffffffffffffff19831681179093556040519116919082907f8be0079c531659141344cd1fd0a4f28419497f9722a3daafe3b4186f6b6457e090600090a35050565b81600454146109b35760405162461bcd60e51b815260206004820152600f60248201527f57726f6e6720726571756573744964000000000000000000000000000000000060448201526064016102ee565b6109c0620f424082611077565b6109cd90620f4240611014565b6005805463ffffffff191663ffffffff9290921691909117905560025460408051630405030b60e51b815290516001600160a01b03909216916380a06160916004808201926020929091908290030181600087803b158015610a2e57600080fd5b505af1158015610a42573d6000803e3d6000fd5b505050506040513d601f19601f82011682018060405250810190610a669190610f2c565b6007555050565b60007f00000000000000000000000000000000000000000000000000000000000000006001600160a01b0316634000aea07f0000000000000000000000000000000000000000000000000000000000000000858786604051602001610adc929190918252602082015260400190565b6040516020818303038152906040526040518463ffffffff1660e01b8152600401610b0993929190610f8c565b602060405180830381600087803b158015610b2357600080fd5b505af1158015610b37573d6000803e3d6000fd5b505050506040513d601f19601f82011682018060405250810190610b5b9190610ed3565b5060008481526020818152604080832054815180840189905280830187905230606082015260808082018390528351808303909101815260a090910190925281519183019190912087845292909152610bb5906001611014565b600086815260208181526040918290209290925580518083018890528082019390935280518084038201815260609093019052815191012090505b9392505050565b6000610c4c826040518060400160405280602081526020017f5361666545524332303a206c6f772d6c6576656c2063616c6c206661696c6564815250856001600160a01b0316610cdc9092919063ffffffff16565b8051909150156108fe5780806020019051810190610c6a9190610ed3565b6108fe5760405162461bcd60e51b815260206004820152602a60248201527f5361666545524332303a204552433230206f7065726174696f6e20646964206e60448201527f6f7420737563636565640000000000000000000000000000000000000000000060648201526084016102ee565b6060610ceb8484600085610cf3565b949350505050565b606082471015610d6b5760405162461bcd60e51b815260206004820152602660248201527f416464726573733a20696e73756666696369656e742062616c616e636520666f60448201527f722063616c6c000000000000000000000000000000000000000000000000000060648201526084016102ee565b6001600160a01b0385163b610dc25760405162461bcd60e51b815260206004820152601d60248201527f416464726573733a2063616c6c20746f206e6f6e2d636f6e747261637400000060448201526064016102ee565b600080866001600160a01b03168587604051610dde9190610f70565b60006040518083038185875af1925050503d8060008114610e1b576040519150601f19603f3d011682016040523d82523d6000602084013e610e20565b606091505b5091509150610e30828286610e3b565b979650505050505050565b60608315610e4a575081610bf0565b825115610e5a5782518084602001fd5b8160405162461bcd60e51b81526004016102ee9190611001565b80356001600160a01b0381168114610e8b57600080fd5b919050565b600060208284031215610ea1578081fd5b610bf082610e74565b60008060408385031215610ebc578081fd5b610ec583610e74565b946020939093013593505050565b600060208284031215610ee4578081fd5b81518015158114610bf0578182fd5b600060208284031215610f04578081fd5b5035919050565b60008060408385031215610f1d578182fd5b50508035926020909101359150565b600060208284031215610f3d578081fd5b5051919050565b60008151808452610f5c81602086016020860161102c565b601f01601f19169290920160200192915050565b60008251610f8281846020870161102c565b9190910192915050565b6001600160a01b0384168152826020820152606060408201526000610fb46060830184610f44565b95945050505050565b6020808252825182820181905260009190848201906040850190845b81811015610ff557835183529284019291840191600101610fd9565b50909695505050505050565b602081526000610bf06020830184610f44565b6000821982111561102757611027611097565b500190565b60005b8381101561104757818101518382015260200161102f565b83811115611056576000848401525b50505050565b600060001982141561107057611070611097565b5060010190565b60008261109257634e487b7160e01b81526012600452602481fd5b500690565b634e487b7160e01b600052601160045260246000fdfea164736f6c6343000804000a",
  "linkReferences": {},
  "deployedLinkReferences": {}
}