{
  "_format": "hh-sol-artifact-1",
  "contractName": "PancakeSwapLottery",
  "sourceName": "contracts/PancakeSwapLottery.sol",
  "abi": [
    {
      "inputs": [
        {
          "internalType": "address",
          "name": "_busdTokenAddress",
          "type": "address"
        },
        {
          "internalType": "address",
          "name": "_randomGeneratorAddress",
          "type": "address"
        }
      ],
      "stateMutability": "nonpayable",
      "type": "constructor"
    },
    {
      "anonymous": false,
      "inputs": [
        {
          "indexed": false,
          "internalType": "address",
          "name": "token",
          "type": "address"
        },
        {
          "indexed": false,
          "internalType": "uint256",
          "name": "amount",
          "type": "uint256"
        }
      ],
      "name": "AdminTokenRecovery",
      "type": "event"
    },
    {
      "anonymous": false,
      "inputs": [
        {
          "indexed": false,
          "internalType": "address",
          "name": "claimer",
          "type": "address"
        },
        {
          "indexed": false,
          "internalType": "uint256",
          "name": "amount",
          "type": "uint256"
        }
      ],
      "name": "DistributeRewards",
      "type": "event"
    },
    {
      "anonymous": false,
      "inputs": [
        {
          "indexed": true,
          "internalType": "uint256",
          "name": "lotteryId",
          "type": "uint256"
        },
        {
          "indexed": false,
          "internalType": "uint256",
          "name": "firstTicketIdNextLottery",
          "type": "uint256"
        }
      ],
      "name": "LotteryClose",
      "type": "event"
    },
    {
      "anonymous": false,
      "inputs": [
        {
          "indexed": true,
          "internalType": "uint256",
          "name": "lotteryId",
          "type": "uint256"
        },
        {
          "indexed": false,
          "internalType": "uint256",
          "name": "injectedAmount",
          "type": "uint256"
        }
      ],
      "name": "LotteryInjection",
      "type": "event"
    },
    {
      "anonymous": false,
      "inputs": [
        {
          "indexed": true,
          "internalType": "uint256",
          "name": "lotteryId",
          "type": "uint256"
        },
        {
          "indexed": false,
          "internalType": "uint256",
          "name": "finalNumber",
          "type": "uint256"
        },
        {
          "indexed": false,
          "internalType": "uint256",
          "name": "countWinningTickets",
          "type": "uint256"
        }
      ],
      "name": "LotteryNumberDrawn",
      "type": "event"
    },
    {
      "anonymous": false,
      "inputs": [
        {
          "indexed": true,
          "internalType": "uint256",
          "name": "lotteryId",
          "type": "uint256"
        },
        {
          "indexed": false,
          "internalType": "uint256",
          "name": "startTime",
          "type": "uint256"
        },
        {
          "indexed": false,
          "internalType": "uint256",
          "name": "endTime",
          "type": "uint256"
        },
        {
          "indexed": false,
          "internalType": "uint256",
          "name": "priceTicketInBusd",
          "type": "uint256"
        },
        {
          "indexed": false,
          "internalType": "uint256",
          "name": "firstTicketId",
          "type": "uint256"
        },
        {
          "indexed": false,
          "internalType": "uint256",
          "name": "injectedAmount",
          "type": "uint256"
        }
      ],
      "name": "LotteryOpen",
      "type": "event"
    },
    {
      "anonymous": false,
      "inputs": [
        {
          "indexed": false,
          "internalType": "address",
          "name": "operator",
          "type": "address"
        },
        {
          "indexed": false,
          "internalType": "address",
          "name": "treasury",
          "type": "address"
        },
        {
          "indexed": false,
          "internalType": "address",
          "name": "injector",
          "type": "address"
        }
      ],
      "name": "NewOperatorAndTreasuryAndInjectorAddresses",
      "type": "event"
    },
    {
      "anonymous": false,
      "inputs": [
        {
          "indexed": true,
          "internalType": "address",
          "name": "randomGenerator",
          "type": "address"
        }
      ],
      "name": "NewRandomGenerator",
      "type": "event"
    },
    {
      "anonymous": false,
      "inputs": [
        {
          "indexed": true,
          "internalType": "address",
          "name": "previousOwner",
          "type": "address"
        },
        {
          "indexed": true,
          "internalType": "address",
          "name": "newOwner",
          "type": "address"
        }
      ],
      "name": "OwnershipTransferred",
      "type": "event"
    },
    {
      "anonymous": false,
      "inputs": [
        {
          "indexed": false,
          "internalType": "address",
          "name": "owner",
          "type": "address"
        },
        {
          "indexed": false,
          "internalType": "uint256",
          "name": "amount",
          "type": "uint256"
        }
      ],
      "name": "ReturnFunds",
      "type": "event"
    },
    {
      "anonymous": false,
      "inputs": [
        {
          "indexed": true,
          "internalType": "address",
          "name": "claimer",
          "type": "address"
        },
        {
          "indexed": false,
          "internalType": "uint256",
          "name": "amount",
          "type": "uint256"
        },
        {
          "indexed": true,
          "internalType": "uint256",
          "name": "lotteryId",
          "type": "uint256"
        },
        {
          "indexed": false,
          "internalType": "uint256",
          "name": "numberTickets",
          "type": "uint256"
        }
      ],
      "name": "TicketsClaim",
      "type": "event"
    },
    {
      "anonymous": false,
      "inputs": [
        {
          "indexed": true,
          "internalType": "address",
          "name": "buyer",
          "type": "address"
        },
        {
          "indexed": true,
          "internalType": "uint256",
          "name": "lotteryId",
          "type": "uint256"
        },
        {
          "indexed": false,
          "internalType": "uint256",
          "name": "numberTickets",
          "type": "uint256"
        }
      ],
      "name": "TicketsPurchase",
      "type": "event"
    },
    {
      "inputs": [],
      "name": "MAX_LENGTH_LOTTERY",
      "outputs": [
        {
          "internalType": "uint256",
          "name": "",
          "type": "uint256"
        }
      ],
      "stateMutability": "view",
      "type": "function"
    },
    {
      "inputs": [],
      "name": "MAX_REFERRAL_FEE",
      "outputs": [
        {
          "internalType": "uint256",
          "name": "",
          "type": "uint256"
        }
      ],
      "stateMutability": "view",
      "type": "function"
    },
    {
      "inputs": [],
      "name": "MIN_LENGTH_LOTTERY",
      "outputs": [
        {
          "internalType": "uint256",
          "name": "",
          "type": "uint256"
        }
      ],
      "stateMutability": "view",
      "type": "function"
    },
    {
      "inputs": [
        {
          "internalType": "uint256",
          "name": "",
          "type": "uint256"
        }
      ],
      "name": "_winners",
      "outputs": [
        {
          "internalType": "uint256",
          "name": "lotteryId",
          "type": "uint256"
        },
        {
          "internalType": "uint256",
          "name": "ticket",
          "type": "uint256"
        },
        {
          "internalType": "uint256",
          "name": "prize",
          "type": "uint256"
        },
        {
          "internalType": "address",
          "name": "owner",
          "type": "address"
        },
        {
          "internalType": "bool",
          "name": "claimed",
          "type": "bool"
        }
      ],
      "stateMutability": "view",
      "type": "function"
    },
    {
      "inputs": [],
      "name": "busdToken",
      "outputs": [
        {
          "internalType": "contract IERC20",
          "name": "",
          "type": "address"
        }
      ],
      "stateMutability": "view",
      "type": "function"
    },
    {
      "inputs": [
        {
          "internalType": "uint256",
          "name": "_lotteryId",
          "type": "uint256"
        },
        {
          "internalType": "uint32[]",
          "name": "_ticketNumbers",
          "type": "uint32[]"
        },
        {
          "internalType": "address",
          "name": "_referral",
          "type": "address"
        }
      ],
      "name": "buyTickets",
      "outputs": [],
      "stateMutability": "nonpayable",
      "type": "function"
    },
    {
      "inputs": [
        {
          "internalType": "address",
          "name": "_randomGeneratorAddress",
          "type": "address"
        }
      ],
      "name": "changeRandomGenerator",
      "outputs": [],
      "stateMutability": "nonpayable",
      "type": "function"
    },
    {
      "inputs": [
        {
          "internalType": "uint256",
          "name": "_lotteryId",
          "type": "uint256"
        },
        {
          "internalType": "uint256[]",
          "name": "_ticketNumbers",
          "type": "uint256[]"
        }
      ],
      "name": "claimTickets",
      "outputs": [],
      "stateMutability": "nonpayable",
      "type": "function"
    },
    {
      "inputs": [
        {
          "internalType": "uint256",
          "name": "_lotteryId",
          "type": "uint256"
        }
      ],
      "name": "closeLottery",
      "outputs": [],
      "stateMutability": "nonpayable",
      "type": "function"
    },
    {
      "inputs": [],
      "name": "currentLotteryId",
      "outputs": [
        {
          "internalType": "uint256",
          "name": "",
          "type": "uint256"
        }
      ],
      "stateMutability": "view",
      "type": "function"
    },
    {
      "inputs": [],
      "name": "currentRewardId",
      "outputs": [
        {
          "internalType": "uint256",
          "name": "",
          "type": "uint256"
        }
      ],
      "stateMutability": "view",
      "type": "function"
    },
    {
      "inputs": [],
      "name": "currentTicketId",
      "outputs": [
        {
          "internalType": "uint256",
          "name": "",
          "type": "uint256"
        }
      ],
      "stateMutability": "view",
      "type": "function"
    },
    {
      "inputs": [],
      "name": "currentWinnerId",
      "outputs": [
        {
          "internalType": "uint256",
          "name": "",
          "type": "uint256"
        }
      ],
      "stateMutability": "view",
      "type": "function"
    },
    {
      "inputs": [
        {
          "internalType": "uint256",
          "name": "_lotteryId",
          "type": "uint256"
        }
      ],
      "name": "distributeReferralRewards",
      "outputs": [],
      "stateMutability": "nonpayable",
      "type": "function"
    },
    {
      "inputs": [
        {
          "internalType": "uint256",
          "name": "_lotteryId",
          "type": "uint256"
        }
      ],
      "name": "drawAndMakeLotteryClaimable",
      "outputs": [],
      "stateMutability": "nonpayable",
      "type": "function"
    },
    {
      "inputs": [],
      "name": "getWinningTickets",
      "outputs": [
        {
          "components": [
            {
              "internalType": "uint256",
              "name": "lotteryId",
              "type": "uint256"
            },
            {
              "internalType": "uint256",
              "name": "ticket",
              "type": "uint256"
            },
            {
              "internalType": "uint256",
              "name": "prize",
              "type": "uint256"
            },
            {
              "internalType": "address",
              "name": "owner",
              "type": "address"
            },
            {
              "internalType": "bool",
              "name": "claimed",
              "type": "bool"
            }
          ],
          "internalType": "struct PancakeSwapLottery.Winners[]",
          "name": "",
          "type": "tuple[]"
        }
      ],
      "stateMutability": "view",
      "type": "function"
    },
    {
      "inputs": [
        {
          "internalType": "uint256",
          "name": "_lotteryId",
          "type": "uint256"
        }
      ],
      "name": "hasAmountToWithdraw",
      "outputs": [
        {
          "internalType": "bool",
          "name": "",
          "type": "bool"
        }
      ],
      "stateMutability": "view",
      "type": "function"
    },
    {
      "inputs": [
        {
          "internalType": "uint256",
          "name": "_lotteryId",
          "type": "uint256"
        }
      ],
      "name": "hasReferralRewardsToClaim",
      "outputs": [
        {
          "internalType": "bool",
          "name": "",
          "type": "bool"
        }
      ],
      "stateMutability": "view",
      "type": "function"
    },
    {
      "inputs": [
        {
          "internalType": "uint256",
          "name": "_lotteryId",
          "type": "uint256"
        },
        {
          "internalType": "uint256",
          "name": "_amount",
          "type": "uint256"
        }
      ],
      "name": "injectFunds",
      "outputs": [],
      "stateMutability": "nonpayable",
      "type": "function"
    },
    {
      "inputs": [],
      "name": "injectorAddress",
      "outputs": [
        {
          "internalType": "address",
          "name": "",
          "type": "address"
        }
      ],
      "stateMutability": "view",
      "type": "function"
    },
    {
      "inputs": [],
      "name": "maxNumberTicketsPerBuyOrClaim",
      "outputs": [
        {
          "internalType": "uint256",
          "name": "",
          "type": "uint256"
        }
      ],
      "stateMutability": "view",
      "type": "function"
    },
    {
      "inputs": [],
      "name": "maxPriceTicketInBusd",
      "outputs": [
        {
          "internalType": "uint256",
          "name": "",
          "type": "uint256"
        }
      ],
      "stateMutability": "view",
      "type": "function"
    },
    {
      "inputs": [],
      "name": "minPriceTicketInBusd",
      "outputs": [
        {
          "internalType": "uint256",
          "name": "",
          "type": "uint256"
        }
      ],
      "stateMutability": "view",
      "type": "function"
    },
    {
      "inputs": [],
      "name": "operatorAddress",
      "outputs": [
        {
          "internalType": "address",
          "name": "",
          "type": "address"
        }
      ],
      "stateMutability": "view",
      "type": "function"
    },
    {
      "inputs": [],
      "name": "owner",
      "outputs": [
        {
          "internalType": "address",
          "name": "",
          "type": "address"
        }
      ],
      "stateMutability": "view",
      "type": "function"
    },
    {
      "inputs": [],
      "name": "pendingInjectionNextLottery",
      "outputs": [
        {
          "internalType": "uint256",
          "name": "",
          "type": "uint256"
        }
      ],
      "stateMutability": "view",
      "type": "function"
    },
    {
      "inputs": [],
      "name": "randomGenerator",
      "outputs": [
        {
          "internalType": "contract IRandomNumberGenerator",
          "name": "",
          "type": "address"
        }
      ],
      "stateMutability": "view",
      "type": "function"
    },
    {
      "inputs": [
        {
          "internalType": "address",
          "name": "_tokenAddress",
          "type": "address"
        },
        {
          "internalType": "uint256",
          "name": "_tokenAmount",
          "type": "uint256"
        }
      ],
      "name": "recoverWrongTokens",
      "outputs": [],
      "stateMutability": "nonpayable",
      "type": "function"
    },
    {
      "inputs": [],
      "name": "renounceOwnership",
      "outputs": [],
      "stateMutability": "nonpayable",
      "type": "function"
    },
    {
      "inputs": [
        {
          "internalType": "uint256",
          "name": "_maxNumberTicketsPerBuy",
          "type": "uint256"
        }
      ],
      "name": "setMaxNumberTicketsPerBuy",
      "outputs": [],
      "stateMutability": "nonpayable",
      "type": "function"
    },
    {
      "inputs": [
        {
          "internalType": "uint256",
          "name": "_minPriceTicketInBusd",
          "type": "uint256"
        },
        {
          "internalType": "uint256",
          "name": "_maxPriceTicketInBusd",
          "type": "uint256"
        }
      ],
      "name": "setMinAndMaxTicketPriceInBusd",
      "outputs": [],
      "stateMutability": "nonpayable",
      "type": "function"
    },
    {
      "inputs": [
        {
          "internalType": "address",
          "name": "_operatorAddress",
          "type": "address"
        },
        {
          "internalType": "address",
          "name": "_treasuryAddress",
          "type": "address"
        },
        {
          "internalType": "address",
          "name": "_injectorAddress",
          "type": "address"
        }
      ],
      "name": "setOperatorAndTreasuryAndInjectorAddresses",
      "outputs": [],
      "stateMutability": "nonpayable",
      "type": "function"
    },
    {
      "inputs": [
        {
          "internalType": "uint256",
          "name": "_endTime",
          "type": "uint256"
        },
        {
          "internalType": "uint256",
          "name": "_priceTicketInBusd",
          "type": "uint256"
        },
        {
          "internalType": "uint256",
          "name": "_minTicketsToSell",
          "type": "uint256"
        },
        {
          "internalType": "uint256",
          "name": "_maxTicketsToSell",
          "type": "uint256"
        },
        {
          "internalType": "uint256[]",
          "name": "_prizes",
          "type": "uint256[]"
        },
        {
          "internalType": "uint256",
          "name": "_referralReward",
          "type": "uint256"
        }
      ],
      "name": "startLottery",
      "outputs": [],
      "stateMutability": "nonpayable",
      "type": "function"
    },
    {
      "inputs": [
        {
          "internalType": "address",
          "name": "newOwner",
          "type": "address"
        }
      ],
      "name": "transferOwnership",
      "outputs": [],
      "stateMutability": "nonpayable",
      "type": "function"
    },
    {
      "inputs": [],
      "name": "treasuryAddress",
      "outputs": [
        {
          "internalType": "address",
          "name": "",
          "type": "address"
        }
      ],
      "stateMutability": "view",
      "type": "function"
    },
    {
      "inputs": [],
      "name": "viewCurrentLotteryId",
      "outputs": [
        {
          "internalType": "uint256",
          "name": "",
          "type": "uint256"
        }
      ],
      "stateMutability": "view",
      "type": "function"
    },
    {
      "inputs": [
        {
          "internalType": "uint256",
          "name": "_lotteryId",
          "type": "uint256"
        }
      ],
      "name": "viewLottery",
      "outputs": [
        {
          "components": [
            {
              "internalType": "enum PancakeSwapLottery.Status",
              "name": "status",
              "type": "uint8"
            },
            {
              "internalType": "uint256",
              "name": "startTime",
              "type": "uint256"
            },
            {
              "internalType": "uint256",
              "name": "endTime",
              "type": "uint256"
            },
            {
              "internalType": "uint256",
              "name": "priceTicketInBusd",
              "type": "uint256"
            },
            {
              "internalType": "uint256",
              "name": "firstTicketId",
              "type": "uint256"
            },
            {
              "internalType": "uint256",
              "name": "firstTicketIdNextLottery",
              "type": "uint256"
            },
            {
              "internalType": "uint256",
              "name": "amountCollectedInBusd",
              "type": "uint256"
            },
            {
              "internalType": "uint32",
              "name": "finalNumber",
              "type": "uint32"
            },
            {
              "internalType": "uint256",
              "name": "ticketsSold",
              "type": "uint256"
            },
            {
              "internalType": "uint256",
              "name": "minTicketsToSell",
              "type": "uint256"
            },
            {
              "internalType": "uint256",
              "name": "maxTicketsToSell",
              "type": "uint256"
            },
            {
              "internalType": "uint256[]",
              "name": "prizes",
              "type": "uint256[]"
            },
            {
              "internalType": "uint256",
              "name": "referralReward",
              "type": "uint256"
            }
          ],
          "internalType": "struct PancakeSwapLottery.Lottery",
          "name": "",
          "type": "tuple"
        }
      ],
      "stateMutability": "view",
      "type": "function"
    },
    {
      "inputs": [
        {
          "internalType": "uint256[]",
          "name": "_ticketIds",
          "type": "uint256[]"
        }
      ],
      "name": "viewNumbersAndStatusesForTicketIds",
      "outputs": [
        {
          "internalType": "uint32[]",
          "name": "",
          "type": "uint32[]"
        },
        {
          "internalType": "bool[]",
          "name": "",
          "type": "bool[]"
        }
      ],
      "stateMutability": "view",
      "type": "function"
    },
    {
      "inputs": [
        {
          "internalType": "uint256",
          "name": "_lotteryId",
          "type": "uint256"
        },
        {
          "internalType": "uint256",
          "name": "_ticketNumber",
          "type": "uint256"
        }
      ],
      "name": "viewRewardsForTicketNumber",
      "outputs": [
        {
          "internalType": "uint256",
          "name": "",
          "type": "uint256"
        }
      ],
      "stateMutability": "view",
      "type": "function"
    },
    {
      "inputs": [
        {
          "internalType": "address",
          "name": "_user",
          "type": "address"
        },
        {
          "internalType": "uint256",
          "name": "_lotteryId",
          "type": "uint256"
        },
        {
          "internalType": "uint256",
          "name": "_cursor",
          "type": "uint256"
        },
        {
          "internalType": "uint256",
          "name": "_size",
          "type": "uint256"
        }
      ],
      "name": "viewUserInfoForLotteryId",
      "outputs": [
        {
          "internalType": "uint256[]",
          "name": "",
          "type": "uint256[]"
        },
        {
          "internalType": "uint32[]",
          "name": "",
          "type": "uint32[]"
        },
        {
          "internalType": "bool[]",
          "name": "",
          "type": "bool[]"
        },
        {
          "internalType": "uint256",
          "name": "",
          "type": "uint256"
        }
      ],
      "stateMutability": "view",
      "type": "function"
    },
    {
      "inputs": [
        {
          "internalType": "uint256",
          "name": "_lotteryId",
          "type": "uint256"
        }
      ],
      "name": "withdrawFunds",
      "outputs": [],
      "stateMutability": "nonpayable",
      "type": "function"
    }
  ],
  "bytecode": "0x608060405260646009556802b5e3af16b1880000600a556611c37937e08000600b553480156200002e57600080fd5b5060405162004abe38038062004abe833981016040819052620000519162000102565b6001600055620000613362000093565b600d80546001600160a01b039384166001600160a01b031991821617909155600e805492909316911617905562000139565b600180546001600160a01b038381166001600160a01b0319831681179093556040519116919082907f8be0079c531659141344cd1fd0a4f28419497f9722a3daafe3b4186f6b6457e090600090a35050565b80516001600160a01b0381168114620000fd57600080fd5b919050565b6000806040838503121562000115578182fd5b6200012083620000e5565b91506200013060208401620000e5565b90509250929050565b61497580620001496000396000f3fe608060405234801561001057600080fd5b50600436106102d35760003560e01c80636be4097c11610186578063a4bfaddf116100e3578063dcbad90d11610097578063e8ae2edf11610071578063e8ae2edf14610593578063f2fde38b146105a6578063f6903411146105b957600080fd5b8063dcbad90d1461055a578063de0e70141461056d578063e49eb0da1461058057600080fd5b8063d9f9061a116100c8578063d9f9061a14610534578063da4ca0391461053d578063db19da0d1461055057600080fd5b8063a4bfaddf14610518578063c5f956af1461052157600080fd5b80638fc3539a1161013a5780639c3846531161011f5780639c384653146104dd5780639d8ca531146104f0578063a1f930561461050357600080fd5b80638fc3539a146104a957806398359fa1146104ca57600080fd5b8063805955a61161016b578063805955a61461047d57806380a06160146104905780638da5cb5b1461049857600080fd5b80636be4097c1461046c578063715018a61461047557600080fd5b8063203214ea116102345780633f138d4b116101e8578063542df708116101cd578063542df7081461043d578063686465b8146104505780636b8737881461045957600080fd5b80633f138d4b14610417578063471aeab41461042a57600080fd5b806328ac70101161021957806328ac7010146103e85780633a771639146103fb5780633d78a0791461040e57600080fd5b8063203214ea146103b55780632423807a146103c857600080fd5b806313d870341161028b57806316aa3c781161027057806316aa3c781461039a5780631e61079c146103a35780631fe86c6b146103ac57600080fd5b806313d8703414610364578063155dd5ee1461038757600080fd5b806307fb5a9c116102bc57806307fb5a9c14610319578063127effb21461033057806312a9769d1461035b57600080fd5b806305531eeb146102d857806307720da314610304575b600080fd5b6102eb6102e636600461429b565b610636565b6040516102fb94939291906146ea565b60405180910390f35b61031761031236600461446d565b6109ae565b005b61032261025881565b6040519081526020016102fb565b600354610343906001600160a01b031681565b6040516001600160a01b0390911681526020016102fb565b610322600c5481565b6103776103723660046143f3565b611158565b60405190151581526020016102fb565b6103176103953660046143f3565b6112cd565b61032260075481565b610322610bb881565b61032260095481565b6103176103c33660046144ea565b61161a565b6103db6103d63660046143f3565b611a4b565b6040516102fb9190614796565b6103176103f63660046143f3565b611c09565b6103776104093660046143f3565b612237565b610322600a5481565b610317610425366004614272565b6123ae565b6103176104383660046144c9565b6124c0565b61032261044b3660046144c9565b612619565b61032260065481565b6103176104673660046143f3565b6126ac565b61032260055481565b610317612758565b61031761048b3660046143f3565b6127be565b600554610322565b6001546001600160a01b0316610343565b6104bc6104b73660046142d3565b612b7d565b6040516102fb929190614735565b6103176104d8366004614216565b612d99565b600254610343906001600160a01b031681565b6103176104fe3660046143f3565b612fdd565b61050b6132ae565b6040516102fb9190614671565b61032260085481565b600454610343906001600160a01b031681565b610322600b5481565b61031761054b366004614230565b6133fb565b6103226205472c81565b600e54610343906001600160a01b031681565b600d54610343906001600160a01b031681565b61031761058e366004614423565b6135e8565b6103176105a13660046144c9565b6139d6565b6103176105b4366004614216565b613a8b565b6106036105c73660046143f3565b6011602052600090815260409020805460018201546002830154600390930154919290916001600160a01b03811690600160a01b900460ff1685565b604080519586526020860194909452928401919091526001600160a01b031660608301521515608082015260a0016102fb565b6001600160a01b03841660009081526013602090815260408083208684529091528120546060918291829190859061066e88826148a2565b8211156106825761067f88826148a2565b91505b60008267ffffffffffffffff8111156106ab57634e487b7160e01b600052604160045260246000fd5b6040519080825280602002602001820160405280156106d4578160200160208202803683370190505b50905060008367ffffffffffffffff81111561070057634e487b7160e01b600052604160045260246000fd5b604051908082528060200260200182016040528015610729578160200160208202803683370190505b50905060008467ffffffffffffffff81111561075557634e487b7160e01b600052604160045260246000fd5b60405190808252806020026020018201604052801561077e578160200160208202803683370190505b50905060005b8581101561098857601360008f6001600160a01b03166001600160a01b0316815260200190815260200160002060008e81526020019081526020016000208c826107ce9190614857565b815481106107ec57634e487b7160e01b600052603260045260246000fd5b906000526020600020015484828151811061081757634e487b7160e01b600052603260045260246000fd5b6020026020010181815250506010600085838151811061084757634e487b7160e01b600052603260045260246000fd5b6020026020010151815260200190815260200160002060000160009054906101000a900463ffffffff1683828151811061089157634e487b7160e01b600052603260045260246000fd5b602002602001019063ffffffff16908163ffffffff168152505060006001600160a01b0316601060008684815181106108da57634e487b7160e01b600052603260045260246000fd5b60209081029190910181015182528101919091526040016000205464010000000090046001600160a01b0316141561094357600182828151811061092e57634e487b7160e01b600052603260045260246000fd5b91151560209283029190910190910152610976565b600082828151811061096557634e487b7160e01b600052603260045260246000fd5b911515602092830291909101909101525b80610980816148e5565b915050610784565b50828282610996888f614857565b98509850985098505050505050945094509450949050565b333b156109f95760405162461bcd60e51b815260206004820152601460248201527310dbdb9d1c9858dd081b9bdd08185b1b1bddd95960621b60448201526064015b60405180910390fd5b333214610a485760405162461bcd60e51b815260206004820152601a60248201527f50726f787920636f6e7472616374206e6f7420616c6c6f77656400000000000060448201526064016109f0565b60026000541415610a9b5760405162461bcd60e51b815260206004820152601f60248201527f5265656e7472616e637947756172643a207265656e7472616e742063616c6c0060448201526064016109f0565b600260005581610aed5760405162461bcd60e51b815260206004820152601360248201527f4e6f207469636b6574207370656369666965640000000000000000000000000060448201526064016109f0565b600954821115610b325760405162461bcd60e51b815260206004820152601060248201526f546f6f206d616e79207469636b65747360801b60448201526064016109f0565b60016000858152600f602052604090205460ff166004811115610b6557634e487b7160e01b600052602160045260246000fd5b14610bb25760405162461bcd60e51b815260206004820152601360248201527f4c6f7474657279206973206e6f74206f70656e0000000000000000000000000060448201526064016109f0565b6000848152600f60205260409020600201544210610c125760405162461bcd60e51b815260206004820152600f60248201527f4c6f7474657279206973206f766572000000000000000000000000000000000060448201526064016109f0565b6000848152600f60205260409020600a8101546008909101541115610c8c5760405162461bcd60e51b815260206004820152602a60248201527f4d6178696d756d206e756d626572206f66206c6f7474657279207469636b65746044820152691cc8195e18d95959195960b21b60648201526084016109f0565b6000848152600f6020526040812060080154610ca89084613b6d565b6000868152600f60205260409020600a0154909150811115610d1f5760405162461bcd60e51b815260206004820152602a60248201527f4d6178696d756d206e756d626572206f66206c6f7474657279207469636b65746044820152691cc8195e18d95959195960b21b60648201526084016109f0565b6000858152600f6020526040812060030154610d3b9085613b79565b6000878152600f60205260408120600c8101546003909101549293509091610d64919087613b85565b600d54909150610d7f906001600160a01b0316333085613ba5565b336001600160a01b03851614610df4576001600160a01b03841660009081526015602090815260408083208a845282528083208151808301909252848252818301848152815460018082018455928652939094209151600290930290910191825591519101805460ff19169115159190911790555b6000878152600f602052604081206006018054849290610e15908490614857565b90915550600090505b85811015611112576000878783818110610e4857634e487b7160e01b600052603260045260246000fd5b9050602002016020810190610e5d919061455b565b9050620f42408163ffffffff1610158015610e815750621e847f8163ffffffff1611155b610ecd5760405162461bcd60e51b815260206004820152600d60248201527f4f7574736964652072616e67650000000000000000000000000000000000000060448201526064016109f0565b600089815260146020908152604080832063ffffffff8516845290915290205460ff1615610f635760405162461bcd60e51b815260206004820152603c60248201527f5469636b657420616c726561647920736f6c642c2063686f6f736520616e6f7460448201527f686572206e756d62657220616e642074727920697420616761696e2e0000000060648201526084016109f0565b6001601460008b815260200190815260200160002060008363ffffffff16815260200190815260200160002060006101000a81548160ff02191690831515021790555060136000336001600160a01b03166001600160a01b0316815260200190815260200160002060008a8152602001908152602001600020600654908060018154018082558091505060019003906000526020600020016000909190919091505560405180606001604052808263ffffffff168152602001336001600160a01b031681526020016001151581525060106000600654815260200190815260200160002060008201518160000160006101000a81548163ffffffff021916908363ffffffff16021790555060208201518160000160046101000a8154816001600160a01b0302191690836001600160a01b0316021790555060408201518160000160186101000a81548160ff021916908315150217905550905050600660008154809291906110d1906148e5565b90915550506000898152600f602052604081206008018054600192906110f8908490614857565b9091555082915061110a9050816148e5565b915050610e1e565b50604051858152879033907fd7d247b583de1023852eef87b48f54354dbec771d01bc2cc49e96094efc322b99060200160405180910390a3505060016000555050505050565b600060036000838152600f602052604090205460ff16600481111561118d57634e487b7160e01b600052602160045260246000fd5b146111da5760405162461bcd60e51b815260206004820152601560248201527f4c6f7474657279206e6f7420636c61696d61626c65000000000000000000000060448201526064016109f0565b336000908152601560209081526040808320858452909152812054815b818110156112c357336000908152601560209081526040808320888452909152812080548390811061123957634e487b7160e01b600052603260045260246000fd5b600091825260209091206001600290920201015460ff166112a357336000908152601560209081526040808320898452909152902080548390811061128e57634e487b7160e01b600052603260045260246000fd5b90600052602060002090600202016000015490505b6112ad8185614857565b93505080806112bb906148e5565b9150506111f7565b5050151592915050565b333b156113135760405162461bcd60e51b815260206004820152601460248201527310dbdb9d1c9858dd081b9bdd08185b1b1bddd95960621b60448201526064016109f0565b3332146113625760405162461bcd60e51b815260206004820152601a60248201527f50726f787920636f6e7472616374206e6f7420616c6c6f77656400000000000060448201526064016109f0565b600260005414156113b55760405162461bcd60e51b815260206004820152601f60248201527f5265656e7472616e637947756172643a207265656e7472616e742063616c6c0060448201526064016109f0565b600260005560046000828152600f602052604090205460ff1660048111156113ed57634e487b7160e01b600052602160045260246000fd5b1461143a5760405162461bcd60e51b815260206004820152601460248201527f4c6f747465727920697320636c61696d61626c6500000000000000000000000060448201526064016109f0565b336000908152601360209081526040808320848452909152812054815b8181101561156257336000908152601360209081526040808320878452909152812080548291908490811061149c57634e487b7160e01b600052603260045260246000fd5b6000918252602080832090910154808352601090915260409091205490915064010000000090046001600160a01b0316331480156114f45750600081815260106020526040902054600160c01b900460ff1615156001145b1561154157600081815260106020908152604080832080547fffffffffffffff00ffffffffffffffffffffffffffffffffffffffffffffffff169055888352600f90915290206003015491505b61154b8286614857565b94505050808061155a906148e5565b915050611457565b50600082116115bf5760405162461bcd60e51b8152602060048201526024808201527f4e6f20616d6f756e7420746f2072657475726e20666f722074686973206c6f746044820152637465727960e01b60648201526084016109f0565b600d546115d6906001600160a01b03163384613c2b565b60408051338152602081018490527ff8b026935c2d27799fd0d371c6695492c8de099c04ee9281ca03f935790d6b4191015b60405180910390a15050600160005550565b6003546001600160a01b031633146116635760405162461bcd60e51b815260206004820152600c60248201526b2737ba1037b832b930ba37b960a11b60448201526064016109f0565b60055415806116a5575060036005546000908152600f602052604090205460ff1660048111156116a357634e487b7160e01b600052602160045260246000fd5b145b806116e3575060046005546000908152600f602052604090205460ff1660048111156116e157634e487b7160e01b600052602160045260246000fd5b145b61172f5760405162461bcd60e51b815260206004820152601960248201527f4e6f742074696d6520746f207374617274206c6f74746572790000000000000060448201526064016109f0565b61025861173c42896148a2565b11801561175457506205472c61175242896148a2565b105b6117a05760405162461bcd60e51b815260206004820152601f60248201527f4c6f7474657279206c656e677468206f757473696465206f662072616e67650060448201526064016109f0565b600b5486101580156117b45750600a548611155b6118005760405162461bcd60e51b815260206004820152601160248201527f4f757473696465206f66206c696d69747300000000000000000000000000000060448201526064016109f0565b610bb88111156118525760405162461bcd60e51b815260206004820152601560248201527f526566657272616c2066656520746f6f2068696768000000000000000000000060448201526064016109f0565b60058054906000611862836148e5565b9091555050604080516101a08101909152806001815260200142815260200188815260200187815260200160065481526020016006548152602001600c548152602001600063ffffffff16815260200160008152602001868152602001858152602001848480806020026020016040519081016040528093929190818152602001838360200280828437600092018290525093855250505060209182018490526005548152600f9091526040902081518154829060ff1916600183600481111561193c57634e487b7160e01b600052602160045260246000fd5b0217905550602082810151600183015560408301516002830155606083015160038301556080830151600483015560a0830151600583015560c0830151600683015560e083015160078301805463ffffffff191663ffffffff90921691909117905561010083015160088301556101208301516009830155610140830151600a83015561016083015180516119d792600b8501920190614157565b506101809190910151600c91820155600554600654915460408051428152602081018c90529081018a905260608101939093526080830152907f367e70f8c0e0c0a6504d92172bda155c02022d532fc85b5d66a9c49e31c8bc779060a00160405180910390a250506000600c555050505050565b611abd604080516101a081019091528060008152602001600081526020016000815260200160008152602001600081526020016000815260200160008152602001600063ffffffff16815260200160008152602001600081526020016000815260200160608152602001600081525090565b6000828152600f60205260409081902081516101a081019092528054829060ff166004811115611afd57634e487b7160e01b600052602160045260246000fd5b6004811115611b1c57634e487b7160e01b600052602160045260246000fd5b81526020016001820154815260200160028201548152602001600382015481526020016004820154815260200160058201548152602001600682015481526020016007820160009054906101000a900463ffffffff1663ffffffff1663ffffffff1681526020016008820154815260200160098201548152602001600a8201548152602001600b8201805480602002602001604051908101604052809291908181526020018280548015611bef57602002820191906000526020600020905b815481526020019060010190808311611bdb575b50505050508152602001600c820154815250509050919050565b6003546001600160a01b03163314611c525760405162461bcd60e51b815260206004820152600c60248201526b2737ba1037b832b930ba37b960a11b60448201526064016109f0565b60026000541415611ca55760405162461bcd60e51b815260206004820152601f60248201527f5265656e7472616e637947756172643a207265656e7472616e742063616c6c0060448201526064016109f0565b60026000818155828152600f602052604090205460ff166004811115611cdb57634e487b7160e01b600052602160045260246000fd5b14611d285760405162461bcd60e51b815260206004820152601160248201527f4c6f7474657279206e6f7420636c6f736500000000000000000000000000000060448201526064016109f0565b600e60009054906101000a90046001600160a01b03166001600160a01b031663fbe5d9176040518163ffffffff1660e01b815260040160206040518083038186803b158015611d7657600080fd5b505afa158015611d8a573d6000803e3d6000fd5b505050506040513d601f19601f82011682018060405250810190611dae919061440b565b8114611dfc5760405162461bcd60e51b815260206004820152601160248201527f4e756d62657273206e6f7420647261776e00000000000000000000000000000060448201526064016109f0565b6000818152600f60209081526040808320600b0154600e5482516350e27aad60e11b815292518594929385936001600160a01b039093169263a1c4f55a92600480840193829003018186803b158015611e5457600080fd5b505afa158015611e68573d6000803e3d6000fd5b505050506040513d601f19601f82011682018060405250810190611e8c9190614577565b600e546040516321d2cebf60e21b815263ffffffff83166004820152602481018590529192506000916001600160a01b039091169063874b3afc9060440160006040518083038186803b158015611ee257600080fd5b505afa158015611ef6573d6000803e3d6000fd5b505050506040513d6000823e601f3d908101601f19168201604052611f1e9190810190614313565b6000878152600f60205260408120600801549192505b84811015612133576000600183858481518110611f6157634e487b7160e01b600052603260045260246000fd5b6020026020010151611f739190614900565b611f7d91906148a2565b90506000611f8b8a83613c60565b90506000818381518110611faf57634e487b7160e01b600052603260045260246000fd5b60200260200101519050600f60008c8152602001908152602001600020600b018481548110611fee57634e487b7160e01b600052603260045260246000fd5b9060005260206000200154896120049190614857565b6040805160a0810182528d81526000848152601060209081528382205463ffffffff16818401528f8252600f9052829020600b018054939c509092918301918790811061206157634e487b7160e01b600052603260045260246000fd5b60009182526020808320909101548352848252601081526040808320546001600160a01b0364010000000090910481168584015293810183905260078054845260118352818420865181559286015160018401559085015160028301556060850151600390920180546080909601511515600160a01b027fffffffffffffffffffffff00000000000000000000000000000000000000000090961692909416919091179390931790915581549190612118836148e5565b9190505550505050808061212b906148e5565b915050611f34565b506000878152600f6020526040812060078101805463ffffffff191663ffffffff87161790558054600360ff1990911681178255600c8201549082015460089092015461219a926127109261219492909161218e9190613b79565b90613b79565b90613e36565b6000898152600f602052604090206006015490915081906121bc9088906148a2565b6121c691906148a2565b600454600d549198506121e6916001600160a01b03908116911689613c2b565b6005546040805163ffffffff87168152602081018890527f98e31a6607b8b15b4d5b91de54f4c09ffe4c4cf162aa532c70b5213754e2e703910160405180910390a250506001600055505050505050565b600060046000838152600f602052604090205460ff16600481111561226c57634e487b7160e01b600052602160045260246000fd5b146122b95760405162461bcd60e51b815260206004820152601c60248201527f4c6f74746572792073746174757320213d20756e7265616c697a65640000000060448201526064016109f0565b336000908152601360209081526040808320858452909152812054815b818110156112c357336000908152601360209081526040808320888452909152812080548291908490811061231b57634e487b7160e01b600052603260045260246000fd5b6000918252602080832090910154808352601090915260409091205490915064010000000090046001600160a01b0316331480156123735750600081815260106020526040902054600160c01b900460ff1615156001145b1561238d576000878152600f602052604090206003015491505b6123978286614857565b9450505080806123a6906148e5565b9150506122d6565b6001546001600160a01b031633146124085760405162461bcd60e51b815260206004820181905260248201527f4f776e61626c653a2063616c6c6572206973206e6f7420746865206f776e657260448201526064016109f0565b600d546001600160a01b03838116911614156124665760405162461bcd60e51b815260206004820152601460248201527f43616e6e6f74206265204255534420746f6b656e00000000000000000000000060448201526064016109f0565b61247a6001600160a01b0383163383613c2b565b604080516001600160a01b0384168152602081018390527f74545154aac348a3eac92596bd1971957ca94795f4e954ec5f613b55fab78129910160405180910390a15050565b6001546001600160a01b03163314806124e357506002546001600160a01b031633145b61252f5760405162461bcd60e51b815260206004820152601560248201527f4e6f74206f776e6572206f7220696e6a6563746f72000000000000000000000060448201526064016109f0565b60016000838152600f602052604090205460ff16600481111561256257634e487b7160e01b600052602160045260246000fd5b146125a25760405162461bcd60e51b815260206004820152601060248201526f2637ba3a32b93c903737ba1037b832b760811b60448201526064016109f0565b600d546125ba906001600160a01b0316333084613ba5565b6000828152600f6020526040812060060180548392906125db908490614857565b909155505060405181815282907f1bbd659dd628a25f7ff2eabb69c74a56939c539728282275c1c9c1a2d3e340499060200160405180910390a25050565b600060036000848152600f602052604090205460ff16600481111561264e57634e487b7160e01b600052602160045260246000fd5b1461265b575060006126a6565b6000838152600f60205260409020600501548211801561268c57506000838152600f60205260409020600401548211155b15612699575060006126a6565b6126a38383613e42565b90505b92915050565b6001546001600160a01b031633146127065760405162461bcd60e51b815260206004820181905260248201527f4f776e61626c653a2063616c6c6572206973206e6f7420746865206f776e657260448201526064016109f0565b806127535760405162461bcd60e51b815260206004820152600b60248201527f4d757374206265203e203000000000000000000000000000000000000000000060448201526064016109f0565b600955565b6001546001600160a01b031633146127b25760405162461bcd60e51b815260206004820181905260248201527f4f776e61626c653a2063616c6c6572206973206e6f7420746865206f776e657260448201526064016109f0565b6127bc6000613eff565b565b333b156128045760405162461bcd60e51b815260206004820152601460248201527310dbdb9d1c9858dd081b9bdd08185b1b1bddd95960621b60448201526064016109f0565b3332146128535760405162461bcd60e51b815260206004820152601a60248201527f50726f787920636f6e7472616374206e6f7420616c6c6f77656400000000000060448201526064016109f0565b600260005414156128a65760405162461bcd60e51b815260206004820152601f60248201527f5265656e7472616e637947756172643a207265656e7472616e742063616c6c0060448201526064016109f0565b600260005560036000828152600f602052604090205460ff1660048111156128de57634e487b7160e01b600052602160045260246000fd5b1461292b5760405162461bcd60e51b815260206004820152601560248201527f4c6f7474657279206e6f7420636c61696d61626c65000000000000000000000060448201526064016109f0565b336000908152601560209081526040808320848452909152812054815b81811015612a7157336000908152601560209081526040808320878452909152812080548390811061298a57634e487b7160e01b600052603260045260246000fd5b600091825260209091206001600290920201015460ff16612a51573360009081526015602090815260408083208884529091529020805460019190849081106129e357634e487b7160e01b600052603260045260246000fd5b60009182526020808320600292909202909101600101805460ff19169315159390931790925533815260158252604080822088835290925220805483908110612a3c57634e487b7160e01b600052603260045260246000fd5b90600052602060002090600202016000015490505b612a5b8185614857565b9350508080612a69906148e5565b915050612948565b5060008211612ac25760405162461bcd60e51b815260206004820152601b60248201527f4e6f207265776172647320666f722074686973206c6f7474657279000000000060448201526064016109f0565b600d5460405163a9059cbb60e01b8152336004820152602481018490526001600160a01b039091169063a9059cbb90604401602060405180830381600087803b158015612b0e57600080fd5b505af1158015612b22573d6000803e3d6000fd5b505050506040513d601f19601f82011682018060405250810190612b4691906143d3565b5060408051338152602081018490527f962bc326c7b063c70721a63687e0e19450155f93c58eca94769746c0cfb02c5d9101611608565b6060808260008167ffffffffffffffff811115612baa57634e487b7160e01b600052604160045260246000fd5b604051908082528060200260200182016040528015612bd3578160200160208202803683370190505b50905060008267ffffffffffffffff811115612bff57634e487b7160e01b600052604160045260246000fd5b604051908082528060200260200182016040528015612c28578160200160208202803683370190505b50905060005b83811015612d8a5760106000898984818110612c5a57634e487b7160e01b600052603260045260246000fd5b90506020020135815260200190815260200160002060000160009054906101000a900463ffffffff16838281518110612ca357634e487b7160e01b600052603260045260246000fd5b63ffffffff9092166020928302919091019091015260006010818a8a85818110612cdd57634e487b7160e01b600052603260045260246000fd5b602090810292909201358352508101919091526040016000205464010000000090046001600160a01b03161415612d45576001828281518110612d3057634e487b7160e01b600052603260045260246000fd5b91151560209283029190910190910152612d78565b6000828281518110612d6757634e487b7160e01b600052603260045260246000fd5b911515602092830291909101909101525b80612d82816148e5565b915050612c2e565b509093509150505b9250929050565b6001546001600160a01b03163314612df35760405162461bcd60e51b815260206004820181905260248201527f4f776e61626c653a2063616c6c6572206973206e6f7420746865206f776e657260448201526064016109f0565b6005541580612e35575060036005546000908152600f602052604090205460ff166004811115612e3357634e487b7160e01b600052602160045260246000fd5b145b612e815760405162461bcd60e51b815260206004820152601860248201527f4c6f7474657279206e6f7420696e20636c61696d61626c65000000000000000060448201526064016109f0565b806001600160a01b031663b37217a4600554600654604051602001612eb0929190918252602082015260400190565b60408051808303601f1901815290829052805160209091012060e083901b6001600160e01b03191682526004820152602401600060405180830381600087803b158015612efc57600080fd5b505af1158015612f10573d6000803e3d6000fd5b50505050806001600160a01b031663a1c4f55a6040518163ffffffff1660e01b815260040160206040518083038186803b158015612f4d57600080fd5b505afa158015612f61573d6000803e3d6000fd5b505050506040513d601f19601f82011682018060405250810190612f859190614577565b50600e805473ffffffffffffffffffffffffffffffffffffffff19166001600160a01b0383169081179091556040517f383f8cb39dfa7c3fb901a460dd449ea924868f0a92ff03da64740fffa5f1de6290600090a250565b6003546001600160a01b031633146130265760405162461bcd60e51b815260206004820152600c60248201526b2737ba1037b832b930ba37b960a11b60448201526064016109f0565b600260005414156130795760405162461bcd60e51b815260206004820152601f60248201527f5265656e7472616e637947756172643a207265656e7472616e742063616c6c0060448201526064016109f0565b600260005560016000828152600f602052604090205460ff1660048111156130b157634e487b7160e01b600052602160045260246000fd5b146130f15760405162461bcd60e51b815260206004820152601060248201526f2637ba3a32b93c903737ba1037b832b760811b60448201526064016109f0565b6000818152600f602052604090206002015442118061312657506000818152600f60205260409020600a810154600890910154145b6131725760405162461bcd60e51b815260206004820152601060248201527f4c6f7474657279206e6f74206f7665720000000000000000000000000000000060448201526064016109f0565b6006546000828152600f60205260409020600581019190915560098101546008909101541061325057600e546006546040516001600160a01b039092169163b37217a4916131ce91859190602001918252602082015260400190565b60408051808303601f1901815290829052805160209091012060e083901b6001600160e01b03191682526004820152602401600060405180830381600087803b15801561321a57600080fd5b505af115801561322e573d6000803e3d6000fd5b5050506000828152600f60205260409020805460ff191660021790555061326a565b6000818152600f60205260409020805460ff191660041790555b807f3728e75294796694d59d2ffced9c394279baf7b9ebd2702db43f5f04bac6792960065460405161329e91815260200190565b60405180910390a2506001600055565b6060600060075467ffffffffffffffff8111156132db57634e487b7160e01b600052604160045260246000fd5b60405190808252806020026020018201604052801561334957816020015b6133366040518060a0016040528060008152602001600081526020016000815260200160006001600160a01b031681526020016000151581525090565b8152602001906001900390816132f95790505b50905060005b6007548110156133f557600081815260116020908152604091829020825160a081018452815481526001820154928101929092526002810154928201929092526003909101546001600160a01b0381166060830152600160a01b900460ff161515608082015282518390839081106133d757634e487b7160e01b600052603260045260246000fd5b602002602001018190525080806133ed906148e5565b91505061334f565b50919050565b6001546001600160a01b031633146134555760405162461bcd60e51b815260206004820181905260248201527f4f776e61626c653a2063616c6c6572206973206e6f7420746865206f776e657260448201526064016109f0565b6001600160a01b0383166134ab5760405162461bcd60e51b815260206004820152601660248201527f43616e6e6f74206265207a65726f20616464726573730000000000000000000060448201526064016109f0565b6001600160a01b0382166135015760405162461bcd60e51b815260206004820152601660248201527f43616e6e6f74206265207a65726f20616464726573730000000000000000000060448201526064016109f0565b6001600160a01b0381166135575760405162461bcd60e51b815260206004820152601660248201527f43616e6e6f74206265207a65726f20616464726573730000000000000000000060448201526064016109f0565b600380546001600160a01b0385811673ffffffffffffffffffffffffffffffffffffffff19928316811790935560048054868316908416811790915560028054928616929093168217909255604080519384526020840192909252908201527f3e945b7660001d46cfd5e729545f7f0b6c65bdee54066a91c7acad703f1b731e9060600160405180910390a1505050565b333b1561362e5760405162461bcd60e51b815260206004820152601460248201527310dbdb9d1c9858dd081b9bdd08185b1b1bddd95960621b60448201526064016109f0565b33321461367d5760405162461bcd60e51b815260206004820152601a60248201527f50726f787920636f6e7472616374206e6f7420616c6c6f77656400000000000060448201526064016109f0565b600260005414156136d05760405162461bcd60e51b815260206004820152601f60248201527f5265656e7472616e637947756172643a207265656e7472616e742063616c6c0060448201526064016109f0565b6002600055806137225760405162461bcd60e51b815260206004820152601160248201527f4c656e677468206d757374206265203e3000000000000000000000000000000060448201526064016109f0565b6009548111156137675760405162461bcd60e51b815260206004820152601060248201526f546f6f206d616e79207469636b65747360801b60448201526064016109f0565b60036000848152600f602052604090205460ff16600481111561379a57634e487b7160e01b600052602160045260246000fd5b146137e75760405162461bcd60e51b815260206004820152601560248201527f4c6f7474657279206e6f7420636c61696d61626c65000000000000000000000060448201526064016109f0565b6000805b8281101561392957600084848381811061381557634e487b7160e01b600052603260045260246000fd5b905060200201359050600060075490506000805b82811015613906576000818152601160205260409020600101548414801561386a57506000818152601160205260409020600301546001600160a01b031633145b8015613883575060008181526011602052604090205489145b80156138a85750600081815260116020526040902060030154600160a01b900460ff16155b156138f45760008181526011602052604090206002810154600390910180547fffffffffffffffffffffff00ffffffffffffffffffffffffffffffffffffffff16600160a01b17905591505b806138fe816148e5565b915050613829565b506139118186614857565b94505050508080613921906148e5565b9150506137eb565b50806139775760405162461bcd60e51b815260206004820152601960248201527f4e6f207072697a6520666f722074686973206c6f74746572790000000000000060448201526064016109f0565b600d5461398e906001600160a01b03163383613c2b565b6040805182815260208101849052859133917f0f5fca62da8fb5d95525b49e5eaa7b20bc6bd9e2f6b64b493442d1c0bd6ef486910160405180910390a3505060016000555050565b6001546001600160a01b03163314613a305760405162461bcd60e51b815260206004820181905260248201527f4f776e61626c653a2063616c6c6572206973206e6f7420746865206f776e657260448201526064016109f0565b80821115613a805760405162461bcd60e51b815260206004820152601b60248201527f6d696e5072696365206d757374206265203c206d61785072696365000000000060448201526064016109f0565b600b91909155600a55565b6001546001600160a01b03163314613ae55760405162461bcd60e51b815260206004820181905260248201527f4f776e61626c653a2063616c6c6572206973206e6f7420746865206f776e657260448201526064016109f0565b6001600160a01b038116613b615760405162461bcd60e51b815260206004820152602660248201527f4f776e61626c653a206e6577206f776e657220697320746865207a65726f206160448201527f646472657373000000000000000000000000000000000000000000000000000060648201526084016109f0565b613b6a81613eff565b50565b60006126a38284614857565b60006126a38284614883565b6000613b9b6127106121948661218e8787613b79565b90505b9392505050565b6040516001600160a01b0380851660248301528316604482015260648101829052613c259085906323b872dd60e01b906084015b60408051601f198184030181529190526020810180517bffffffffffffffffffffffffffffffffffffffffffffffffffffffff166001600160e01b031990931692909217909152613f5e565b50505050565b6040516001600160a01b038316602482015260448101829052613c5b90849063a9059cbb60e01b90606401613bd9565b505050565b6000828152600f602052604081206004810154600590910154606092613c8683836148a2565b905060008167ffffffffffffffff811115613cb157634e487b7160e01b600052604160045260246000fd5b604051908082528060200260200182016040528015613cda578160200160208202803683370190505b5090506000845b84811015613d355780838381518110613d0a57634e487b7160e01b600052603260045260246000fd5b602090810291909101015281613d1f816148e5565b9250508080613d2d906148e5565b915050613ce1565b5060005b8251811015613e29576000818451613d5191906148a2565b613d5b908a614900565b613d659083614857565b90506000848281518110613d8957634e487b7160e01b600052603260045260246000fd5b60200260200101519050848381518110613db357634e487b7160e01b600052603260045260246000fd5b6020026020010151858381518110613ddb57634e487b7160e01b600052603260045260246000fd5b60200260200101818152505080858481518110613e0857634e487b7160e01b600052603260045260246000fd5b60200260200101818152505050508080613e21906148e5565b915050613d39565b5090979650505050505050565b60006126a3828461486f565b60075460009081805b82811015613ef65760008181526011602052604090206001015485148015613e8c57506000818152601160205260409020600301546001600160a01b031633145b8015613ea5575060008181526011602052604090205486145b8015613eca5750600081815260116020526040902060030154600160a01b900460ff16155b15613ee45760008181526011602052604090206002015491505b80613eee816148e5565b915050613e4b565b50949350505050565b600180546001600160a01b0383811673ffffffffffffffffffffffffffffffffffffffff19831681179093556040519116919082907f8be0079c531659141344cd1fd0a4f28419497f9722a3daafe3b4186f6b6457e090600090a35050565b6000613fb3826040518060400160405280602081526020017f5361666545524332303a206c6f772d6c6576656c2063616c6c206661696c6564815250856001600160a01b03166140439092919063ffffffff16565b805190915015613c5b5780806020019051810190613fd191906143d3565b613c5b5760405162461bcd60e51b815260206004820152602a60248201527f5361666545524332303a204552433230206f7065726174696f6e20646964206e60448201527f6f7420737563636565640000000000000000000000000000000000000000000060648201526084016109f0565b6060613b9b8484600085856001600160a01b0385163b6140a55760405162461bcd60e51b815260206004820152601d60248201527f416464726573733a2063616c6c20746f206e6f6e2d636f6e747261637400000060448201526064016109f0565b600080866001600160a01b031685876040516140c19190614655565b60006040518083038185875af1925050503d80600081146140fe576040519150601f19603f3d011682016040523d82523d6000602084013e614103565b606091505b509150915061411382828661411e565b979650505050505050565b6060831561412d575081613b9e565b82511561413d5782518084602001fd5b8160405162461bcd60e51b81526004016109f09190614763565b828054828255906000526020600020908101928215614192579160200282015b82811115614192578251825591602001919060010190614177565b5061419e9291506141a2565b5090565b5b8082111561419e57600081556001016141a3565b80356001600160a01b03811681146141ce57600080fd5b919050565b60008083601f8401126141e4578081fd5b50813567ffffffffffffffff8111156141fb578182fd5b6020830191508360208260051b8501011115612d9257600080fd5b600060208284031215614227578081fd5b6126a3826141b7565b600080600060608486031215614244578182fd5b61424d846141b7565b925061425b602085016141b7565b9150614269604085016141b7565b90509250925092565b60008060408385031215614284578182fd5b61428d836141b7565b946020939093013593505050565b600080600080608085870312156142b0578081fd5b6142b9856141b7565b966020860135965060408601359560600135945092505050565b600080602083850312156142e5578182fd5b823567ffffffffffffffff8111156142fb578283fd5b614307858286016141d3565b90969095509350505050565b60006020808385031215614325578182fd5b825167ffffffffffffffff8082111561433c578384fd5b818501915085601f83011261434f578384fd5b81518181111561436157614361614940565b8060051b604051601f19603f8301168101818110858211171561438657614386614940565b604052828152858101935084860182860187018a10156143a4578788fd5b8795505b838610156143c65780518552600195909501949386019386016143a8565b5098975050505050505050565b6000602082840312156143e4578081fd5b81518015158114613b9e578182fd5b600060208284031215614404578081fd5b5035919050565b60006020828403121561441c578081fd5b5051919050565b600080600060408486031215614437578283fd5b83359250602084013567ffffffffffffffff811115614454578283fd5b614460868287016141d3565b9497909650939450505050565b60008060008060608587031215614482578384fd5b84359350602085013567ffffffffffffffff81111561449f578384fd5b6144ab878288016141d3565b90945092506144be9050604086016141b7565b905092959194509250565b600080604083850312156144db578182fd5b50508035926020909101359150565b600080600080600080600060c0888a031215614504578283fd5b87359650602088013595506040880135945060608801359350608088013567ffffffffffffffff811115614536578384fd5b6145428a828b016141d3565b989b979a5095989497959660a090950135949350505050565b60006020828403121561456c578081fd5b8135613b9e81614956565b600060208284031215614588578081fd5b8151613b9e81614956565b6000815180845260208085019450808401835b838110156145c45781511515875295820195908201906001016145a6565b509495945050505050565b6000815180845260208085019450808401835b838110156145c4578151875295820195908201906001016145e2565b6000815180845260208085019450808401835b838110156145c457815163ffffffff1687529582019590820190600101614611565b6005811061465157634e487b7160e01b600052602160045260246000fd5b9052565b600082516146678184602087016148b9565b9190910192915050565b602080825282518282018190526000919060409081850190868401855b828110156146dd57815180518552868101518786015285810151868601526060808201516001600160a01b03169086015260809081015115159085015260a0909301929085019060010161468e565b5091979650505050505050565b6080815260006146fd60808301876145cf565b828103602084015261470f81876145fe565b905082810360408401526147238186614593565b91505082606083015295945050505050565b60408152600061474860408301856145fe565b828103602084015261475a8185614593565b95945050505050565b60208152600082518060208401526147828160408501602087016148b9565b601f01601f19169190910160400192915050565b602081526147a8602082018351614633565b602082015160408201526040820151606082015260608201516080820152608082015160a082015260a082015160c082015260c082015160e0820152600060e08301516101006147ff8185018363ffffffff169052565b8401516101208481019190915284015161014080850191909152840151610160808501919091528401516101a0610180808601829052919250906148476101c08601846145cf565b9501519301929092525090919050565b6000821982111561486a5761486a614914565b500190565b60008261487e5761487e61492a565b500490565b600081600019048311821515161561489d5761489d614914565b500290565b6000828210156148b4576148b4614914565b500390565b60005b838110156148d45781810151838201526020016148bc565b83811115613c255750506000910152565b60006000198214156148f9576148f9614914565b5060010190565b60008261490f5761490f61492a565b500690565b634e487b7160e01b600052601160045260246000fd5b634e487b7160e01b600052601260045260246000fd5b634e487b7160e01b600052604160045260246000fd5b63ffffffff81168114613b6a57600080fdfea164736f6c6343000804000a",
  "linkReferences": {},
  "deployedLinkReferences": {}
}