{
  "_format": "hh-sol-artifact-1",
  "contractName": "PancakeSwapLottery",
  "sourceName": "contracts/PancakeSwapLottery.sol",
  "abi": [
    {
      "inputs": [
        {
          "internalType": "address",
          "name": "_cakeTokenAddress",
          "type": "address"
        },
        {
          "internalType": "address",
          "name": "_randomGeneratorAddress",
          "type": "address"
        }
      ],
      "stateMutability": "nonpayable",
      "type": "constructor"
    },
    {
      "anonymous": false,
      "inputs": [
        {
          "indexed": false,
          "internalType": "address",
          "name": "token",
          "type": "address"
        },
        {
          "indexed": false,
          "internalType": "uint256",
          "name": "amount",
          "type": "uint256"
        }
      ],
      "name": "AdminTokenRecovery",
      "type": "event"
    },
    {
      "anonymous": false,
      "inputs": [
        {
          "indexed": false,
          "internalType": "address",
          "name": "claimer",
          "type": "address"
        },
        {
          "indexed": false,
          "internalType": "uint256",
          "name": "amount",
          "type": "uint256"
        }
      ],
      "name": "DistributeRewards",
      "type": "event"
    },
    {
      "anonymous": false,
      "inputs": [
        {
          "indexed": true,
          "internalType": "uint256",
          "name": "lotteryId",
          "type": "uint256"
        },
        {
          "indexed": false,
          "internalType": "uint256",
          "name": "firstTicketIdNextLottery",
          "type": "uint256"
        }
      ],
      "name": "LotteryClose",
      "type": "event"
    },
    {
      "anonymous": false,
      "inputs": [
        {
          "indexed": true,
          "internalType": "uint256",
          "name": "lotteryId",
          "type": "uint256"
        },
        {
          "indexed": false,
          "internalType": "uint256",
          "name": "injectedAmount",
          "type": "uint256"
        }
      ],
      "name": "LotteryInjection",
      "type": "event"
    },
    {
      "anonymous": false,
      "inputs": [
        {
          "indexed": true,
          "internalType": "uint256",
          "name": "lotteryId",
          "type": "uint256"
        },
        {
          "indexed": false,
          "internalType": "uint256",
          "name": "finalNumber",
          "type": "uint256"
        },
        {
          "indexed": false,
          "internalType": "uint256",
          "name": "countWinningTickets",
          "type": "uint256"
        }
      ],
      "name": "LotteryNumberDrawn",
      "type": "event"
    },
    {
      "anonymous": false,
      "inputs": [
        {
          "indexed": true,
          "internalType": "uint256",
          "name": "lotteryId",
          "type": "uint256"
        },
        {
          "indexed": false,
          "internalType": "uint256",
          "name": "startTime",
          "type": "uint256"
        },
        {
          "indexed": false,
          "internalType": "uint256",
          "name": "endTime",
          "type": "uint256"
        },
        {
          "indexed": false,
          "internalType": "uint256",
          "name": "priceTicketInCake",
          "type": "uint256"
        },
        {
          "indexed": false,
          "internalType": "uint256",
          "name": "firstTicketId",
          "type": "uint256"
        },
        {
          "indexed": false,
          "internalType": "uint256",
          "name": "injectedAmount",
          "type": "uint256"
        }
      ],
      "name": "LotteryOpen",
      "type": "event"
    },
    {
      "anonymous": false,
      "inputs": [
        {
          "indexed": false,
          "internalType": "address",
          "name": "operator",
          "type": "address"
        },
        {
          "indexed": false,
          "internalType": "address",
          "name": "treasury",
          "type": "address"
        },
        {
          "indexed": false,
          "internalType": "address",
          "name": "injector",
          "type": "address"
        }
      ],
      "name": "NewOperatorAndTreasuryAndInjectorAddresses",
      "type": "event"
    },
    {
      "anonymous": false,
      "inputs": [
        {
          "indexed": true,
          "internalType": "address",
          "name": "randomGenerator",
          "type": "address"
        }
      ],
      "name": "NewRandomGenerator",
      "type": "event"
    },
    {
      "anonymous": false,
      "inputs": [
        {
          "indexed": true,
          "internalType": "address",
          "name": "previousOwner",
          "type": "address"
        },
        {
          "indexed": true,
          "internalType": "address",
          "name": "newOwner",
          "type": "address"
        }
      ],
      "name": "OwnershipTransferred",
      "type": "event"
    },
    {
      "anonymous": false,
      "inputs": [
        {
          "indexed": false,
          "internalType": "address",
          "name": "owner",
          "type": "address"
        },
        {
          "indexed": false,
          "internalType": "uint256",
          "name": "amount",
          "type": "uint256"
        }
      ],
      "name": "ReturnFunds",
      "type": "event"
    },
    {
      "anonymous": false,
      "inputs": [
        {
          "indexed": true,
          "internalType": "address",
          "name": "claimer",
          "type": "address"
        },
        {
          "indexed": false,
          "internalType": "uint256",
          "name": "amount",
          "type": "uint256"
        },
        {
          "indexed": true,
          "internalType": "uint256",
          "name": "lotteryId",
          "type": "uint256"
        },
        {
          "indexed": false,
          "internalType": "uint256",
          "name": "numberTickets",
          "type": "uint256"
        }
      ],
      "name": "TicketsClaim",
      "type": "event"
    },
    {
      "anonymous": false,
      "inputs": [
        {
          "indexed": true,
          "internalType": "address",
          "name": "buyer",
          "type": "address"
        },
        {
          "indexed": true,
          "internalType": "uint256",
          "name": "lotteryId",
          "type": "uint256"
        },
        {
          "indexed": false,
          "internalType": "uint256",
          "name": "numberTickets",
          "type": "uint256"
        }
      ],
      "name": "TicketsPurchase",
      "type": "event"
    },
    {
      "inputs": [],
      "name": "MAX_LENGTH_LOTTERY",
      "outputs": [
        {
          "internalType": "uint256",
          "name": "",
          "type": "uint256"
        }
      ],
      "stateMutability": "view",
      "type": "function"
    },
    {
      "inputs": [],
      "name": "MAX_REFERRAL_FEE",
      "outputs": [
        {
          "internalType": "uint256",
          "name": "",
          "type": "uint256"
        }
      ],
      "stateMutability": "view",
      "type": "function"
    },
    {
      "inputs": [],
      "name": "MIN_LENGTH_LOTTERY",
      "outputs": [
        {
          "internalType": "uint256",
          "name": "",
          "type": "uint256"
        }
      ],
      "stateMutability": "view",
      "type": "function"
    },
    {
      "inputs": [
        {
          "internalType": "uint256",
          "name": "",
          "type": "uint256"
        },
        {
          "internalType": "uint256",
          "name": "",
          "type": "uint256"
        }
      ],
      "name": "_ticketsIds",
      "outputs": [
        {
          "internalType": "uint256",
          "name": "",
          "type": "uint256"
        }
      ],
      "stateMutability": "view",
      "type": "function"
    },
    {
      "inputs": [
        {
          "internalType": "uint256",
          "name": "",
          "type": "uint256"
        },
        {
          "internalType": "uint256",
          "name": "",
          "type": "uint256"
        }
      ],
      "name": "_ticketsSold",
      "outputs": [
        {
          "internalType": "uint32",
          "name": "",
          "type": "uint32"
        }
      ],
      "stateMutability": "view",
      "type": "function"
    },
    {
      "inputs": [
        {
          "internalType": "uint256",
          "name": "number",
          "type": "uint256"
        },
        {
          "internalType": "uint256",
          "name": "length",
          "type": "uint256"
        }
      ],
      "name": "_winnerIndex",
      "outputs": [
        {
          "internalType": "uint256",
          "name": "",
          "type": "uint256"
        }
      ],
      "stateMutability": "pure",
      "type": "function"
    },
    {
      "inputs": [
        {
          "internalType": "uint256",
          "name": "",
          "type": "uint256"
        }
      ],
      "name": "_winners",
      "outputs": [
        {
          "internalType": "uint256",
          "name": "lotteryId",
          "type": "uint256"
        },
        {
          "internalType": "uint256",
          "name": "ticket",
          "type": "uint256"
        },
        {
          "internalType": "uint256",
          "name": "prize",
          "type": "uint256"
        },
        {
          "internalType": "address",
          "name": "owner",
          "type": "address"
        },
        {
          "internalType": "bool",
          "name": "claimed",
          "type": "bool"
        }
      ],
      "stateMutability": "view",
      "type": "function"
    },
    {
      "inputs": [
        {
          "internalType": "uint256",
          "name": "_lotteryId",
          "type": "uint256"
        },
        {
          "internalType": "uint32[]",
          "name": "_ticketNumbers",
          "type": "uint32[]"
        },
        {
          "internalType": "address",
          "name": "_referral",
          "type": "address"
        }
      ],
      "name": "buyTickets",
      "outputs": [],
      "stateMutability": "nonpayable",
      "type": "function"
    },
    {
      "inputs": [],
      "name": "cakeToken",
      "outputs": [
        {
          "internalType": "contract IERC20",
          "name": "",
          "type": "address"
        }
      ],
      "stateMutability": "view",
      "type": "function"
    },
    {
      "inputs": [
        {
          "internalType": "address",
          "name": "_randomGeneratorAddress",
          "type": "address"
        }
      ],
      "name": "changeRandomGenerator",
      "outputs": [],
      "stateMutability": "nonpayable",
      "type": "function"
    },
    {
      "inputs": [
        {
          "internalType": "uint256",
          "name": "_lotteryId",
          "type": "uint256"
        },
        {
          "internalType": "uint256[]",
          "name": "_ticketNumbers",
          "type": "uint256[]"
        }
      ],
      "name": "claimTickets",
      "outputs": [],
      "stateMutability": "nonpayable",
      "type": "function"
    },
    {
      "inputs": [
        {
          "internalType": "uint256",
          "name": "_lotteryId",
          "type": "uint256"
        }
      ],
      "name": "closeLottery",
      "outputs": [],
      "stateMutability": "nonpayable",
      "type": "function"
    },
    {
      "inputs": [],
      "name": "currentLotteryId",
      "outputs": [
        {
          "internalType": "uint256",
          "name": "",
          "type": "uint256"
        }
      ],
      "stateMutability": "view",
      "type": "function"
    },
    {
      "inputs": [],
      "name": "currentRewardId",
      "outputs": [
        {
          "internalType": "uint256",
          "name": "",
          "type": "uint256"
        }
      ],
      "stateMutability": "view",
      "type": "function"
    },
    {
      "inputs": [],
      "name": "currentTicketId",
      "outputs": [
        {
          "internalType": "uint256",
          "name": "",
          "type": "uint256"
        }
      ],
      "stateMutability": "view",
      "type": "function"
    },
    {
      "inputs": [],
      "name": "currentWinnerId",
      "outputs": [
        {
          "internalType": "uint256",
          "name": "",
          "type": "uint256"
        }
      ],
      "stateMutability": "view",
      "type": "function"
    },
    {
      "inputs": [
        {
          "internalType": "uint256",
          "name": "_lotteryId",
          "type": "uint256"
        }
      ],
      "name": "distributeReferralRewards",
      "outputs": [],
      "stateMutability": "nonpayable",
      "type": "function"
    },
    {
      "inputs": [
        {
          "internalType": "uint256",
          "name": "_lotteryId",
          "type": "uint256"
        }
      ],
      "name": "drawAndMakeLotteryClaimable",
      "outputs": [],
      "stateMutability": "nonpayable",
      "type": "function"
    },
    {
      "inputs": [
        {
          "internalType": "uint256",
          "name": "prizesToGive",
          "type": "uint256"
        }
      ],
      "name": "getRamd",
      "outputs": [
        {
          "internalType": "uint256[]",
          "name": "",
          "type": "uint256[]"
        }
      ],
      "stateMutability": "view",
      "type": "function"
    },
    {
      "inputs": [
        {
          "internalType": "uint256",
          "name": "_lotteryId",
          "type": "uint256"
        },
        {
          "internalType": "uint256",
          "name": "_amount",
          "type": "uint256"
        }
      ],
      "name": "injectFunds",
      "outputs": [],
      "stateMutability": "nonpayable",
      "type": "function"
    },
    {
      "inputs": [],
      "name": "injectorAddress",
      "outputs": [
        {
          "internalType": "address",
          "name": "",
          "type": "address"
        }
      ],
      "stateMutability": "view",
      "type": "function"
    },
    {
      "inputs": [],
      "name": "maxNumberTicketsPerBuyOrClaim",
      "outputs": [
        {
          "internalType": "uint256",
          "name": "",
          "type": "uint256"
        }
      ],
      "stateMutability": "view",
      "type": "function"
    },
    {
      "inputs": [],
      "name": "maxPriceTicketInCake",
      "outputs": [
        {
          "internalType": "uint256",
          "name": "",
          "type": "uint256"
        }
      ],
      "stateMutability": "view",
      "type": "function"
    },
    {
      "inputs": [],
      "name": "minPriceTicketInCake",
      "outputs": [
        {
          "internalType": "uint256",
          "name": "",
          "type": "uint256"
        }
      ],
      "stateMutability": "view",
      "type": "function"
    },
    {
      "inputs": [],
      "name": "operatorAddress",
      "outputs": [
        {
          "internalType": "address",
          "name": "",
          "type": "address"
        }
      ],
      "stateMutability": "view",
      "type": "function"
    },
    {
      "inputs": [],
      "name": "owner",
      "outputs": [
        {
          "internalType": "address",
          "name": "",
          "type": "address"
        }
      ],
      "stateMutability": "view",
      "type": "function"
    },
    {
      "inputs": [],
      "name": "pendingInjectionNextLottery",
      "outputs": [
        {
          "internalType": "uint256",
          "name": "",
          "type": "uint256"
        }
      ],
      "stateMutability": "view",
      "type": "function"
    },
    {
      "inputs": [],
      "name": "randomGenerator",
      "outputs": [
        {
          "internalType": "contract IRandomNumberGenerator",
          "name": "",
          "type": "address"
        }
      ],
      "stateMutability": "view",
      "type": "function"
    },
    {
      "inputs": [
        {
          "internalType": "address",
          "name": "_tokenAddress",
          "type": "address"
        },
        {
          "internalType": "uint256",
          "name": "_tokenAmount",
          "type": "uint256"
        }
      ],
      "name": "recoverWrongTokens",
      "outputs": [],
      "stateMutability": "nonpayable",
      "type": "function"
    },
    {
      "inputs": [],
      "name": "renounceOwnership",
      "outputs": [],
      "stateMutability": "nonpayable",
      "type": "function"
    },
    {
      "inputs": [
        {
          "internalType": "uint256",
          "name": "_maxNumberTicketsPerBuy",
          "type": "uint256"
        }
      ],
      "name": "setMaxNumberTicketsPerBuy",
      "outputs": [],
      "stateMutability": "nonpayable",
      "type": "function"
    },
    {
      "inputs": [
        {
          "internalType": "uint256",
          "name": "_minPriceTicketInCake",
          "type": "uint256"
        },
        {
          "internalType": "uint256",
          "name": "_maxPriceTicketInCake",
          "type": "uint256"
        }
      ],
      "name": "setMinAndMaxTicketPriceInCake",
      "outputs": [],
      "stateMutability": "nonpayable",
      "type": "function"
    },
    {
      "inputs": [
        {
          "internalType": "address",
          "name": "_operatorAddress",
          "type": "address"
        },
        {
          "internalType": "address",
          "name": "_treasuryAddress",
          "type": "address"
        },
        {
          "internalType": "address",
          "name": "_injectorAddress",
          "type": "address"
        }
      ],
      "name": "setOperatorAndTreasuryAndInjectorAddresses",
      "outputs": [],
      "stateMutability": "nonpayable",
      "type": "function"
    },
    {
      "inputs": [
        {
          "internalType": "uint256",
          "name": "_lotteryId",
          "type": "uint256"
        },
        {
          "internalType": "uint256",
          "name": "number",
          "type": "uint256"
        }
      ],
      "name": "shuffle",
      "outputs": [
        {
          "internalType": "uint256[]",
          "name": "",
          "type": "uint256[]"
        }
      ],
      "stateMutability": "view",
      "type": "function"
    },
    {
      "inputs": [
        {
          "internalType": "uint256",
          "name": "_endTime",
          "type": "uint256"
        },
        {
          "internalType": "uint256",
          "name": "_priceTicketInCake",
          "type": "uint256"
        },
        {
          "internalType": "uint256",
          "name": "_minTicketsToSell",
          "type": "uint256"
        },
        {
          "internalType": "uint256",
          "name": "_maxTicketsToSell",
          "type": "uint256"
        },
        {
          "internalType": "uint256[]",
          "name": "_prizes",
          "type": "uint256[]"
        },
        {
          "internalType": "uint256",
          "name": "_referralReward",
          "type": "uint256"
        }
      ],
      "name": "startLottery",
      "outputs": [],
      "stateMutability": "nonpayable",
      "type": "function"
    },
    {
      "inputs": [
        {
          "internalType": "uint256",
          "name": "_lotteryId",
          "type": "uint256"
        }
      ],
      "name": "tickIds",
      "outputs": [
        {
          "internalType": "uint256[]",
          "name": "",
          "type": "uint256[]"
        }
      ],
      "stateMutability": "view",
      "type": "function"
    },
    {
      "inputs": [
        {
          "internalType": "address",
          "name": "newOwner",
          "type": "address"
        }
      ],
      "name": "transferOwnership",
      "outputs": [],
      "stateMutability": "nonpayable",
      "type": "function"
    },
    {
      "inputs": [],
      "name": "treasuryAddress",
      "outputs": [
        {
          "internalType": "address",
          "name": "",
          "type": "address"
        }
      ],
      "stateMutability": "view",
      "type": "function"
    },
    {
      "inputs": [],
      "name": "viewCurrentLotteryId",
      "outputs": [
        {
          "internalType": "uint256",
          "name": "",
          "type": "uint256"
        }
      ],
      "stateMutability": "view",
      "type": "function"
    },
    {
      "inputs": [
        {
          "internalType": "uint256",
          "name": "_lotteryId",
          "type": "uint256"
        }
      ],
      "name": "viewLottery",
      "outputs": [
        {
          "components": [
            {
              "internalType": "enum PancakeSwapLottery.Status",
              "name": "status",
              "type": "uint8"
            },
            {
              "internalType": "uint256",
              "name": "startTime",
              "type": "uint256"
            },
            {
              "internalType": "uint256",
              "name": "endTime",
              "type": "uint256"
            },
            {
              "internalType": "uint256",
              "name": "priceTicketInCake",
              "type": "uint256"
            },
            {
              "internalType": "uint256",
              "name": "firstTicketId",
              "type": "uint256"
            },
            {
              "internalType": "uint256",
              "name": "firstTicketIdNextLottery",
              "type": "uint256"
            },
            {
              "internalType": "uint256",
              "name": "amountCollectedInCake",
              "type": "uint256"
            },
            {
              "internalType": "uint32",
              "name": "finalNumber",
              "type": "uint32"
            },
            {
              "internalType": "uint256",
              "name": "ticketsSold",
              "type": "uint256"
            },
            {
              "internalType": "uint256",
              "name": "minTicketsToSell",
              "type": "uint256"
            },
            {
              "internalType": "uint256",
              "name": "maxTicketsToSell",
              "type": "uint256"
            },
            {
              "internalType": "uint256[]",
              "name": "prizes",
              "type": "uint256[]"
            },
            {
              "internalType": "uint256",
              "name": "referralReward",
              "type": "uint256"
            }
          ],
          "internalType": "struct PancakeSwapLottery.Lottery",
          "name": "",
          "type": "tuple"
        }
      ],
      "stateMutability": "view",
      "type": "function"
    },
    {
      "inputs": [
        {
          "internalType": "uint256[]",
          "name": "_ticketIds",
          "type": "uint256[]"
        }
      ],
      "name": "viewNumbersAndStatusesForTicketIds",
      "outputs": [
        {
          "internalType": "uint32[]",
          "name": "",
          "type": "uint32[]"
        },
        {
          "internalType": "bool[]",
          "name": "",
          "type": "bool[]"
        }
      ],
      "stateMutability": "view",
      "type": "function"
    },
    {
      "inputs": [
        {
          "internalType": "uint256",
          "name": "_lotteryId",
          "type": "uint256"
        },
        {
          "internalType": "uint256",
          "name": "_ticketNumber",
          "type": "uint256"
        }
      ],
      "name": "viewRewardsForTicketNumber",
      "outputs": [
        {
          "internalType": "uint256",
          "name": "",
          "type": "uint256"
        }
      ],
      "stateMutability": "view",
      "type": "function"
    },
    {
      "inputs": [
        {
          "internalType": "address",
          "name": "_user",
          "type": "address"
        },
        {
          "internalType": "uint256",
          "name": "_lotteryId",
          "type": "uint256"
        },
        {
          "internalType": "uint256",
          "name": "_cursor",
          "type": "uint256"
        },
        {
          "internalType": "uint256",
          "name": "_size",
          "type": "uint256"
        }
      ],
      "name": "viewUserInfoForLotteryId",
      "outputs": [
        {
          "internalType": "uint256[]",
          "name": "",
          "type": "uint256[]"
        },
        {
          "internalType": "uint32[]",
          "name": "",
          "type": "uint32[]"
        },
        {
          "internalType": "bool[]",
          "name": "",
          "type": "bool[]"
        },
        {
          "internalType": "uint256",
          "name": "",
          "type": "uint256"
        }
      ],
      "stateMutability": "view",
      "type": "function"
    },
    {
      "inputs": [
        {
          "internalType": "uint256",
          "name": "_lotteryId",
          "type": "uint256"
        }
      ],
      "name": "withdrawFunds",
      "outputs": [],
      "stateMutability": "nonpayable",
      "type": "function"
    }
  ],
  "bytecode": "0x608060405260646009556802b5e3af16b1880000600a556611c37937e08000600b553480156200002e57600080fd5b50604051620049bc380380620049bc833981016040819052620000519162000215565b60016000556200006133620001a6565b600d80546001600160a01b039384166001600160a01b031991821617909155600e805492909316911617905560126020527f7e7fa33969761a458e04f477e039a608702b4f924981d6653935a8319a08ad7b805463ffffffff199081166001179091557f71a67924699a20698523213e55fe499d539379d7769cd5567e2c45d583f815a380548216600b1790557f8e1fee8c88a9e04123b21e90cae2727a7715bf522a1e46eb5934ccd05203a6b280548216606f1790557f0f36ad39aee03e7108cc48f54934702a5f0d4066f10344cebf8198978d86976a805482166104571790557fb4fcd034df3d20faa1c133b66d862ce92732727d40916b48ffb4020cb00fe05380548216612b6717905560056000527f45429b9195d4ec5c0cf6c69e9c21a4ca0ea773b702c2de5735f85d2631f2674680549091166201b2071790556200024c565b600180546001600160a01b038381166001600160a01b0319831681179093556040519116919082907f8be0079c531659141344cd1fd0a4f28419497f9722a3daafe3b4186f6b6457e090600090a35050565b80516001600160a01b03811681146200021057600080fd5b919050565b6000806040838503121562000228578182fd5b6200023383620001f8565b91506200024360208401620001f8565b90509250929050565b614760806200025c6000396000f3fe608060405234801561001057600080fd5b50600436106102f45760003560e01c806379cf8dde11610191578063a4bfaddf116100e3578063da7429f811610097578063e49eb0da11610071578063e49eb0da146105fd578063f2fde38b14610610578063f69034111461062357600080fd5b8063da7429f8146105cd578063db19da0d146105e0578063dcbad90d146105ea57600080fd5b8063c5f956af116100c8578063c5f956af14610594578063d59d458b146105a7578063da4ca039146105ba57600080fd5b8063a4bfaddf14610578578063ae6563031461058157600080fd5b80638fc3539a1161014557806398359fa11161011f57806398359fa11461053f5780639c384653146105525780639d8ca5311461056557600080fd5b80638fc3539a146104f8578063905d0a8d14610519578063968ba3db1461052c57600080fd5b806380a061601161017657806380a06160146104cc5780638904bf2f146104d45780638da5cb5b146104e757600080fd5b806379cf8dde14610491578063805955a6146104b957600080fd5b80632423807a1161024a578063471aeab4116101fe5780636b873788116101d85780636b8737881461046d5780636be4097c14610480578063715018a61461048957600080fd5b8063471aeab41461043e578063542df70814610451578063686465b81461046457600080fd5b806329fa6d021161022f57806329fa6d021461040257806331feb565146104225780633f138d4b1461042b57600080fd5b80632423807a146103cf57806328ac7010146103ef57600080fd5b8063155dd5ee116102ac5780631f73664b116102865780631f73664b146103aa5780631fe86c6b146103b3578063203214ea146103bc57600080fd5b8063155dd5ee1461038557806316aa3c78146103985780631e61079c146103a157600080fd5b806307fb5a9c116102dd57806307fb5a9c1461033a578063127effb21461035157806312a9769d1461037c57600080fd5b806305531eeb146102f957806307720da314610325575b600080fd5b61030c6103073660046140ec565b6106a0565b60405161031c94939291906144d5565b60405180910390f35b6103386103333660046142be565b610a18565b005b61034361371481565b60405190815260200161031c565b600354610364906001600160a01b031681565b6040516001600160a01b03909116815260200161031c565b610343600c5481565b610338610393366004614244565b611265565b61034360075481565b610343610bb881565b610343600a5481565b61034360095481565b6103386103ca36600461433b565b6115ac565b6103e26103dd366004614244565b6119dd565b60405161031c9190614581565b6103386103fd366004614244565b611b9b565b61041561041036600461431a565b6120fd565b60405161031c91906144c2565b610343600b5481565b6103386104393660046140c3565b612256565b61033861044c36600461431a565b612368565b61034361045f36600461431a565b6124c1565b61034360065481565b61033861047b366004614244565b612514565b61034360055481565b6103386125c0565b6104a461049f36600461431a565b612626565b60405163ffffffff909116815260200161031c565b6103386104c7366004614244565b61266f565b600554610343565b600d54610364906001600160a01b031681565b6001546001600160a01b0316610364565b61050b610506366004614124565b612a2b565b60405161031c929190614520565b61034361052736600461431a565b612c47565b61041561053a366004614244565b612c78565b61033861054d366004614067565b612d9f565b600254610364906001600160a01b031681565b610338610573366004614244565b612fe3565b61034360085481565b61034361058f36600461431a565b613293565b600454610364906001600160a01b031681565b6104156105b5366004614244565b6132ab565b6103386105c8366004614081565b61330d565b6103386105db36600461431a565b6134fa565b6103436205472c81565b600e54610364906001600160a01b031681565b61033861060b366004614274565b6135af565b61033861061e366004614067565b61399d565b61066d610631366004614244565b6011602052600090815260409020805460018201546002830154600390930154919290916001600160a01b03811690600160a01b900460ff1685565b604080519586526020860194909452928401919091526001600160a01b031660608301521515608082015260a00161031c565b6001600160a01b0384166000908152601460209081526040808320868452909152812054606091829182919085906106d8888261468d565b8211156106ec576106e9888261468d565b91505b60008267ffffffffffffffff81111561071557634e487b7160e01b600052604160045260246000fd5b60405190808252806020026020018201604052801561073e578160200160208202803683370190505b50905060008367ffffffffffffffff81111561076a57634e487b7160e01b600052604160045260246000fd5b604051908082528060200260200182016040528015610793578160200160208202803683370190505b50905060008467ffffffffffffffff8111156107bf57634e487b7160e01b600052604160045260246000fd5b6040519080825280602002602001820160405280156107e8578160200160208202803683370190505b50905060005b858110156109f257601460008f6001600160a01b03166001600160a01b0316815260200190815260200160002060008e81526020019081526020016000208c826108389190614642565b8154811061085657634e487b7160e01b600052603260045260246000fd5b906000526020600020015484828151811061088157634e487b7160e01b600052603260045260246000fd5b602002602001018181525050601060008583815181106108b157634e487b7160e01b600052603260045260246000fd5b6020026020010151815260200190815260200160002060000160009054906101000a900463ffffffff168382815181106108fb57634e487b7160e01b600052603260045260246000fd5b602002602001019063ffffffff16908163ffffffff168152505060006001600160a01b03166010600086848151811061094457634e487b7160e01b600052603260045260246000fd5b60209081029190910181015182528101919091526040016000205464010000000090046001600160a01b031614156109ad57600182828151811061099857634e487b7160e01b600052603260045260246000fd5b911515602092830291909101909101526109e0565b60008282815181106109cf57634e487b7160e01b600052603260045260246000fd5b911515602092830291909101909101525b806109ea816146d0565b9150506107ee565b50828282610a00888f614642565b98509850985098505050505050945094509450949050565b333b15610a635760405162461bcd60e51b815260206004820152601460248201527310dbdb9d1c9858dd081b9bdd08185b1b1bddd95960621b60448201526064015b60405180910390fd5b333214610ab25760405162461bcd60e51b815260206004820152601a60248201527f50726f787920636f6e7472616374206e6f7420616c6c6f7765640000000000006044820152606401610a5a565b60026000541415610b055760405162461bcd60e51b815260206004820152601f60248201527f5265656e7472616e637947756172643a207265656e7472616e742063616c6c006044820152606401610a5a565b600260005581610b575760405162461bcd60e51b815260206004820152601360248201527f4e6f207469636b657420737065636966696564000000000000000000000000006044820152606401610a5a565b600954821115610b9c5760405162461bcd60e51b815260206004820152601060248201526f546f6f206d616e79207469636b65747360801b6044820152606401610a5a565b60016000858152600f602052604090205460ff166004811115610bcf57634e487b7160e01b600052602160045260246000fd5b14610c1c5760405162461bcd60e51b815260206004820152601360248201527f4c6f7474657279206973206e6f74206f70656e000000000000000000000000006044820152606401610a5a565b6000848152600f60205260409020600201544210610c7c5760405162461bcd60e51b815260206004820152600f60248201527f4c6f7474657279206973206f76657200000000000000000000000000000000006044820152606401610a5a565b6000848152600f60205260409020600a8101546008909101541115610cf65760405162461bcd60e51b815260206004820152602a60248201527f4d6178696d756d206e756d626572206f66206c6f7474657279207469636b65746044820152691cc8195e18d95959195960b21b6064820152608401610a5a565b6000848152600f6020526040812060080154610d129084613a7f565b6000868152600f60205260409020600a0154909150811115610d895760405162461bcd60e51b815260206004820152602a60248201527f4d6178696d756d206e756d626572206f66206c6f7474657279207469636b65746044820152691cc8195e18d95959195960b21b6064820152608401610a5a565b6000858152600f6020526040812060030154610da59085613a8b565b6000878152600f60205260408120600c8101546003909101549293509091610dce919087613a97565b600d54909150610de9906001600160a01b0316333085613ab9565b336001600160a01b03851614610e5e576001600160a01b03841660009081526017602090815260408083208a845282528083208151808301909252848252818301848152815460018082018455928652939094209151600290930290910191825591519101805460ff19169115159190911790555b6000878152600f602052604081206006018054849290610e7f908490614642565b90915550600090505b8581101561121f576000878783818110610eb257634e487b7160e01b600052603260045260246000fd5b9050602002016020810190610ec791906143ac565b9050620f42408163ffffffff1610158015610eeb5750621e847f8163ffffffff1611155b610f375760405162461bcd60e51b815260206004820152600d60248201527f4f7574736964652072616e6765000000000000000000000000000000000000006044820152606401610a5a565b6000610f428a613b3f565b905080516000146110165760005b815181101561101457818181518110610f7957634e487b7160e01b600052603260045260246000fd5b602002602001015163ffffffff168363ffffffff1614156110025760405162461bcd60e51b815260206004820152603c60248201527f5469636b657420616c726561647920736f6c642c2063686f6f736520616e6f7460448201527f686572206e756d62657220616e642074727920697420616761696e2e000000006064820152608401610a5a565b8061100c816146d0565b915050610f50565b505b60146000336001600160a01b03166001600160a01b0316815260200190815260200160002060008b8152602001908152602001600020600654908060018154018082558091505060019003906000526020600020016000909190919091505560405180606001604052808363ffffffff168152602001336001600160a01b031681526020016001151581525060106000600654815260200190815260200160002060008201518160000160006101000a81548163ffffffff021916908363ffffffff16021790555060208201518160000160046101000a8154816001600160a01b0302191690836001600160a01b0316021790555060408201518160000160186101000a81548160ff021916908315150217905550905050601560008b81526020019081526020016000208290806001815401808255809150506001900390600052602060002090600891828204019190066004029091909190916101000a81548163ffffffff021916908363ffffffff160217905550601660008b81526020019081526020016000206006549080600181540180825580915050600190039060005260206000200160009091909190915055600660008154809291906111dc906146d0565b909155505060008a8152600f60205260408120600801805460019290611203908490614642565b9250508190555050508080611217906146d0565b915050610e88565b50604051858152879033907fd7d247b583de1023852eef87b48f54354dbec771d01bc2cc49e96094efc322b99060200160405180910390a3505060016000555050505050565b333b156112ab5760405162461bcd60e51b815260206004820152601460248201527310dbdb9d1c9858dd081b9bdd08185b1b1bddd95960621b6044820152606401610a5a565b3332146112fa5760405162461bcd60e51b815260206004820152601a60248201527f50726f787920636f6e7472616374206e6f7420616c6c6f7765640000000000006044820152606401610a5a565b6002600054141561134d5760405162461bcd60e51b815260206004820152601f60248201527f5265656e7472616e637947756172643a207265656e7472616e742063616c6c006044820152606401610a5a565b600260005560046000828152600f602052604090205460ff16600481111561138557634e487b7160e01b600052602160045260246000fd5b146113d25760405162461bcd60e51b815260206004820152601460248201527f4c6f747465727920697320636c61696d61626c650000000000000000000000006044820152606401610a5a565b600081815260166020526040812054815b818110156114f757600084815260166020526040812080548291908490811061141c57634e487b7160e01b600052603260045260246000fd5b6000918252602080832090910154808352601090915260409091205490915064010000000090046001600160a01b03163314801561148957506000818152601060205260409020547801000000000000000000000000000000000000000000000000900460ff1615156001145b156114d657600081815260106020908152604080832080547fffffffffffffff00ffffffffffffffffffffffffffffffffffffffffffffffff169055888352600f90915290206003015491505b6114e08286614642565b9450505080806114ef906146d0565b9150506113e3565b50816115515760405162461bcd60e51b8152602060048201526024808201527f4e6f20616d6f756e7420746f2072657475726e20666f722074686973206c6f746044820152637465727960e01b6064820152608401610a5a565b600d54611568906001600160a01b03163384613c52565b60408051338152602081018490527ff8b026935c2d27799fd0d371c6695492c8de099c04ee9281ca03f935790d6b4191015b60405180910390a15050600160005550565b6003546001600160a01b031633146115f55760405162461bcd60e51b815260206004820152600c60248201526b2737ba1037b832b930ba37b960a11b6044820152606401610a5a565b6005541580611637575060036005546000908152600f602052604090205460ff16600481111561163557634e487b7160e01b600052602160045260246000fd5b145b80611675575060046005546000908152600f602052604090205460ff16600481111561167357634e487b7160e01b600052602160045260246000fd5b145b6116c15760405162461bcd60e51b815260206004820152601960248201527f4e6f742074696d6520746f207374617274206c6f7474657279000000000000006044820152606401610a5a565b6137146116ce428961468d565b1180156116e657506205472c6116e4428961468d565b105b6117325760405162461bcd60e51b815260206004820152601f60248201527f4c6f7474657279206c656e677468206f757473696465206f662072616e6765006044820152606401610a5a565b600b5486101580156117465750600a548611155b6117925760405162461bcd60e51b815260206004820152601160248201527f4f757473696465206f66206c696d6974730000000000000000000000000000006044820152606401610a5a565b610bb88111156117e45760405162461bcd60e51b815260206004820152601560248201527f526566657272616c2066656520746f6f206869676800000000000000000000006044820152606401610a5a565b600580549060006117f4836146d0565b9091555050604080516101a08101909152806001815260200142815260200188815260200187815260200160065481526020016006548152602001600c548152602001600063ffffffff16815260200160008152602001868152602001858152602001848480806020026020016040519081016040528093929190818152602001838360200280828437600092018290525093855250505060209182018490526005548152600f9091526040902081518154829060ff191660018360048111156118ce57634e487b7160e01b600052602160045260246000fd5b0217905550602082810151600183015560408301516002830155606083015160038301556080830151600483015560a0830151600583015560c0830151600683015560e083015160078301805463ffffffff191663ffffffff90921691909117905561010083015160088301556101208301516009830155610140830151600a830155610160830151805161196992600b8501920190613fa8565b506101809190910151600c91820155600554600654915460408051428152602081018c90529081018a905260608101939093526080830152907f367e70f8c0e0c0a6504d92172bda155c02022d532fc85b5d66a9c49e31c8bc779060a00160405180910390a250506000600c555050505050565b611a4f604080516101a081019091528060008152602001600081526020016000815260200160008152602001600081526020016000815260200160008152602001600063ffffffff16815260200160008152602001600081526020016000815260200160608152602001600081525090565b6000828152600f60205260409081902081516101a081019092528054829060ff166004811115611a8f57634e487b7160e01b600052602160045260246000fd5b6004811115611aae57634e487b7160e01b600052602160045260246000fd5b81526020016001820154815260200160028201548152602001600382015481526020016004820154815260200160058201548152602001600682015481526020016007820160009054906101000a900463ffffffff1663ffffffff1663ffffffff1681526020016008820154815260200160098201548152602001600a8201548152602001600b8201805480602002602001604051908101604052809291908181526020018280548015611b8157602002820191906000526020600020905b815481526020019060010190808311611b6d575b50505050508152602001600c820154815250509050919050565b6003546001600160a01b03163314611be45760405162461bcd60e51b815260206004820152600c60248201526b2737ba1037b832b930ba37b960a11b6044820152606401610a5a565b60026000541415611c375760405162461bcd60e51b815260206004820152601f60248201527f5265656e7472616e637947756172643a207265656e7472616e742063616c6c006044820152606401610a5a565b60026000818155828152600f602052604090205460ff166004811115611c6d57634e487b7160e01b600052602160045260246000fd5b14611cba5760405162461bcd60e51b815260206004820152601160248201527f4c6f7474657279206e6f7420636c6f73650000000000000000000000000000006044820152606401610a5a565b600e60009054906101000a90046001600160a01b03166001600160a01b031663fbe5d9176040518163ffffffff1660e01b815260040160206040518083038186803b158015611d0857600080fd5b505afa158015611d1c573d6000803e3d6000fd5b505050506040513d601f19601f82011682018060405250810190611d40919061425c565b8114611d8e5760405162461bcd60e51b815260206004820152601160248201527f4e756d62657273206e6f7420647261776e0000000000000000000000000000006044820152606401610a5a565b6000818152600f60209081526040808320600b0154600e5482516350e27aad60e11b815292519194936001600160a01b039091169263a1c4f55a9260048083019392829003018186803b158015611de457600080fd5b505afa158015611df8573d6000803e3d6000fd5b505050506040513d601f19601f82011682018060405250810190611e1c91906143c8565b600e546040516321d2cebf60e21b815263ffffffff83166004820152602481018590529192506000916001600160a01b039091169063874b3afc9060440160006040518083038186803b158015611e7257600080fd5b505afa158015611e86573d6000803e3d6000fd5b505050506040513d6000823e601f3d908101601f19168201604052611eae9190810190614164565b6000858152600f60205260408120600801549192505b84811015612077576000600183858481518110611ef157634e487b7160e01b600052603260045260246000fd5b6020026020010151611f0391906146eb565b611f0d919061468d565b90506000611f1b88836120fd565b90506000818381518110611f3f57634e487b7160e01b600052603260045260246000fd5b6020908102919091018101516040805160a0810182528c81526000838152601085528281205463ffffffff16828601528d8152600f90945292819020600b0180549294509083019187908110611fa557634e487b7160e01b600052603260045260246000fd5b60009182526020808320909101548352848252601081526040808320546001600160a01b0364010000000090910481168584015293810183905260078054845260118352818420865181559286015160018401559085015160028301556060850151600390920180546080909601511515600160a01b027fffffffffffffffffffffff0000000000000000000000000000000000000000009096169290941691909117939093179091558154919061205c836146d0565b9190505550505050808061206f906146d0565b915050611ec4565b506000858152600f6020526040902060078101805463ffffffff191663ffffffff861617905580546003919060ff191660018302179055506005546040805163ffffffff86168152602081018790527f98e31a6607b8b15b4d5b91de54f4c09ffe4c4cf162aa532c70b5213754e2e703910160405180910390a250506001600055505050565b600082815260166020908152604080832080548251818502810185019093528083526060949383018282801561215257602002820191906000526020600020905b81548152602001906001019080831161213e575b5050505050905060005b815181101561224c576000818351612174919061468d565b61217e90866146eb565b6121889083614642565b905060008382815181106121ac57634e487b7160e01b600052603260045260246000fd5b602002602001015190508383815181106121d657634e487b7160e01b600052603260045260246000fd5b60200260200101518483815181106121fe57634e487b7160e01b600052603260045260246000fd5b6020026020010181815250508084848151811061222b57634e487b7160e01b600052603260045260246000fd5b60200260200101818152505050508080612244906146d0565b91505061215c565b5090505b92915050565b6001546001600160a01b031633146122b05760405162461bcd60e51b815260206004820181905260248201527f4f776e61626c653a2063616c6c6572206973206e6f7420746865206f776e65726044820152606401610a5a565b600d546001600160a01b038381169116141561230e5760405162461bcd60e51b815260206004820152601460248201527f43616e6e6f742062652043414b4520746f6b656e0000000000000000000000006044820152606401610a5a565b6123226001600160a01b0383163383613c52565b604080516001600160a01b0384168152602081018390527f74545154aac348a3eac92596bd1971957ca94795f4e954ec5f613b55fab78129910160405180910390a15050565b6001546001600160a01b031633148061238b57506002546001600160a01b031633145b6123d75760405162461bcd60e51b815260206004820152601560248201527f4e6f74206f776e6572206f7220696e6a6563746f7200000000000000000000006044820152606401610a5a565b60016000838152600f602052604090205460ff16600481111561240a57634e487b7160e01b600052602160045260246000fd5b1461244a5760405162461bcd60e51b815260206004820152601060248201526f2637ba3a32b93c903737ba1037b832b760811b6044820152606401610a5a565b600d54612462906001600160a01b0316333084613ab9565b6000828152600f602052604081206006018054839290612483908490614642565b909155505060405181815282907f1bbd659dd628a25f7ff2eabb69c74a56939c539728282275c1c9c1a2d3e340499060200160405180910390a25050565b600060036000848152600f602052604090205460ff1660048111156124f657634e487b7160e01b600052602160045260246000fd5b1461250357506000612250565b61250d8383613c87565b9392505050565b6001546001600160a01b0316331461256e5760405162461bcd60e51b815260206004820181905260248201527f4f776e61626c653a2063616c6c6572206973206e6f7420746865206f776e65726044820152606401610a5a565b806125bb5760405162461bcd60e51b815260206004820152600b60248201527f4d757374206265203e20300000000000000000000000000000000000000000006044820152606401610a5a565b600955565b6001546001600160a01b0316331461261a5760405162461bcd60e51b815260206004820181905260248201527f4f776e61626c653a2063616c6c6572206973206e6f7420746865206f776e65726044820152606401610a5a565b6126246000613d44565b565b6015602052816000526040600020818154811061264257600080fd5b9060005260206000209060089182820401919006600402915091509054906101000a900463ffffffff1681565b333b156126b55760405162461bcd60e51b815260206004820152601460248201527310dbdb9d1c9858dd081b9bdd08185b1b1bddd95960621b6044820152606401610a5a565b3332146127045760405162461bcd60e51b815260206004820152601a60248201527f50726f787920636f6e7472616374206e6f7420616c6c6f7765640000000000006044820152606401610a5a565b600260005414156127575760405162461bcd60e51b815260206004820152601f60248201527f5265656e7472616e637947756172643a207265656e7472616e742063616c6c006044820152606401610a5a565b600260005560036000828152600f602052604090205460ff16600481111561278f57634e487b7160e01b600052602160045260246000fd5b146127dc5760405162461bcd60e51b815260206004820152601560248201527f4c6f7474657279206e6f7420636c61696d61626c6500000000000000000000006044820152606401610a5a565b336000908152601760209081526040808320848452909152812054815b8181101561292257336000908152601760209081526040808320878452909152812080548390811061283b57634e487b7160e01b600052603260045260246000fd5b600091825260209091206001600290920201015460ff166129025733600090815260176020908152604080832088845290915290208054600191908490811061289457634e487b7160e01b600052603260045260246000fd5b60009182526020808320600292909202909101600101805460ff191693151593909317909255338152601782526040808220888352909252208054839081106128ed57634e487b7160e01b600052603260045260246000fd5b90600052602060002090600202016000015490505b61290c8185614642565b935050808061291a906146d0565b9150506127f9565b50816129705760405162461bcd60e51b815260206004820152601b60248201527f4e6f207265776172647320666f722074686973206c6f747465727900000000006044820152606401610a5a565b600d5460405163a9059cbb60e01b8152336004820152602481018490526001600160a01b039091169063a9059cbb90604401602060405180830381600087803b1580156129bc57600080fd5b505af11580156129d0573d6000803e3d6000fd5b505050506040513d601f19601f820116820180604052508101906129f49190614224565b5060408051338152602081018490527f962bc326c7b063c70721a63687e0e19450155f93c58eca94769746c0cfb02c5d910161159a565b6060808260008167ffffffffffffffff811115612a5857634e487b7160e01b600052604160045260246000fd5b604051908082528060200260200182016040528015612a81578160200160208202803683370190505b50905060008267ffffffffffffffff811115612aad57634e487b7160e01b600052604160045260246000fd5b604051908082528060200260200182016040528015612ad6578160200160208202803683370190505b50905060005b83811015612c385760106000898984818110612b0857634e487b7160e01b600052603260045260246000fd5b90506020020135815260200190815260200160002060000160009054906101000a900463ffffffff16838281518110612b5157634e487b7160e01b600052603260045260246000fd5b63ffffffff9092166020928302919091019091015260006010818a8a85818110612b8b57634e487b7160e01b600052603260045260246000fd5b602090810292909201358352508101919091526040016000205464010000000090046001600160a01b03161415612bf3576001828281518110612bde57634e487b7160e01b600052603260045260246000fd5b91151560209283029190910190910152612c26565b6000828281518110612c1557634e487b7160e01b600052603260045260246000fd5b911515602092830291909101909101525b80612c30816146d0565b915050612adc565b509093509150505b9250929050565b60166020528160005260406000208181548110612c6357600080fd5b90600052602060002001600091509150505481565b60606000600e60009054906101000a90046001600160a01b03166001600160a01b031663a1c4f55a6040518163ffffffff1660e01b815260040160206040518083038186803b158015612cca57600080fd5b505afa158015612cde573d6000803e3d6000fd5b505050506040513d601f19601f82011682018060405250810190612d0291906143c8565b600e546040516321d2cebf60e21b815263ffffffff92909216600483018190526024830186905292506000916001600160a01b039091169063874b3afc9060440160006040518083038186803b158015612d5b57600080fd5b505afa158015612d6f573d6000803e3d6000fd5b505050506040513d6000823e601f3d908101601f19168201604052612d979190810190614164565b949350505050565b6001546001600160a01b03163314612df95760405162461bcd60e51b815260206004820181905260248201527f4f776e61626c653a2063616c6c6572206973206e6f7420746865206f776e65726044820152606401610a5a565b6005541580612e3b575060036005546000908152600f602052604090205460ff166004811115612e3957634e487b7160e01b600052602160045260246000fd5b145b612e875760405162461bcd60e51b815260206004820152601860248201527f4c6f7474657279206e6f7420696e20636c61696d61626c6500000000000000006044820152606401610a5a565b806001600160a01b031663b37217a4600554600654604051602001612eb6929190918252602082015260400190565b60408051808303601f1901815290829052805160209091012060e083901b6001600160e01b03191682526004820152602401600060405180830381600087803b158015612f0257600080fd5b505af1158015612f16573d6000803e3d6000fd5b50505050806001600160a01b031663a1c4f55a6040518163ffffffff1660e01b815260040160206040518083038186803b158015612f5357600080fd5b505afa158015612f67573d6000803e3d6000fd5b505050506040513d601f19601f82011682018060405250810190612f8b91906143c8565b50600e805473ffffffffffffffffffffffffffffffffffffffff19166001600160a01b0383169081179091556040517f383f8cb39dfa7c3fb901a460dd449ea924868f0a92ff03da64740fffa5f1de6290600090a250565b6003546001600160a01b0316331461302c5760405162461bcd60e51b815260206004820152600c60248201526b2737ba1037b832b930ba37b960a11b6044820152606401610a5a565b6002600054141561307f5760405162461bcd60e51b815260206004820152601f60248201527f5265656e7472616e637947756172643a207265656e7472616e742063616c6c006044820152606401610a5a565b600260005560016000828152600f602052604090205460ff1660048111156130b757634e487b7160e01b600052602160045260246000fd5b146130f75760405162461bcd60e51b815260206004820152601060248201526f2637ba3a32b93c903737ba1037b832b760811b6044820152606401610a5a565b6000818152600f602052604090206002015442116131575760405162461bcd60e51b815260206004820152601060248201527f4c6f7474657279206e6f74206f766572000000000000000000000000000000006044820152606401610a5a565b6006546000828152600f60205260409020600581019190915560098101546008909101541061323557600e546006546040516001600160a01b039092169163b37217a4916131b391859190602001918252602082015260400190565b60408051808303601f1901815290829052805160209091012060e083901b6001600160e01b03191682526004820152602401600060405180830381600087803b1580156131ff57600080fd5b505af1158015613213573d6000803e3d6000fd5b5050506000828152600f60205260409020805460ff191660021790555061324f565b6000818152600f60205260409020805460ff191660041790555b807f3728e75294796694d59d2ffced9c394279baf7b9ebd2702db43f5f04bac6792960065460405161328391815260200190565b60405180910390a2506001600055565b600060016132a183856146eb565b61250d919061468d565b60008181526016602090815260409182902080548351818402810184019094528084526060939283018282801561330157602002820191906000526020600020905b8154815260200190600101908083116132ed575b50505050509050919050565b6001546001600160a01b031633146133675760405162461bcd60e51b815260206004820181905260248201527f4f776e61626c653a2063616c6c6572206973206e6f7420746865206f776e65726044820152606401610a5a565b6001600160a01b0383166133bd5760405162461bcd60e51b815260206004820152601660248201527f43616e6e6f74206265207a65726f2061646472657373000000000000000000006044820152606401610a5a565b6001600160a01b0382166134135760405162461bcd60e51b815260206004820152601660248201527f43616e6e6f74206265207a65726f2061646472657373000000000000000000006044820152606401610a5a565b6001600160a01b0381166134695760405162461bcd60e51b815260206004820152601660248201527f43616e6e6f74206265207a65726f2061646472657373000000000000000000006044820152606401610a5a565b600380546001600160a01b0385811673ffffffffffffffffffffffffffffffffffffffff19928316811790935560048054868316908416811790915560028054928616929093168217909255604080519384526020840192909252908201527f3e945b7660001d46cfd5e729545f7f0b6c65bdee54066a91c7acad703f1b731e9060600160405180910390a1505050565b6001546001600160a01b031633146135545760405162461bcd60e51b815260206004820181905260248201527f4f776e61626c653a2063616c6c6572206973206e6f7420746865206f776e65726044820152606401610a5a565b808211156135a45760405162461bcd60e51b815260206004820152601b60248201527f6d696e5072696365206d757374206265203c206d6178507269636500000000006044820152606401610a5a565b600b91909155600a55565b333b156135f55760405162461bcd60e51b815260206004820152601460248201527310dbdb9d1c9858dd081b9bdd08185b1b1bddd95960621b6044820152606401610a5a565b3332146136445760405162461bcd60e51b815260206004820152601a60248201527f50726f787920636f6e7472616374206e6f7420616c6c6f7765640000000000006044820152606401610a5a565b600260005414156136975760405162461bcd60e51b815260206004820152601f60248201527f5265656e7472616e637947756172643a207265656e7472616e742063616c6c006044820152606401610a5a565b6002600055806136e95760405162461bcd60e51b815260206004820152601160248201527f4c656e677468206d757374206265203e300000000000000000000000000000006044820152606401610a5a565b60095481111561372e5760405162461bcd60e51b815260206004820152601060248201526f546f6f206d616e79207469636b65747360801b6044820152606401610a5a565b60036000848152600f602052604090205460ff16600481111561376157634e487b7160e01b600052602160045260246000fd5b146137ae5760405162461bcd60e51b815260206004820152601560248201527f4c6f7474657279206e6f7420636c61696d61626c6500000000000000000000006044820152606401610a5a565b6000805b828110156138f05760008484838181106137dc57634e487b7160e01b600052603260045260246000fd5b905060200201359050600060075490506000805b828110156138cd576000818152601160205260409020600101548414801561383157506000818152601160205260409020600301546001600160a01b031633145b801561384a575060008181526011602052604090205489145b801561386f5750600081815260116020526040902060030154600160a01b900460ff16155b156138bb5760008181526011602052604090206002810154600390910180547fffffffffffffffffffffff00ffffffffffffffffffffffffffffffffffffffff16600160a01b17905591505b806138c5816146d0565b9150506137f0565b506138d88186614642565b945050505080806138e8906146d0565b9150506137b2565b508061393e5760405162461bcd60e51b815260206004820152601960248201527f4e6f207072697a6520666f722074686973206c6f7474657279000000000000006044820152606401610a5a565b600d54613955906001600160a01b03163383613c52565b6040805182815260208101849052859133917f0f5fca62da8fb5d95525b49e5eaa7b20bc6bd9e2f6b64b493442d1c0bd6ef486910160405180910390a3505060016000555050565b6001546001600160a01b031633146139f75760405162461bcd60e51b815260206004820181905260248201527f4f776e61626c653a2063616c6c6572206973206e6f7420746865206f776e65726044820152606401610a5a565b6001600160a01b038116613a735760405162461bcd60e51b815260206004820152602660248201527f4f776e61626c653a206e6577206f776e657220697320746865207a65726f206160448201527f64647265737300000000000000000000000000000000000000000000000000006064820152608401610a5a565b613a7c81613d44565b50565b600061250d8284614642565b600061250d828461466e565b6000612d97612710613ab386613aad8787613a8b565b90613a8b565b90613da3565b6040516001600160a01b0380851660248301528316604482015260648101829052613b399085906323b872dd60e01b906084015b60408051601f198184030181529190526020810180517bffffffffffffffffffffffffffffffffffffffffffffffffffffffff166001600160e01b031990931692909217909152613daf565b50505050565b6000818152601560205260408120546060918167ffffffffffffffff811115613b7857634e487b7160e01b600052604160045260246000fd5b604051908082528060200260200182016040528015613ba1578160200160208202803683370190505b50905060005b82811015613c4a576000858152601560205260409020805482908110613bdd57634e487b7160e01b600052603260045260246000fd5b90600052602060002090600891828204019190066004029054906101000a900463ffffffff16828281518110613c2357634e487b7160e01b600052603260045260246000fd5b63ffffffff9092166020928302919091019091015280613c42816146d0565b915050613ba7565b509392505050565b6040516001600160a01b038316602482015260448101829052613c8290849063a9059cbb60e01b90606401613aed565b505050565b60075460009081805b82811015613d3b5760008181526011602052604090206001015485148015613cd157506000818152601160205260409020600301546001600160a01b031633145b8015613cea575060008181526011602052604090205486145b8015613d0f5750600081815260116020526040902060030154600160a01b900460ff16155b15613d295760008181526011602052604090206002015491505b80613d33816146d0565b915050613c90565b50949350505050565b600180546001600160a01b0383811673ffffffffffffffffffffffffffffffffffffffff19831681179093556040519116919082907f8be0079c531659141344cd1fd0a4f28419497f9722a3daafe3b4186f6b6457e090600090a35050565b600061250d828461465a565b6000613e04826040518060400160405280602081526020017f5361666545524332303a206c6f772d6c6576656c2063616c6c206661696c6564815250856001600160a01b0316613e949092919063ffffffff16565b805190915015613c825780806020019051810190613e229190614224565b613c825760405162461bcd60e51b815260206004820152602a60248201527f5361666545524332303a204552433230206f7065726174696f6e20646964206e60448201527f6f742073756363656564000000000000000000000000000000000000000000006064820152608401610a5a565b6060612d978484600085856001600160a01b0385163b613ef65760405162461bcd60e51b815260206004820152601d60248201527f416464726573733a2063616c6c20746f206e6f6e2d636f6e74726163740000006044820152606401610a5a565b600080866001600160a01b03168587604051613f1291906144a6565b60006040518083038185875af1925050503d8060008114613f4f576040519150601f19603f3d011682016040523d82523d6000602084013e613f54565b606091505b5091509150613f64828286613f6f565b979650505050505050565b60608315613f7e57508161250d565b825115613f8e5782518084602001fd5b8160405162461bcd60e51b8152600401610a5a919061454e565b828054828255906000526020600020908101928215613fe3579160200282015b82811115613fe3578251825591602001919060010190613fc8565b50613fef929150613ff3565b5090565b5b80821115613fef5760008155600101613ff4565b80356001600160a01b038116811461401f57600080fd5b919050565b60008083601f840112614035578081fd5b50813567ffffffffffffffff81111561404c578182fd5b6020830191508360208260051b8501011115612c4057600080fd5b600060208284031215614078578081fd5b61250d82614008565b600080600060608486031215614095578182fd5b61409e84614008565b92506140ac60208501614008565b91506140ba60408501614008565b90509250925092565b600080604083850312156140d5578182fd5b6140de83614008565b946020939093013593505050565b60008060008060808587031215614101578081fd5b61410a85614008565b966020860135965060408601359560600135945092505050565b60008060208385031215614136578182fd5b823567ffffffffffffffff81111561414c578283fd5b61415885828601614024565b90969095509350505050565b60006020808385031215614176578182fd5b825167ffffffffffffffff8082111561418d578384fd5b818501915085601f8301126141a0578384fd5b8151818111156141b2576141b261472b565b8060051b604051601f19603f830116810181811085821117156141d7576141d761472b565b604052828152858101935084860182860187018a10156141f5578788fd5b8795505b838610156142175780518552600195909501949386019386016141f9565b5098975050505050505050565b600060208284031215614235578081fd5b8151801515811461250d578182fd5b600060208284031215614255578081fd5b5035919050565b60006020828403121561426d578081fd5b5051919050565b600080600060408486031215614288578283fd5b83359250602084013567ffffffffffffffff8111156142a5578283fd5b6142b186828701614024565b9497909650939450505050565b600080600080606085870312156142d3578384fd5b84359350602085013567ffffffffffffffff8111156142f0578384fd5b6142fc87828801614024565b909450925061430f905060408601614008565b905092959194509250565b6000806040838503121561432c578182fd5b50508035926020909101359150565b600080600080600080600060c0888a031215614355578283fd5b87359650602088013595506040880135945060608801359350608088013567ffffffffffffffff811115614387578384fd5b6143938a828b01614024565b989b979a5095989497959660a090950135949350505050565b6000602082840312156143bd578081fd5b813561250d81614741565b6000602082840312156143d9578081fd5b815161250d81614741565b6000815180845260208085019450808401835b838110156144155781511515875295820195908201906001016143f7565b509495945050505050565b6000815180845260208085019450808401835b8381101561441557815187529582019590820190600101614433565b6000815180845260208085019450808401835b8381101561441557815163ffffffff1687529582019590820190600101614462565b600581106144a257634e487b7160e01b600052602160045260246000fd5b9052565b600082516144b88184602087016146a4565b9190910192915050565b60208152600061250d6020830184614420565b6080815260006144e86080830187614420565b82810360208401526144fa818761444f565b9050828103604084015261450e81866143e4565b91505082606083015295945050505050565b604081526000614533604083018561444f565b828103602084015261454581856143e4565b95945050505050565b602081526000825180602084015261456d8160408501602087016146a4565b601f01601f19169190910160400192915050565b60208152614593602082018351614484565b602082015160408201526040820151606082015260608201516080820152608082015160a082015260a082015160c082015260c082015160e0820152600060e08301516101006145ea8185018363ffffffff169052565b8401516101208481019190915284015161014080850191909152840151610160808501919091528401516101a0610180808601829052919250906146326101c0860184614420565b9501519301929092525090919050565b60008219821115614655576146556146ff565b500190565b60008261466957614669614715565b500490565b6000816000190483118215151615614688576146886146ff565b500290565b60008282101561469f5761469f6146ff565b500390565b60005b838110156146bf5781810151838201526020016146a7565b83811115613b395750506000910152565b60006000198214156146e4576146e46146ff565b5060010190565b6000826146fa576146fa614715565b500690565b634e487b7160e01b600052601160045260246000fd5b634e487b7160e01b600052601260045260246000fd5b634e487b7160e01b600052604160045260246000fd5b63ffffffff81168114613a7c57600080fdfea164736f6c6343000804000a",
  "linkReferences": {},
  "deployedLinkReferences": {}
}