{
  "_format": "hh-sol-artifact-1",
  "contractName": "PancakeSwapLottery",
  "sourceName": "contracts/PancakeSwapLottery.sol",
  "abi": [
    {
      "inputs": [
        {
          "internalType": "address",
          "name": "_busdTokenAddress",
          "type": "address"
        },
        {
          "internalType": "address",
          "name": "_randomGeneratorAddress",
          "type": "address"
        }
      ],
      "stateMutability": "nonpayable",
      "type": "constructor"
    },
    {
      "anonymous": false,
      "inputs": [
        {
          "indexed": false,
          "internalType": "address",
          "name": "token",
          "type": "address"
        },
        {
          "indexed": false,
          "internalType": "uint256",
          "name": "amount",
          "type": "uint256"
        }
      ],
      "name": "AdminTokenRecovery",
      "type": "event"
    },
    {
      "anonymous": false,
      "inputs": [
        {
          "indexed": false,
          "internalType": "address",
          "name": "claimer",
          "type": "address"
        },
        {
          "indexed": false,
          "internalType": "uint256",
          "name": "amount",
          "type": "uint256"
        }
      ],
      "name": "DistributeRewards",
      "type": "event"
    },
    {
      "anonymous": false,
      "inputs": [
        {
          "indexed": true,
          "internalType": "uint256",
          "name": "lotteryId",
          "type": "uint256"
        },
        {
          "indexed": false,
          "internalType": "uint256",
          "name": "firstTicketIdNextLottery",
          "type": "uint256"
        }
      ],
      "name": "LotteryClose",
      "type": "event"
    },
    {
      "anonymous": false,
      "inputs": [
        {
          "indexed": true,
          "internalType": "uint256",
          "name": "lotteryId",
          "type": "uint256"
        },
        {
          "indexed": false,
          "internalType": "uint256",
          "name": "injectedAmount",
          "type": "uint256"
        }
      ],
      "name": "LotteryInjection",
      "type": "event"
    },
    {
      "anonymous": false,
      "inputs": [
        {
          "indexed": true,
          "internalType": "uint256",
          "name": "lotteryId",
          "type": "uint256"
        },
        {
          "indexed": false,
          "internalType": "uint256",
          "name": "finalNumber",
          "type": "uint256"
        },
        {
          "indexed": false,
          "internalType": "uint256",
          "name": "countWinningTickets",
          "type": "uint256"
        }
      ],
      "name": "LotteryNumberDrawn",
      "type": "event"
    },
    {
      "anonymous": false,
      "inputs": [
        {
          "indexed": true,
          "internalType": "uint256",
          "name": "lotteryId",
          "type": "uint256"
        },
        {
          "indexed": false,
          "internalType": "uint256",
          "name": "startTime",
          "type": "uint256"
        },
        {
          "indexed": false,
          "internalType": "uint256",
          "name": "endTime",
          "type": "uint256"
        },
        {
          "indexed": false,
          "internalType": "uint256",
          "name": "priceTicketInBusd",
          "type": "uint256"
        },
        {
          "indexed": false,
          "internalType": "uint256",
          "name": "firstTicketId",
          "type": "uint256"
        },
        {
          "indexed": false,
          "internalType": "uint256",
          "name": "injectedAmount",
          "type": "uint256"
        }
      ],
      "name": "LotteryOpen",
      "type": "event"
    },
    {
      "anonymous": false,
      "inputs": [
        {
          "indexed": false,
          "internalType": "address",
          "name": "operator",
          "type": "address"
        },
        {
          "indexed": false,
          "internalType": "address",
          "name": "treasury",
          "type": "address"
        },
        {
          "indexed": false,
          "internalType": "address",
          "name": "injector",
          "type": "address"
        }
      ],
      "name": "NewOperatorAndTreasuryAndInjectorAddresses",
      "type": "event"
    },
    {
      "anonymous": false,
      "inputs": [
        {
          "indexed": true,
          "internalType": "address",
          "name": "randomGenerator",
          "type": "address"
        }
      ],
      "name": "NewRandomGenerator",
      "type": "event"
    },
    {
      "anonymous": false,
      "inputs": [
        {
          "indexed": true,
          "internalType": "address",
          "name": "previousOwner",
          "type": "address"
        },
        {
          "indexed": true,
          "internalType": "address",
          "name": "newOwner",
          "type": "address"
        }
      ],
      "name": "OwnershipTransferred",
      "type": "event"
    },
    {
      "anonymous": false,
      "inputs": [
        {
          "indexed": false,
          "internalType": "address",
          "name": "owner",
          "type": "address"
        },
        {
          "indexed": false,
          "internalType": "uint256",
          "name": "amount",
          "type": "uint256"
        }
      ],
      "name": "ReturnFunds",
      "type": "event"
    },
    {
      "anonymous": false,
      "inputs": [
        {
          "indexed": true,
          "internalType": "address",
          "name": "claimer",
          "type": "address"
        },
        {
          "indexed": false,
          "internalType": "uint256",
          "name": "amount",
          "type": "uint256"
        },
        {
          "indexed": true,
          "internalType": "uint256",
          "name": "lotteryId",
          "type": "uint256"
        },
        {
          "indexed": false,
          "internalType": "uint256",
          "name": "numberTickets",
          "type": "uint256"
        }
      ],
      "name": "TicketsClaim",
      "type": "event"
    },
    {
      "anonymous": false,
      "inputs": [
        {
          "indexed": true,
          "internalType": "address",
          "name": "buyer",
          "type": "address"
        },
        {
          "indexed": true,
          "internalType": "uint256",
          "name": "lotteryId",
          "type": "uint256"
        },
        {
          "indexed": false,
          "internalType": "uint256",
          "name": "numberTickets",
          "type": "uint256"
        }
      ],
      "name": "TicketsPurchase",
      "type": "event"
    },
    {
      "inputs": [],
      "name": "MAX_LENGTH_LOTTERY",
      "outputs": [
        {
          "internalType": "uint256",
          "name": "",
          "type": "uint256"
        }
      ],
      "stateMutability": "view",
      "type": "function"
    },
    {
      "inputs": [],
      "name": "MAX_REFERRAL_FEE",
      "outputs": [
        {
          "internalType": "uint256",
          "name": "",
          "type": "uint256"
        }
      ],
      "stateMutability": "view",
      "type": "function"
    },
    {
      "inputs": [],
      "name": "MIN_LENGTH_LOTTERY",
      "outputs": [
        {
          "internalType": "uint256",
          "name": "",
          "type": "uint256"
        }
      ],
      "stateMutability": "view",
      "type": "function"
    },
    {
      "inputs": [
        {
          "internalType": "uint256",
          "name": "",
          "type": "uint256"
        }
      ],
      "name": "_winners",
      "outputs": [
        {
          "internalType": "uint256",
          "name": "lotteryId",
          "type": "uint256"
        },
        {
          "internalType": "uint256",
          "name": "ticket",
          "type": "uint256"
        },
        {
          "internalType": "uint256",
          "name": "prize",
          "type": "uint256"
        },
        {
          "internalType": "address",
          "name": "owner",
          "type": "address"
        },
        {
          "internalType": "bool",
          "name": "claimed",
          "type": "bool"
        }
      ],
      "stateMutability": "view",
      "type": "function"
    },
    {
      "inputs": [],
      "name": "busdToken",
      "outputs": [
        {
          "internalType": "contract IERC20",
          "name": "",
          "type": "address"
        }
      ],
      "stateMutability": "view",
      "type": "function"
    },
    {
      "inputs": [
        {
          "internalType": "uint256",
          "name": "_lotteryId",
          "type": "uint256"
        },
        {
          "internalType": "uint32[]",
          "name": "_ticketNumbers",
          "type": "uint32[]"
        },
        {
          "internalType": "address",
          "name": "_referral",
          "type": "address"
        }
      ],
      "name": "buyTickets",
      "outputs": [],
      "stateMutability": "nonpayable",
      "type": "function"
    },
    {
      "inputs": [
        {
          "internalType": "address",
          "name": "_randomGeneratorAddress",
          "type": "address"
        }
      ],
      "name": "changeRandomGenerator",
      "outputs": [],
      "stateMutability": "nonpayable",
      "type": "function"
    },
    {
      "inputs": [
        {
          "internalType": "uint256",
          "name": "_lotteryId",
          "type": "uint256"
        },
        {
          "internalType": "uint256[]",
          "name": "_ticketNumbers",
          "type": "uint256[]"
        }
      ],
      "name": "claimTickets",
      "outputs": [],
      "stateMutability": "nonpayable",
      "type": "function"
    },
    {
      "inputs": [
        {
          "internalType": "uint256",
          "name": "_lotteryId",
          "type": "uint256"
        }
      ],
      "name": "closeLottery",
      "outputs": [],
      "stateMutability": "nonpayable",
      "type": "function"
    },
    {
      "inputs": [],
      "name": "currentLotteryId",
      "outputs": [
        {
          "internalType": "uint256",
          "name": "",
          "type": "uint256"
        }
      ],
      "stateMutability": "view",
      "type": "function"
    },
    {
      "inputs": [],
      "name": "currentRewardId",
      "outputs": [
        {
          "internalType": "uint256",
          "name": "",
          "type": "uint256"
        }
      ],
      "stateMutability": "view",
      "type": "function"
    },
    {
      "inputs": [],
      "name": "currentTicketId",
      "outputs": [
        {
          "internalType": "uint256",
          "name": "",
          "type": "uint256"
        }
      ],
      "stateMutability": "view",
      "type": "function"
    },
    {
      "inputs": [],
      "name": "currentWinnerId",
      "outputs": [
        {
          "internalType": "uint256",
          "name": "",
          "type": "uint256"
        }
      ],
      "stateMutability": "view",
      "type": "function"
    },
    {
      "inputs": [
        {
          "internalType": "uint256",
          "name": "_lotteryId",
          "type": "uint256"
        }
      ],
      "name": "distributeReferralRewards",
      "outputs": [],
      "stateMutability": "nonpayable",
      "type": "function"
    },
    {
      "inputs": [
        {
          "internalType": "uint256",
          "name": "_lotteryId",
          "type": "uint256"
        }
      ],
      "name": "drawAndMakeLotteryClaimable",
      "outputs": [],
      "stateMutability": "nonpayable",
      "type": "function"
    },
    {
      "inputs": [],
      "name": "getWinningTickets",
      "outputs": [
        {
          "components": [
            {
              "internalType": "uint256",
              "name": "lotteryId",
              "type": "uint256"
            },
            {
              "internalType": "uint256",
              "name": "ticket",
              "type": "uint256"
            },
            {
              "internalType": "uint256",
              "name": "prize",
              "type": "uint256"
            },
            {
              "internalType": "address",
              "name": "owner",
              "type": "address"
            },
            {
              "internalType": "bool",
              "name": "claimed",
              "type": "bool"
            }
          ],
          "internalType": "struct PancakeSwapLottery.Winners[]",
          "name": "",
          "type": "tuple[]"
        }
      ],
      "stateMutability": "view",
      "type": "function"
    },
    {
      "inputs": [
        {
          "internalType": "uint256",
          "name": "_lotteryId",
          "type": "uint256"
        },
        {
          "internalType": "address",
          "name": "user",
          "type": "address"
        }
      ],
      "name": "hasAmountToWithdraw",
      "outputs": [
        {
          "internalType": "uint256",
          "name": "",
          "type": "uint256"
        },
        {
          "internalType": "uint256",
          "name": "",
          "type": "uint256"
        }
      ],
      "stateMutability": "view",
      "type": "function"
    },
    {
      "inputs": [
        {
          "internalType": "uint256",
          "name": "_lotteryId",
          "type": "uint256"
        },
        {
          "internalType": "address",
          "name": "user",
          "type": "address"
        }
      ],
      "name": "hasReferralRewardsToClaim",
      "outputs": [
        {
          "internalType": "uint256",
          "name": "",
          "type": "uint256"
        }
      ],
      "stateMutability": "view",
      "type": "function"
    },
    {
      "inputs": [
        {
          "internalType": "uint256",
          "name": "_lotteryId",
          "type": "uint256"
        },
        {
          "internalType": "uint256",
          "name": "_amount",
          "type": "uint256"
        }
      ],
      "name": "injectFunds",
      "outputs": [],
      "stateMutability": "nonpayable",
      "type": "function"
    },
    {
      "inputs": [],
      "name": "injectorAddress",
      "outputs": [
        {
          "internalType": "address",
          "name": "",
          "type": "address"
        }
      ],
      "stateMutability": "view",
      "type": "function"
    },
    {
      "inputs": [],
      "name": "maxNumberTicketsPerBuyOrClaim",
      "outputs": [
        {
          "internalType": "uint256",
          "name": "",
          "type": "uint256"
        }
      ],
      "stateMutability": "view",
      "type": "function"
    },
    {
      "inputs": [],
      "name": "maxPriceTicketInBusd",
      "outputs": [
        {
          "internalType": "uint256",
          "name": "",
          "type": "uint256"
        }
      ],
      "stateMutability": "view",
      "type": "function"
    },
    {
      "inputs": [],
      "name": "minPriceTicketInBusd",
      "outputs": [
        {
          "internalType": "uint256",
          "name": "",
          "type": "uint256"
        }
      ],
      "stateMutability": "view",
      "type": "function"
    },
    {
      "inputs": [],
      "name": "operatorAddress",
      "outputs": [
        {
          "internalType": "address",
          "name": "",
          "type": "address"
        }
      ],
      "stateMutability": "view",
      "type": "function"
    },
    {
      "inputs": [],
      "name": "owner",
      "outputs": [
        {
          "internalType": "address",
          "name": "",
          "type": "address"
        }
      ],
      "stateMutability": "view",
      "type": "function"
    },
    {
      "inputs": [],
      "name": "pendingInjectionNextLottery",
      "outputs": [
        {
          "internalType": "uint256",
          "name": "",
          "type": "uint256"
        }
      ],
      "stateMutability": "view",
      "type": "function"
    },
    {
      "inputs": [],
      "name": "randomGenerator",
      "outputs": [
        {
          "internalType": "contract IRandomNumberGenerator",
          "name": "",
          "type": "address"
        }
      ],
      "stateMutability": "view",
      "type": "function"
    },
    {
      "inputs": [
        {
          "internalType": "address",
          "name": "_tokenAddress",
          "type": "address"
        },
        {
          "internalType": "uint256",
          "name": "_tokenAmount",
          "type": "uint256"
        }
      ],
      "name": "recoverWrongTokens",
      "outputs": [],
      "stateMutability": "nonpayable",
      "type": "function"
    },
    {
      "inputs": [],
      "name": "renounceOwnership",
      "outputs": [],
      "stateMutability": "nonpayable",
      "type": "function"
    },
    {
      "inputs": [
        {
          "internalType": "uint256",
          "name": "_maxNumberTicketsPerBuy",
          "type": "uint256"
        }
      ],
      "name": "setMaxNumberTicketsPerBuy",
      "outputs": [],
      "stateMutability": "nonpayable",
      "type": "function"
    },
    {
      "inputs": [
        {
          "internalType": "uint256",
          "name": "_minPriceTicketInBusd",
          "type": "uint256"
        },
        {
          "internalType": "uint256",
          "name": "_maxPriceTicketInBusd",
          "type": "uint256"
        }
      ],
      "name": "setMinAndMaxTicketPriceInBusd",
      "outputs": [],
      "stateMutability": "nonpayable",
      "type": "function"
    },
    {
      "inputs": [
        {
          "internalType": "address",
          "name": "_operatorAddress",
          "type": "address"
        },
        {
          "internalType": "address",
          "name": "_treasuryAddress",
          "type": "address"
        },
        {
          "internalType": "address",
          "name": "_injectorAddress",
          "type": "address"
        }
      ],
      "name": "setOperatorAndTreasuryAndInjectorAddresses",
      "outputs": [],
      "stateMutability": "nonpayable",
      "type": "function"
    },
    {
      "inputs": [
        {
          "internalType": "uint256",
          "name": "_endTime",
          "type": "uint256"
        },
        {
          "internalType": "uint256",
          "name": "_priceTicketInBusd",
          "type": "uint256"
        },
        {
          "internalType": "uint256",
          "name": "_minTicketsToSell",
          "type": "uint256"
        },
        {
          "internalType": "uint256",
          "name": "_maxTicketsToSell",
          "type": "uint256"
        },
        {
          "internalType": "uint256[]",
          "name": "_prizes",
          "type": "uint256[]"
        },
        {
          "internalType": "uint256",
          "name": "_referralReward",
          "type": "uint256"
        }
      ],
      "name": "startLottery",
      "outputs": [],
      "stateMutability": "nonpayable",
      "type": "function"
    },
    {
      "inputs": [
        {
          "internalType": "address",
          "name": "newOwner",
          "type": "address"
        }
      ],
      "name": "transferOwnership",
      "outputs": [],
      "stateMutability": "nonpayable",
      "type": "function"
    },
    {
      "inputs": [],
      "name": "treasuryAddress",
      "outputs": [
        {
          "internalType": "address",
          "name": "",
          "type": "address"
        }
      ],
      "stateMutability": "view",
      "type": "function"
    },
    {
      "inputs": [],
      "name": "viewCurrentLotteryId",
      "outputs": [
        {
          "internalType": "uint256",
          "name": "",
          "type": "uint256"
        }
      ],
      "stateMutability": "view",
      "type": "function"
    },
    {
      "inputs": [
        {
          "internalType": "uint256",
          "name": "_lotteryId",
          "type": "uint256"
        }
      ],
      "name": "viewLottery",
      "outputs": [
        {
          "components": [
            {
              "internalType": "enum PancakeSwapLottery.Status",
              "name": "status",
              "type": "uint8"
            },
            {
              "internalType": "uint256",
              "name": "startTime",
              "type": "uint256"
            },
            {
              "internalType": "uint256",
              "name": "endTime",
              "type": "uint256"
            },
            {
              "internalType": "uint256",
              "name": "priceTicketInBusd",
              "type": "uint256"
            },
            {
              "internalType": "uint256",
              "name": "firstTicketId",
              "type": "uint256"
            },
            {
              "internalType": "uint256",
              "name": "firstTicketIdNextLottery",
              "type": "uint256"
            },
            {
              "internalType": "uint256",
              "name": "amountCollectedInBusd",
              "type": "uint256"
            },
            {
              "internalType": "uint32",
              "name": "finalNumber",
              "type": "uint32"
            },
            {
              "internalType": "uint256",
              "name": "ticketsSold",
              "type": "uint256"
            },
            {
              "internalType": "uint256",
              "name": "minTicketsToSell",
              "type": "uint256"
            },
            {
              "internalType": "uint256",
              "name": "maxTicketsToSell",
              "type": "uint256"
            },
            {
              "internalType": "uint256[]",
              "name": "prizes",
              "type": "uint256[]"
            },
            {
              "internalType": "uint256",
              "name": "referralReward",
              "type": "uint256"
            }
          ],
          "internalType": "struct PancakeSwapLottery.Lottery",
          "name": "",
          "type": "tuple"
        }
      ],
      "stateMutability": "view",
      "type": "function"
    },
    {
      "inputs": [
        {
          "internalType": "uint256[]",
          "name": "_ticketIds",
          "type": "uint256[]"
        }
      ],
      "name": "viewNumbersAndStatusesForTicketIds",
      "outputs": [
        {
          "internalType": "uint32[]",
          "name": "",
          "type": "uint32[]"
        },
        {
          "internalType": "bool[]",
          "name": "",
          "type": "bool[]"
        }
      ],
      "stateMutability": "view",
      "type": "function"
    },
    {
      "inputs": [
        {
          "internalType": "uint256",
          "name": "_lotteryId",
          "type": "uint256"
        },
        {
          "internalType": "uint256",
          "name": "_ticketNumber",
          "type": "uint256"
        }
      ],
      "name": "viewRewardsForTicketNumber",
      "outputs": [
        {
          "internalType": "uint256",
          "name": "",
          "type": "uint256"
        }
      ],
      "stateMutability": "view",
      "type": "function"
    },
    {
      "inputs": [
        {
          "internalType": "address",
          "name": "_user",
          "type": "address"
        },
        {
          "internalType": "uint256",
          "name": "_lotteryId",
          "type": "uint256"
        },
        {
          "internalType": "uint256",
          "name": "_cursor",
          "type": "uint256"
        },
        {
          "internalType": "uint256",
          "name": "_size",
          "type": "uint256"
        }
      ],
      "name": "viewUserInfoForLotteryId",
      "outputs": [
        {
          "internalType": "uint256[]",
          "name": "",
          "type": "uint256[]"
        },
        {
          "internalType": "uint32[]",
          "name": "",
          "type": "uint32[]"
        },
        {
          "internalType": "bool[]",
          "name": "",
          "type": "bool[]"
        },
        {
          "internalType": "uint256",
          "name": "",
          "type": "uint256"
        }
      ],
      "stateMutability": "view",
      "type": "function"
    },
    {
      "inputs": [
        {
          "internalType": "uint256",
          "name": "_lotteryId",
          "type": "uint256"
        }
      ],
      "name": "withdrawFunds",
      "outputs": [],
      "stateMutability": "nonpayable",
      "type": "function"
    }
  ],
  "bytecode": "0x608060405260646009556802b5e3af16b1880000600a556611c37937e08000600b553480156200002e57600080fd5b5060405162004b3b38038062004b3b833981016040819052620000519162000102565b6001600055620000613362000093565b600d80546001600160a01b039384166001600160a01b031991821617909155600e805492909316911617905562000139565b600180546001600160a01b038381166001600160a01b0319831681179093556040519116919082907f8be0079c531659141344cd1fd0a4f28419497f9722a3daafe3b4186f6b6457e090600090a35050565b80516001600160a01b0381168114620000fd57600080fd5b919050565b6000806040838503121562000115578182fd5b6200012083620000e5565b91506200013060208401620000e5565b90509250929050565b6149f280620001496000396000f3fe608060405234801561001057600080fd5b50600436106102d35760003560e01c8063805955a611610186578063b6c9a737116100e3578063dcbad90d11610097578063e8ae2edf11610071578063e8ae2edf14610598578063f2fde38b146105ab578063f6903411146105be57600080fd5b8063dcbad90d1461055f578063de0e701414610572578063e49eb0da1461058557600080fd5b8063d9f9061a116100c8578063d9f9061a14610539578063da4ca03914610542578063db19da0d1461055557600080fd5b8063b6c9a737146104fe578063c5f956af1461052657600080fd5b80639c3846531161013a578063a1f930561161011f578063a1f93056146104cd578063a4bfaddf146104e2578063b2186e8f146104eb57600080fd5b80639c384653146104a75780639d8ca531146104ba57600080fd5b80638da5cb5b1161016b5780638da5cb5b146104625780638fc3539a1461047357806398359fa11461049457600080fd5b8063805955a61461044757806380a061601461045a57600080fd5b80632423807a11610234578063542df708116101e85780636b873788116101cd5780636b873788146104235780636be4097c14610436578063715018a61461043f57600080fd5b8063542df70814610407578063686465b81461041a57600080fd5b80633d78a079116102195780633d78a079146103d85780633f138d4b146103e1578063471aeab4146103f457600080fd5b80632423807a146103a557806328ac7010146103c557600080fd5b8063155dd5ee1161028b5780631e61079c116102705780631e61079c146103805780631fe86c6b14610389578063203214ea1461039257600080fd5b8063155dd5ee1461036457806316aa3c781461037757600080fd5b806307fb5a9c116102bc57806307fb5a9c14610319578063127effb21461033057806312a9769d1461035b57600080fd5b806305531eeb146102d857806307720da314610304575b600080fd5b6102eb6102e63660046142ed565b61063b565b6040516102fb9493929190614767565b60405180910390f35b6103176103123660046144ea565b6109b3565b005b61032261371481565b6040519081526020016102fb565b600354610343906001600160a01b031681565b6040516001600160a01b0390911681526020016102fb565b610322600c5481565b610317610372366004614445565b61115d565b61032260075481565b61032261138881565b61032260095481565b6103176103a0366004614567565b6114aa565b6103b86103b3366004614445565b6118db565b6040516102fb9190614813565b6103176103d3366004614445565b611a99565b610322600a5481565b6103176103ef3660046142c4565b6120c7565b610317610402366004614546565b6121d9565b610322610415366004614546565b612332565b61032260065481565b610317610431366004614445565b6123c5565b61032260055481565b610317612471565b610317610455366004614445565b6124d7565b600554610322565b6001546001600160a01b0316610343565b610486610481366004614325565b612896565b6040516102fb9291906147b2565b6103176104a2366004614268565b612ab2565b600254610343906001600160a01b031681565b6103176104c8366004614445565b612cf6565b6104d5612fc7565b6040516102fb91906146ee565b61032260085481565b6103226104f9366004614475565b613114565b61051161050c366004614475565b6132a4565b604080519283526020830191909152016102fb565b600454610343906001600160a01b031681565b610322600b5481565b610317610550366004614282565b61344d565b6103226283d72c81565b600e54610343906001600160a01b031681565b600d54610343906001600160a01b031681565b6103176105933660046144a0565b61363a565b6103176105a6366004614546565b613a28565b6103176105b9366004614268565b613add565b6106086105cc366004614445565b6011602052600090815260409020805460018201546002830154600390930154919290916001600160a01b03811690600160a01b900460ff1685565b604080519586526020860194909452928401919091526001600160a01b031660608301521515608082015260a0016102fb565b6001600160a01b038416600090815260136020908152604080832086845290915281205460609182918291908590610673888261491f565b82111561068757610684888261491f565b91505b60008267ffffffffffffffff8111156106b057634e487b7160e01b600052604160045260246000fd5b6040519080825280602002602001820160405280156106d9578160200160208202803683370190505b50905060008367ffffffffffffffff81111561070557634e487b7160e01b600052604160045260246000fd5b60405190808252806020026020018201604052801561072e578160200160208202803683370190505b50905060008467ffffffffffffffff81111561075a57634e487b7160e01b600052604160045260246000fd5b604051908082528060200260200182016040528015610783578160200160208202803683370190505b50905060005b8581101561098d57601360008f6001600160a01b03166001600160a01b0316815260200190815260200160002060008e81526020019081526020016000208c826107d391906148d4565b815481106107f157634e487b7160e01b600052603260045260246000fd5b906000526020600020015484828151811061081c57634e487b7160e01b600052603260045260246000fd5b6020026020010181815250506010600085838151811061084c57634e487b7160e01b600052603260045260246000fd5b6020026020010151815260200190815260200160002060000160009054906101000a900463ffffffff1683828151811061089657634e487b7160e01b600052603260045260246000fd5b602002602001019063ffffffff16908163ffffffff168152505060006001600160a01b0316601060008684815181106108df57634e487b7160e01b600052603260045260246000fd5b60209081029190910181015182528101919091526040016000205464010000000090046001600160a01b0316141561094857600182828151811061093357634e487b7160e01b600052603260045260246000fd5b9115156020928302919091019091015261097b565b600082828151811061096a57634e487b7160e01b600052603260045260246000fd5b911515602092830291909101909101525b8061098581614962565b915050610789565b5082828261099b888f6148d4565b98509850985098505050505050945094509450949050565b333b156109fe5760405162461bcd60e51b815260206004820152601460248201527310dbdb9d1c9858dd081b9bdd08185b1b1bddd95960621b60448201526064015b60405180910390fd5b333214610a4d5760405162461bcd60e51b815260206004820152601a60248201527f50726f787920636f6e7472616374206e6f7420616c6c6f77656400000000000060448201526064016109f5565b60026000541415610aa05760405162461bcd60e51b815260206004820152601f60248201527f5265656e7472616e637947756172643a207265656e7472616e742063616c6c0060448201526064016109f5565b600260005581610af25760405162461bcd60e51b815260206004820152601360248201527f4e6f207469636b6574207370656369666965640000000000000000000000000060448201526064016109f5565b600954821115610b375760405162461bcd60e51b815260206004820152601060248201526f546f6f206d616e79207469636b65747360801b60448201526064016109f5565b60016000858152600f602052604090205460ff166004811115610b6a57634e487b7160e01b600052602160045260246000fd5b14610bb75760405162461bcd60e51b815260206004820152601360248201527f4c6f7474657279206973206e6f74206f70656e0000000000000000000000000060448201526064016109f5565b6000848152600f60205260409020600201544210610c175760405162461bcd60e51b815260206004820152600f60248201527f4c6f7474657279206973206f766572000000000000000000000000000000000060448201526064016109f5565b6000848152600f60205260409020600a8101546008909101541115610c915760405162461bcd60e51b815260206004820152602a60248201527f4d6178696d756d206e756d626572206f66206c6f7474657279207469636b65746044820152691cc8195e18d95959195960b21b60648201526084016109f5565b6000848152600f6020526040812060080154610cad9084613bbf565b6000868152600f60205260409020600a0154909150811115610d245760405162461bcd60e51b815260206004820152602a60248201527f4d6178696d756d206e756d626572206f66206c6f7474657279207469636b65746044820152691cc8195e18d95959195960b21b60648201526084016109f5565b6000858152600f6020526040812060030154610d409085613bcb565b6000878152600f60205260408120600c8101546003909101549293509091610d69919087613bd7565b600d54909150610d84906001600160a01b0316333085613bf7565b336001600160a01b03851614610df9576001600160a01b03841660009081526015602090815260408083208a845282528083208151808301909252848252818301848152815460018082018455928652939094209151600290930290910191825591519101805460ff19169115159190911790555b6000878152600f602052604081206006018054849290610e1a9084906148d4565b90915550600090505b85811015611117576000878783818110610e4d57634e487b7160e01b600052603260045260246000fd5b9050602002016020810190610e6291906145d8565b9050620f42408163ffffffff1610158015610e865750621e847f8163ffffffff1611155b610ed25760405162461bcd60e51b815260206004820152600d60248201527f4f7574736964652072616e67650000000000000000000000000000000000000060448201526064016109f5565b600089815260146020908152604080832063ffffffff8516845290915290205460ff1615610f685760405162461bcd60e51b815260206004820152603c60248201527f5469636b657420616c726561647920736f6c642c2063686f6f736520616e6f7460448201527f686572206e756d62657220616e642074727920697420616761696e2e0000000060648201526084016109f5565b6001601460008b815260200190815260200160002060008363ffffffff16815260200190815260200160002060006101000a81548160ff02191690831515021790555060136000336001600160a01b03166001600160a01b0316815260200190815260200160002060008a8152602001908152602001600020600654908060018154018082558091505060019003906000526020600020016000909190919091505560405180606001604052808263ffffffff168152602001336001600160a01b031681526020016001151581525060106000600654815260200190815260200160002060008201518160000160006101000a81548163ffffffff021916908363ffffffff16021790555060208201518160000160046101000a8154816001600160a01b0302191690836001600160a01b0316021790555060408201518160000160186101000a81548160ff021916908315150217905550905050600660008154809291906110d690614962565b90915550506000898152600f602052604081206008018054600192906110fd9084906148d4565b9091555082915061110f905081614962565b915050610e23565b50604051858152879033907fd7d247b583de1023852eef87b48f54354dbec771d01bc2cc49e96094efc322b99060200160405180910390a3505060016000555050505050565b333b156111a35760405162461bcd60e51b815260206004820152601460248201527310dbdb9d1c9858dd081b9bdd08185b1b1bddd95960621b60448201526064016109f5565b3332146111f25760405162461bcd60e51b815260206004820152601a60248201527f50726f787920636f6e7472616374206e6f7420616c6c6f77656400000000000060448201526064016109f5565b600260005414156112455760405162461bcd60e51b815260206004820152601f60248201527f5265656e7472616e637947756172643a207265656e7472616e742063616c6c0060448201526064016109f5565b600260005560046000828152600f602052604090205460ff16600481111561127d57634e487b7160e01b600052602160045260246000fd5b146112ca5760405162461bcd60e51b815260206004820152601460248201527f4c6f747465727920697320636c61696d61626c6500000000000000000000000060448201526064016109f5565b336000908152601360209081526040808320848452909152812054815b818110156113f257336000908152601360209081526040808320878452909152812080548291908490811061132c57634e487b7160e01b600052603260045260246000fd5b6000918252602080832090910154808352601090915260409091205490915064010000000090046001600160a01b0316331480156113845750600081815260106020526040902054600160c01b900460ff1615156001145b156113d157600081815260106020908152604080832080547fffffffffffffff00ffffffffffffffffffffffffffffffffffffffffffffffff169055888352600f90915290206003015491505b6113db82866148d4565b9450505080806113ea90614962565b9150506112e7565b506000821161144f5760405162461bcd60e51b8152602060048201526024808201527f4e6f20616d6f756e7420746f2072657475726e20666f722074686973206c6f746044820152637465727960e01b60648201526084016109f5565b600d54611466906001600160a01b03163384613c7d565b60408051338152602081018490527ff8b026935c2d27799fd0d371c6695492c8de099c04ee9281ca03f935790d6b4191015b60405180910390a15050600160005550565b6003546001600160a01b031633146114f35760405162461bcd60e51b815260206004820152600c60248201526b2737ba1037b832b930ba37b960a11b60448201526064016109f5565b6005541580611535575060036005546000908152600f602052604090205460ff16600481111561153357634e487b7160e01b600052602160045260246000fd5b145b80611573575060046005546000908152600f602052604090205460ff16600481111561157157634e487b7160e01b600052602160045260246000fd5b145b6115bf5760405162461bcd60e51b815260206004820152601960248201527f4e6f742074696d6520746f207374617274206c6f74746572790000000000000060448201526064016109f5565b6137146115cc428961491f565b1180156115e457506283d72c6115e2428961491f565b105b6116305760405162461bcd60e51b815260206004820152601f60248201527f4c6f7474657279206c656e677468206f757473696465206f662072616e67650060448201526064016109f5565b600b5486101580156116445750600a548611155b6116905760405162461bcd60e51b815260206004820152601160248201527f4f757473696465206f66206c696d69747300000000000000000000000000000060448201526064016109f5565b6113888111156116e25760405162461bcd60e51b815260206004820152601560248201527f526566657272616c2066656520746f6f2068696768000000000000000000000060448201526064016109f5565b600580549060006116f283614962565b9091555050604080516101a08101909152806001815260200142815260200188815260200187815260200160065481526020016006548152602001600c548152602001600063ffffffff16815260200160008152602001868152602001858152602001848480806020026020016040519081016040528093929190818152602001838360200280828437600092018290525093855250505060209182018490526005548152600f9091526040902081518154829060ff191660018360048111156117cc57634e487b7160e01b600052602160045260246000fd5b0217905550602082810151600183015560408301516002830155606083015160038301556080830151600483015560a0830151600583015560c0830151600683015560e083015160078301805463ffffffff191663ffffffff90921691909117905561010083015160088301556101208301516009830155610140830151600a830155610160830151805161186792600b85019201906141a9565b506101809190910151600c91820155600554600654915460408051428152602081018c90529081018a905260608101939093526080830152907f367e70f8c0e0c0a6504d92172bda155c02022d532fc85b5d66a9c49e31c8bc779060a00160405180910390a250506000600c555050505050565b61194d604080516101a081019091528060008152602001600081526020016000815260200160008152602001600081526020016000815260200160008152602001600063ffffffff16815260200160008152602001600081526020016000815260200160608152602001600081525090565b6000828152600f60205260409081902081516101a081019092528054829060ff16600481111561198d57634e487b7160e01b600052602160045260246000fd5b60048111156119ac57634e487b7160e01b600052602160045260246000fd5b81526020016001820154815260200160028201548152602001600382015481526020016004820154815260200160058201548152602001600682015481526020016007820160009054906101000a900463ffffffff1663ffffffff1663ffffffff1681526020016008820154815260200160098201548152602001600a8201548152602001600b8201805480602002602001604051908101604052809291908181526020018280548015611a7f57602002820191906000526020600020905b815481526020019060010190808311611a6b575b50505050508152602001600c820154815250509050919050565b6003546001600160a01b03163314611ae25760405162461bcd60e51b815260206004820152600c60248201526b2737ba1037b832b930ba37b960a11b60448201526064016109f5565b60026000541415611b355760405162461bcd60e51b815260206004820152601f60248201527f5265656e7472616e637947756172643a207265656e7472616e742063616c6c0060448201526064016109f5565b60026000818155828152600f602052604090205460ff166004811115611b6b57634e487b7160e01b600052602160045260246000fd5b14611bb85760405162461bcd60e51b815260206004820152601160248201527f4c6f7474657279206e6f7420636c6f736500000000000000000000000000000060448201526064016109f5565b600e60009054906101000a90046001600160a01b03166001600160a01b031663fbe5d9176040518163ffffffff1660e01b815260040160206040518083038186803b158015611c0657600080fd5b505afa158015611c1a573d6000803e3d6000fd5b505050506040513d601f19601f82011682018060405250810190611c3e919061445d565b8114611c8c5760405162461bcd60e51b815260206004820152601160248201527f4e756d62657273206e6f7420647261776e00000000000000000000000000000060448201526064016109f5565b6000818152600f60209081526040808320600b0154600e5482516350e27aad60e11b815292518594929385936001600160a01b039093169263a1c4f55a92600480840193829003018186803b158015611ce457600080fd5b505afa158015611cf8573d6000803e3d6000fd5b505050506040513d601f19601f82011682018060405250810190611d1c91906145f4565b600e546040516321d2cebf60e21b815263ffffffff83166004820152602481018590529192506000916001600160a01b039091169063874b3afc9060440160006040518083038186803b158015611d7257600080fd5b505afa158015611d86573d6000803e3d6000fd5b505050506040513d6000823e601f3d908101601f19168201604052611dae9190810190614365565b6000878152600f60205260408120600801549192505b84811015611fc3576000600183858481518110611df157634e487b7160e01b600052603260045260246000fd5b6020026020010151611e03919061497d565b611e0d919061491f565b90506000611e1b8a83613cb2565b90506000818381518110611e3f57634e487b7160e01b600052603260045260246000fd5b60200260200101519050600f60008c8152602001908152602001600020600b018481548110611e7e57634e487b7160e01b600052603260045260246000fd5b906000526020600020015489611e9491906148d4565b6040805160a0810182528d81526000848152601060209081528382205463ffffffff16818401528f8252600f9052829020600b018054939c5090929183019187908110611ef157634e487b7160e01b600052603260045260246000fd5b60009182526020808320909101548352848252601081526040808320546001600160a01b0364010000000090910481168584015293810183905260078054845260118352818420865181559286015160018401559085015160028301556060850151600390920180546080909601511515600160a01b027fffffffffffffffffffffff00000000000000000000000000000000000000000090961692909416919091179390931790915581549190611fa883614962565b91905055505050508080611fbb90614962565b915050611dc4565b506000878152600f6020526040812060078101805463ffffffff191663ffffffff87161790558054600360ff1990911681178255600c8201549082015460089092015461202a926127109261202492909161201e9190613bcb565b90613bcb565b90613e88565b6000898152600f6020526040902060060154909150819061204c90889061491f565b612056919061491f565b600454600d54919850612076916001600160a01b03908116911689613c7d565b6005546040805163ffffffff87168152602081018890527f98e31a6607b8b15b4d5b91de54f4c09ffe4c4cf162aa532c70b5213754e2e703910160405180910390a250506001600055505050505050565b6001546001600160a01b031633146121215760405162461bcd60e51b815260206004820181905260248201527f4f776e61626c653a2063616c6c6572206973206e6f7420746865206f776e657260448201526064016109f5565b600d546001600160a01b038381169116141561217f5760405162461bcd60e51b815260206004820152601460248201527f43616e6e6f74206265204255534420746f6b656e00000000000000000000000060448201526064016109f5565b6121936001600160a01b0383163383613c7d565b604080516001600160a01b0384168152602081018390527f74545154aac348a3eac92596bd1971957ca94795f4e954ec5f613b55fab78129910160405180910390a15050565b6001546001600160a01b03163314806121fc57506002546001600160a01b031633145b6122485760405162461bcd60e51b815260206004820152601560248201527f4e6f74206f776e6572206f7220696e6a6563746f72000000000000000000000060448201526064016109f5565b60016000838152600f602052604090205460ff16600481111561227b57634e487b7160e01b600052602160045260246000fd5b146122bb5760405162461bcd60e51b815260206004820152601060248201526f2637ba3a32b93c903737ba1037b832b760811b60448201526064016109f5565b600d546122d3906001600160a01b0316333084613bf7565b6000828152600f6020526040812060060180548392906122f49084906148d4565b909155505060405181815282907f1bbd659dd628a25f7ff2eabb69c74a56939c539728282275c1c9c1a2d3e340499060200160405180910390a25050565b600060036000848152600f602052604090205460ff16600481111561236757634e487b7160e01b600052602160045260246000fd5b14612374575060006123bf565b6000838152600f6020526040902060050154821180156123a557506000838152600f60205260409020600401548211155b156123b2575060006123bf565b6123bc8383613e94565b90505b92915050565b6001546001600160a01b0316331461241f5760405162461bcd60e51b815260206004820181905260248201527f4f776e61626c653a2063616c6c6572206973206e6f7420746865206f776e657260448201526064016109f5565b8061246c5760405162461bcd60e51b815260206004820152600b60248201527f4d757374206265203e203000000000000000000000000000000000000000000060448201526064016109f5565b600955565b6001546001600160a01b031633146124cb5760405162461bcd60e51b815260206004820181905260248201527f4f776e61626c653a2063616c6c6572206973206e6f7420746865206f776e657260448201526064016109f5565b6124d56000613f51565b565b333b1561251d5760405162461bcd60e51b815260206004820152601460248201527310dbdb9d1c9858dd081b9bdd08185b1b1bddd95960621b60448201526064016109f5565b33321461256c5760405162461bcd60e51b815260206004820152601a60248201527f50726f787920636f6e7472616374206e6f7420616c6c6f77656400000000000060448201526064016109f5565b600260005414156125bf5760405162461bcd60e51b815260206004820152601f60248201527f5265656e7472616e637947756172643a207265656e7472616e742063616c6c0060448201526064016109f5565b600260005560036000828152600f602052604090205460ff1660048111156125f757634e487b7160e01b600052602160045260246000fd5b146126445760405162461bcd60e51b815260206004820152601560248201527f4c6f7474657279206e6f7420636c61696d61626c65000000000000000000000060448201526064016109f5565b336000908152601560209081526040808320848452909152812054815b8181101561278a5733600090815260156020908152604080832087845290915281208054839081106126a357634e487b7160e01b600052603260045260246000fd5b600091825260209091206001600290920201015460ff1661276a573360009081526015602090815260408083208884529091529020805460019190849081106126fc57634e487b7160e01b600052603260045260246000fd5b60009182526020808320600292909202909101600101805460ff1916931515939093179092553381526015825260408082208883529092522080548390811061275557634e487b7160e01b600052603260045260246000fd5b90600052602060002090600202016000015490505b61277481856148d4565b935050808061278290614962565b915050612661565b50600082116127db5760405162461bcd60e51b815260206004820152601b60248201527f4e6f207265776172647320666f722074686973206c6f7474657279000000000060448201526064016109f5565b600d5460405163a9059cbb60e01b8152336004820152602481018490526001600160a01b039091169063a9059cbb90604401602060405180830381600087803b15801561282757600080fd5b505af115801561283b573d6000803e3d6000fd5b505050506040513d601f19601f8201168201806040525081019061285f9190614425565b5060408051338152602081018490527f962bc326c7b063c70721a63687e0e19450155f93c58eca94769746c0cfb02c5d9101611498565b6060808260008167ffffffffffffffff8111156128c357634e487b7160e01b600052604160045260246000fd5b6040519080825280602002602001820160405280156128ec578160200160208202803683370190505b50905060008267ffffffffffffffff81111561291857634e487b7160e01b600052604160045260246000fd5b604051908082528060200260200182016040528015612941578160200160208202803683370190505b50905060005b83811015612aa3576010600089898481811061297357634e487b7160e01b600052603260045260246000fd5b90506020020135815260200190815260200160002060000160009054906101000a900463ffffffff168382815181106129bc57634e487b7160e01b600052603260045260246000fd5b63ffffffff9092166020928302919091019091015260006010818a8a858181106129f657634e487b7160e01b600052603260045260246000fd5b602090810292909201358352508101919091526040016000205464010000000090046001600160a01b03161415612a5e576001828281518110612a4957634e487b7160e01b600052603260045260246000fd5b91151560209283029190910190910152612a91565b6000828281518110612a8057634e487b7160e01b600052603260045260246000fd5b911515602092830291909101909101525b80612a9b81614962565b915050612947565b509093509150505b9250929050565b6001546001600160a01b03163314612b0c5760405162461bcd60e51b815260206004820181905260248201527f4f776e61626c653a2063616c6c6572206973206e6f7420746865206f776e657260448201526064016109f5565b6005541580612b4e575060036005546000908152600f602052604090205460ff166004811115612b4c57634e487b7160e01b600052602160045260246000fd5b145b612b9a5760405162461bcd60e51b815260206004820152601860248201527f4c6f7474657279206e6f7420696e20636c61696d61626c65000000000000000060448201526064016109f5565b806001600160a01b031663b37217a4600554600654604051602001612bc9929190918252602082015260400190565b60408051808303601f1901815290829052805160209091012060e083901b6001600160e01b03191682526004820152602401600060405180830381600087803b158015612c1557600080fd5b505af1158015612c29573d6000803e3d6000fd5b50505050806001600160a01b031663a1c4f55a6040518163ffffffff1660e01b815260040160206040518083038186803b158015612c6657600080fd5b505afa158015612c7a573d6000803e3d6000fd5b505050506040513d601f19601f82011682018060405250810190612c9e91906145f4565b50600e805473ffffffffffffffffffffffffffffffffffffffff19166001600160a01b0383169081179091556040517f383f8cb39dfa7c3fb901a460dd449ea924868f0a92ff03da64740fffa5f1de6290600090a250565b6003546001600160a01b03163314612d3f5760405162461bcd60e51b815260206004820152600c60248201526b2737ba1037b832b930ba37b960a11b60448201526064016109f5565b60026000541415612d925760405162461bcd60e51b815260206004820152601f60248201527f5265656e7472616e637947756172643a207265656e7472616e742063616c6c0060448201526064016109f5565b600260005560016000828152600f602052604090205460ff166004811115612dca57634e487b7160e01b600052602160045260246000fd5b14612e0a5760405162461bcd60e51b815260206004820152601060248201526f2637ba3a32b93c903737ba1037b832b760811b60448201526064016109f5565b6000818152600f6020526040902060020154421180612e3f57506000818152600f60205260409020600a810154600890910154145b612e8b5760405162461bcd60e51b815260206004820152601060248201527f4c6f7474657279206e6f74206f7665720000000000000000000000000000000060448201526064016109f5565b6006546000828152600f602052604090206005810191909155600981015460089091015410612f6957600e546006546040516001600160a01b039092169163b37217a491612ee791859190602001918252602082015260400190565b60408051808303601f1901815290829052805160209091012060e083901b6001600160e01b03191682526004820152602401600060405180830381600087803b158015612f3357600080fd5b505af1158015612f47573d6000803e3d6000fd5b5050506000828152600f60205260409020805460ff1916600217905550612f83565b6000818152600f60205260409020805460ff191660041790555b807f3728e75294796694d59d2ffced9c394279baf7b9ebd2702db43f5f04bac67929600654604051612fb791815260200190565b60405180910390a2506001600055565b6060600060075467ffffffffffffffff811115612ff457634e487b7160e01b600052604160045260246000fd5b60405190808252806020026020018201604052801561306257816020015b61304f6040518060a0016040528060008152602001600081526020016000815260200160006001600160a01b031681526020016000151581525090565b8152602001906001900390816130125790505b50905060005b60075481101561310e57600081815260116020908152604091829020825160a081018452815481526001820154928101929092526002810154928201929092526003909101546001600160a01b0381166060830152600160a01b900460ff161515608082015282518390839081106130f057634e487b7160e01b600052603260045260246000fd5b6020026020010181905250808061310690614962565b915050613068565b50919050565b600060036000848152600f602052604090205460ff16600481111561314957634e487b7160e01b600052602160045260246000fd5b146131965760405162461bcd60e51b815260206004820152601560248201527f4c6f7474657279206e6f7420636c61696d61626c65000000000000000000000060448201526064016109f5565b6001600160a01b0382166000908152601560209081526040808320868452909152812054815b8181101561329a576001600160a01b0385166000908152601560209081526040808320898452909152812080548390811061320757634e487b7160e01b600052603260045260246000fd5b600091825260209091206001600290920201015460ff1661327a576001600160a01b03861660009081526015602090815260408083208a8452909152902080548390811061326557634e487b7160e01b600052603260045260246000fd5b90600052602060002090600202016000015490505b61328481856148d4565b935050808061329290614962565b9150506131bc565b5090949350505050565b60008060046000858152600f602052604090205460ff1660048111156132da57634e487b7160e01b600052602160045260246000fd5b146133275760405162461bcd60e51b815260206004820152601c60248201527f4c6f74746572792073746174757320213d20756e7265616c697a65640000000060448201526064016109f5565b6001600160a01b038316600090815260136020908152604080832087845290915281205481805b82811015613440576001600160a01b03871660009081526013602090815260408083208b8452909152812080548291908490811061339c57634e487b7160e01b600052603260045260246000fd5b6000918252602080832090910154808352601090915260409091205490915064010000000090046001600160a01b03908116908a161480156133f85750600081815260106020526040902054600160c01b900460ff1615156001145b1561341f5760008a8152600f6020526040902060030154915061341c6001856148d4565b93505b61342982876148d4565b95505050808061343890614962565b91505061334e565b5096919550909350505050565b6001546001600160a01b031633146134a75760405162461bcd60e51b815260206004820181905260248201527f4f776e61626c653a2063616c6c6572206973206e6f7420746865206f776e657260448201526064016109f5565b6001600160a01b0383166134fd5760405162461bcd60e51b815260206004820152601660248201527f43616e6e6f74206265207a65726f20616464726573730000000000000000000060448201526064016109f5565b6001600160a01b0382166135535760405162461bcd60e51b815260206004820152601660248201527f43616e6e6f74206265207a65726f20616464726573730000000000000000000060448201526064016109f5565b6001600160a01b0381166135a95760405162461bcd60e51b815260206004820152601660248201527f43616e6e6f74206265207a65726f20616464726573730000000000000000000060448201526064016109f5565b600380546001600160a01b0385811673ffffffffffffffffffffffffffffffffffffffff19928316811790935560048054868316908416811790915560028054928616929093168217909255604080519384526020840192909252908201527f3e945b7660001d46cfd5e729545f7f0b6c65bdee54066a91c7acad703f1b731e9060600160405180910390a1505050565b333b156136805760405162461bcd60e51b815260206004820152601460248201527310dbdb9d1c9858dd081b9bdd08185b1b1bddd95960621b60448201526064016109f5565b3332146136cf5760405162461bcd60e51b815260206004820152601a60248201527f50726f787920636f6e7472616374206e6f7420616c6c6f77656400000000000060448201526064016109f5565b600260005414156137225760405162461bcd60e51b815260206004820152601f60248201527f5265656e7472616e637947756172643a207265656e7472616e742063616c6c0060448201526064016109f5565b6002600055806137745760405162461bcd60e51b815260206004820152601160248201527f4c656e677468206d757374206265203e3000000000000000000000000000000060448201526064016109f5565b6009548111156137b95760405162461bcd60e51b815260206004820152601060248201526f546f6f206d616e79207469636b65747360801b60448201526064016109f5565b60036000848152600f602052604090205460ff1660048111156137ec57634e487b7160e01b600052602160045260246000fd5b146138395760405162461bcd60e51b815260206004820152601560248201527f4c6f7474657279206e6f7420636c61696d61626c65000000000000000000000060448201526064016109f5565b6000805b8281101561397b57600084848381811061386757634e487b7160e01b600052603260045260246000fd5b905060200201359050600060075490506000805b8281101561395857600081815260116020526040902060010154841480156138bc57506000818152601160205260409020600301546001600160a01b031633145b80156138d5575060008181526011602052604090205489145b80156138fa5750600081815260116020526040902060030154600160a01b900460ff16155b156139465760008181526011602052604090206002810154600390910180547fffffffffffffffffffffff00ffffffffffffffffffffffffffffffffffffffff16600160a01b17905591505b8061395081614962565b91505061387b565b5061396381866148d4565b9450505050808061397390614962565b91505061383d565b50806139c95760405162461bcd60e51b815260206004820152601960248201527f4e6f207072697a6520666f722074686973206c6f74746572790000000000000060448201526064016109f5565b600d546139e0906001600160a01b03163383613c7d565b6040805182815260208101849052859133917f0f5fca62da8fb5d95525b49e5eaa7b20bc6bd9e2f6b64b493442d1c0bd6ef486910160405180910390a3505060016000555050565b6001546001600160a01b03163314613a825760405162461bcd60e51b815260206004820181905260248201527f4f776e61626c653a2063616c6c6572206973206e6f7420746865206f776e657260448201526064016109f5565b80821115613ad25760405162461bcd60e51b815260206004820152601b60248201527f6d696e5072696365206d757374206265203c206d61785072696365000000000060448201526064016109f5565b600b91909155600a55565b6001546001600160a01b03163314613b375760405162461bcd60e51b815260206004820181905260248201527f4f776e61626c653a2063616c6c6572206973206e6f7420746865206f776e657260448201526064016109f5565b6001600160a01b038116613bb35760405162461bcd60e51b815260206004820152602660248201527f4f776e61626c653a206e6577206f776e657220697320746865207a65726f206160448201527f646472657373000000000000000000000000000000000000000000000000000060648201526084016109f5565b613bbc81613f51565b50565b60006123bc82846148d4565b60006123bc8284614900565b6000613bed6127106120248661201e8787613bcb565b90505b9392505050565b6040516001600160a01b0380851660248301528316604482015260648101829052613c779085906323b872dd60e01b906084015b60408051601f198184030181529190526020810180517bffffffffffffffffffffffffffffffffffffffffffffffffffffffff166001600160e01b031990931692909217909152613fb0565b50505050565b6040516001600160a01b038316602482015260448101829052613cad90849063a9059cbb60e01b90606401613c2b565b505050565b6000828152600f602052604081206004810154600590910154606092613cd8838361491f565b905060008167ffffffffffffffff811115613d0357634e487b7160e01b600052604160045260246000fd5b604051908082528060200260200182016040528015613d2c578160200160208202803683370190505b5090506000845b84811015613d875780838381518110613d5c57634e487b7160e01b600052603260045260246000fd5b602090810291909101015281613d7181614962565b9250508080613d7f90614962565b915050613d33565b5060005b8251811015613e7b576000818451613da3919061491f565b613dad908a61497d565b613db790836148d4565b90506000848281518110613ddb57634e487b7160e01b600052603260045260246000fd5b60200260200101519050848381518110613e0557634e487b7160e01b600052603260045260246000fd5b6020026020010151858381518110613e2d57634e487b7160e01b600052603260045260246000fd5b60200260200101818152505080858481518110613e5a57634e487b7160e01b600052603260045260246000fd5b60200260200101818152505050508080613e7390614962565b915050613d8b565b5090979650505050505050565b60006123bc82846148ec565b60075460009081805b82811015613f485760008181526011602052604090206001015485148015613ede57506000818152601160205260409020600301546001600160a01b031633145b8015613ef7575060008181526011602052604090205486145b8015613f1c5750600081815260116020526040902060030154600160a01b900460ff16155b15613f365760008181526011602052604090206002015491505b80613f4081614962565b915050613e9d565b50949350505050565b600180546001600160a01b0383811673ffffffffffffffffffffffffffffffffffffffff19831681179093556040519116919082907f8be0079c531659141344cd1fd0a4f28419497f9722a3daafe3b4186f6b6457e090600090a35050565b6000614005826040518060400160405280602081526020017f5361666545524332303a206c6f772d6c6576656c2063616c6c206661696c6564815250856001600160a01b03166140959092919063ffffffff16565b805190915015613cad57808060200190518101906140239190614425565b613cad5760405162461bcd60e51b815260206004820152602a60248201527f5361666545524332303a204552433230206f7065726174696f6e20646964206e60448201527f6f7420737563636565640000000000000000000000000000000000000000000060648201526084016109f5565b6060613bed8484600085856001600160a01b0385163b6140f75760405162461bcd60e51b815260206004820152601d60248201527f416464726573733a2063616c6c20746f206e6f6e2d636f6e747261637400000060448201526064016109f5565b600080866001600160a01b0316858760405161411391906146d2565b60006040518083038185875af1925050503d8060008114614150576040519150601f19603f3d011682016040523d82523d6000602084013e614155565b606091505b5091509150614165828286614170565b979650505050505050565b6060831561417f575081613bf0565b82511561418f5782518084602001fd5b8160405162461bcd60e51b81526004016109f591906147e0565b8280548282559060005260206000209081019282156141e4579160200282015b828111156141e45782518255916020019190600101906141c9565b506141f09291506141f4565b5090565b5b808211156141f057600081556001016141f5565b80356001600160a01b038116811461422057600080fd5b919050565b60008083601f840112614236578081fd5b50813567ffffffffffffffff81111561424d578182fd5b6020830191508360208260051b8501011115612aab57600080fd5b600060208284031215614279578081fd5b6123bc82614209565b600080600060608486031215614296578182fd5b61429f84614209565b92506142ad60208501614209565b91506142bb60408501614209565b90509250925092565b600080604083850312156142d6578182fd5b6142df83614209565b946020939093013593505050565b60008060008060808587031215614302578081fd5b61430b85614209565b966020860135965060408601359560600135945092505050565b60008060208385031215614337578182fd5b823567ffffffffffffffff81111561434d578283fd5b61435985828601614225565b90969095509350505050565b60006020808385031215614377578182fd5b825167ffffffffffffffff8082111561438e578384fd5b818501915085601f8301126143a1578384fd5b8151818111156143b3576143b36149bd565b8060051b604051601f19603f830116810181811085821117156143d8576143d86149bd565b604052828152858101935084860182860187018a10156143f6578788fd5b8795505b838610156144185780518552600195909501949386019386016143fa565b5098975050505050505050565b600060208284031215614436578081fd5b81518015158114613bf0578182fd5b600060208284031215614456578081fd5b5035919050565b60006020828403121561446e578081fd5b5051919050565b60008060408385031215614487578182fd5b8235915061449760208401614209565b90509250929050565b6000806000604084860312156144b4578283fd5b83359250602084013567ffffffffffffffff8111156144d1578283fd5b6144dd86828701614225565b9497909650939450505050565b600080600080606085870312156144ff578384fd5b84359350602085013567ffffffffffffffff81111561451c578384fd5b61452887828801614225565b909450925061453b905060408601614209565b905092959194509250565b60008060408385031215614558578182fd5b50508035926020909101359150565b600080600080600080600060c0888a031215614581578485fd5b87359650602088013595506040880135945060608801359350608088013567ffffffffffffffff8111156145b3578384fd5b6145bf8a828b01614225565b989b979a5095989497959660a090950135949350505050565b6000602082840312156145e9578081fd5b8135613bf0816149d3565b600060208284031215614605578081fd5b8151613bf0816149d3565b6000815180845260208085019450808401835b83811015614641578151151587529582019590820190600101614623565b509495945050505050565b6000815180845260208085019450808401835b838110156146415781518752958201959082019060010161465f565b6000815180845260208085019450808401835b8381101561464157815163ffffffff168752958201959082019060010161468e565b600581106146ce57634e487b7160e01b600052602160045260246000fd5b9052565b600082516146e4818460208701614936565b9190910192915050565b602080825282518282018190526000919060409081850190868401855b8281101561475a57815180518552868101518786015285810151868601526060808201516001600160a01b03169086015260809081015115159085015260a0909301929085019060010161470b565b5091979650505050505050565b60808152600061477a608083018761464c565b828103602084015261478c818761467b565b905082810360408401526147a08186614610565b91505082606083015295945050505050565b6040815260006147c5604083018561467b565b82810360208401526147d78185614610565b95945050505050565b60208152600082518060208401526147ff816040850160208701614936565b601f01601f19169190910160400192915050565b602081526148256020820183516146b0565b602082015160408201526040820151606082015260608201516080820152608082015160a082015260a082015160c082015260c082015160e0820152600060e083015161010061487c8185018363ffffffff169052565b8401516101208481019190915284015161014080850191909152840151610160808501919091528401516101a0610180808601829052919250906148c46101c086018461464c565b9501519301929092525090919050565b600082198211156148e7576148e7614991565b500190565b6000826148fb576148fb6149a7565b500490565b600081600019048311821515161561491a5761491a614991565b500290565b60008282101561493157614931614991565b500390565b60005b83811015614951578181015183820152602001614939565b83811115613c775750506000910152565b600060001982141561497657614976614991565b5060010190565b60008261498c5761498c6149a7565b500690565b634e487b7160e01b600052601160045260246000fd5b634e487b7160e01b600052601260045260246000fd5b634e487b7160e01b600052604160045260246000fd5b63ffffffff81168114613bbc57600080fdfea164736f6c6343000804000a",
  "linkReferences": {},
  "deployedLinkReferences": {}
}