{
  "_format": "hh-sol-artifact-1",
  "contractName": "PancakeSwapLottery",
  "sourceName": "contracts/PancakeSwapLottery.sol",
  "abi": [
    {
      "inputs": [
        {
          "internalType": "address",
          "name": "_cakeTokenAddress",
          "type": "address"
        },
        {
          "internalType": "address",
          "name": "_randomGeneratorAddress",
          "type": "address"
        }
      ],
      "stateMutability": "nonpayable",
      "type": "constructor"
    },
    {
      "anonymous": false,
      "inputs": [
        {
          "indexed": false,
          "internalType": "address",
          "name": "token",
          "type": "address"
        },
        {
          "indexed": false,
          "internalType": "uint256",
          "name": "amount",
          "type": "uint256"
        }
      ],
      "name": "AdminTokenRecovery",
      "type": "event"
    },
    {
      "anonymous": false,
      "inputs": [
        {
          "indexed": true,
          "internalType": "uint256",
          "name": "lotteryId",
          "type": "uint256"
        },
        {
          "indexed": false,
          "internalType": "uint256",
          "name": "firstTicketIdNextLottery",
          "type": "uint256"
        }
      ],
      "name": "LotteryClose",
      "type": "event"
    },
    {
      "anonymous": false,
      "inputs": [
        {
          "indexed": true,
          "internalType": "uint256",
          "name": "lotteryId",
          "type": "uint256"
        },
        {
          "indexed": false,
          "internalType": "uint256",
          "name": "injectedAmount",
          "type": "uint256"
        }
      ],
      "name": "LotteryInjection",
      "type": "event"
    },
    {
      "anonymous": false,
      "inputs": [
        {
          "indexed": true,
          "internalType": "uint256",
          "name": "lotteryId",
          "type": "uint256"
        },
        {
          "indexed": false,
          "internalType": "uint256",
          "name": "finalNumber",
          "type": "uint256"
        },
        {
          "indexed": false,
          "internalType": "uint256",
          "name": "countWinningTickets",
          "type": "uint256"
        }
      ],
      "name": "LotteryNumberDrawn",
      "type": "event"
    },
    {
      "anonymous": false,
      "inputs": [
        {
          "indexed": true,
          "internalType": "uint256",
          "name": "lotteryId",
          "type": "uint256"
        },
        {
          "indexed": false,
          "internalType": "uint256",
          "name": "startTime",
          "type": "uint256"
        },
        {
          "indexed": false,
          "internalType": "uint256",
          "name": "endTime",
          "type": "uint256"
        },
        {
          "indexed": false,
          "internalType": "uint256",
          "name": "priceTicketInCake",
          "type": "uint256"
        },
        {
          "indexed": false,
          "internalType": "uint256",
          "name": "firstTicketId",
          "type": "uint256"
        },
        {
          "indexed": false,
          "internalType": "uint256",
          "name": "injectedAmount",
          "type": "uint256"
        }
      ],
      "name": "LotteryOpen",
      "type": "event"
    },
    {
      "anonymous": false,
      "inputs": [
        {
          "indexed": false,
          "internalType": "address",
          "name": "operator",
          "type": "address"
        },
        {
          "indexed": false,
          "internalType": "address",
          "name": "treasury",
          "type": "address"
        },
        {
          "indexed": false,
          "internalType": "address",
          "name": "injector",
          "type": "address"
        }
      ],
      "name": "NewOperatorAndTreasuryAndInjectorAddresses",
      "type": "event"
    },
    {
      "anonymous": false,
      "inputs": [
        {
          "indexed": true,
          "internalType": "address",
          "name": "randomGenerator",
          "type": "address"
        }
      ],
      "name": "NewRandomGenerator",
      "type": "event"
    },
    {
      "anonymous": false,
      "inputs": [
        {
          "indexed": true,
          "internalType": "address",
          "name": "previousOwner",
          "type": "address"
        },
        {
          "indexed": true,
          "internalType": "address",
          "name": "newOwner",
          "type": "address"
        }
      ],
      "name": "OwnershipTransferred",
      "type": "event"
    },
    {
      "anonymous": false,
      "inputs": [
        {
          "indexed": true,
          "internalType": "address",
          "name": "claimer",
          "type": "address"
        },
        {
          "indexed": false,
          "internalType": "uint256",
          "name": "amount",
          "type": "uint256"
        },
        {
          "indexed": true,
          "internalType": "uint256",
          "name": "lotteryId",
          "type": "uint256"
        },
        {
          "indexed": false,
          "internalType": "uint256",
          "name": "numberTickets",
          "type": "uint256"
        }
      ],
      "name": "TicketsClaim",
      "type": "event"
    },
    {
      "anonymous": false,
      "inputs": [
        {
          "indexed": true,
          "internalType": "address",
          "name": "buyer",
          "type": "address"
        },
        {
          "indexed": true,
          "internalType": "uint256",
          "name": "lotteryId",
          "type": "uint256"
        },
        {
          "indexed": false,
          "internalType": "uint256",
          "name": "numberTickets",
          "type": "uint256"
        }
      ],
      "name": "TicketsPurchase",
      "type": "event"
    },
    {
      "inputs": [],
      "name": "MAX_LENGTH_LOTTERY",
      "outputs": [
        {
          "internalType": "uint256",
          "name": "",
          "type": "uint256"
        }
      ],
      "stateMutability": "view",
      "type": "function"
    },
    {
      "inputs": [],
      "name": "MAX_TREASURY_FEE",
      "outputs": [
        {
          "internalType": "uint256",
          "name": "",
          "type": "uint256"
        }
      ],
      "stateMutability": "view",
      "type": "function"
    },
    {
      "inputs": [],
      "name": "MIN_DISCOUNT_DIVISOR",
      "outputs": [
        {
          "internalType": "uint256",
          "name": "",
          "type": "uint256"
        }
      ],
      "stateMutability": "view",
      "type": "function"
    },
    {
      "inputs": [],
      "name": "MIN_LENGTH_LOTTERY",
      "outputs": [
        {
          "internalType": "uint256",
          "name": "",
          "type": "uint256"
        }
      ],
      "stateMutability": "view",
      "type": "function"
    },
    {
      "inputs": [
        {
          "internalType": "uint256",
          "name": "_lotteryId",
          "type": "uint256"
        },
        {
          "internalType": "uint32[]",
          "name": "_ticketNumbers",
          "type": "uint32[]"
        }
      ],
      "name": "buyTickets",
      "outputs": [],
      "stateMutability": "nonpayable",
      "type": "function"
    },
    {
      "inputs": [],
      "name": "cakeToken",
      "outputs": [
        {
          "internalType": "contract IERC20",
          "name": "",
          "type": "address"
        }
      ],
      "stateMutability": "view",
      "type": "function"
    },
    {
      "inputs": [
        {
          "internalType": "uint256",
          "name": "_discountDivisor",
          "type": "uint256"
        },
        {
          "internalType": "uint256",
          "name": "_priceTicket",
          "type": "uint256"
        },
        {
          "internalType": "uint256",
          "name": "_numberTickets",
          "type": "uint256"
        }
      ],
      "name": "calculateTotalPriceForBulkTickets",
      "outputs": [
        {
          "internalType": "uint256",
          "name": "",
          "type": "uint256"
        }
      ],
      "stateMutability": "pure",
      "type": "function"
    },
    {
      "inputs": [
        {
          "internalType": "address",
          "name": "_randomGeneratorAddress",
          "type": "address"
        }
      ],
      "name": "changeRandomGenerator",
      "outputs": [],
      "stateMutability": "nonpayable",
      "type": "function"
    },
    {
      "inputs": [
        {
          "internalType": "uint256",
          "name": "_lotteryId",
          "type": "uint256"
        },
        {
          "internalType": "uint256[]",
          "name": "_ticketIds",
          "type": "uint256[]"
        },
        {
          "internalType": "uint32[]",
          "name": "_brackets",
          "type": "uint32[]"
        }
      ],
      "name": "claimTickets",
      "outputs": [],
      "stateMutability": "nonpayable",
      "type": "function"
    },
    {
      "inputs": [
        {
          "internalType": "uint256",
          "name": "_lotteryId",
          "type": "uint256"
        }
      ],
      "name": "closeLottery",
      "outputs": [],
      "stateMutability": "nonpayable",
      "type": "function"
    },
    {
      "inputs": [],
      "name": "currentLotteryId",
      "outputs": [
        {
          "internalType": "uint256",
          "name": "",
          "type": "uint256"
        }
      ],
      "stateMutability": "view",
      "type": "function"
    },
    {
      "inputs": [],
      "name": "currentTicketId",
      "outputs": [
        {
          "internalType": "uint256",
          "name": "",
          "type": "uint256"
        }
      ],
      "stateMutability": "view",
      "type": "function"
    },
    {
      "inputs": [
        {
          "internalType": "uint256",
          "name": "_lotteryId",
          "type": "uint256"
        },
        {
          "internalType": "bool",
          "name": "_autoInjection",
          "type": "bool"
        }
      ],
      "name": "drawFinalNumberAndMakeLotteryClaimable",
      "outputs": [],
      "stateMutability": "nonpayable",
      "type": "function"
    },
    {
      "inputs": [
        {
          "internalType": "uint256",
          "name": "_lotteryId",
          "type": "uint256"
        },
        {
          "internalType": "uint256",
          "name": "_amount",
          "type": "uint256"
        }
      ],
      "name": "injectFunds",
      "outputs": [],
      "stateMutability": "nonpayable",
      "type": "function"
    },
    {
      "inputs": [],
      "name": "injectorAddress",
      "outputs": [
        {
          "internalType": "address",
          "name": "",
          "type": "address"
        }
      ],
      "stateMutability": "view",
      "type": "function"
    },
    {
      "inputs": [],
      "name": "maxNumberTicketsPerBuyOrClaim",
      "outputs": [
        {
          "internalType": "uint256",
          "name": "",
          "type": "uint256"
        }
      ],
      "stateMutability": "view",
      "type": "function"
    },
    {
      "inputs": [],
      "name": "maxPriceTicketInCake",
      "outputs": [
        {
          "internalType": "uint256",
          "name": "",
          "type": "uint256"
        }
      ],
      "stateMutability": "view",
      "type": "function"
    },
    {
      "inputs": [],
      "name": "minPriceTicketInCake",
      "outputs": [
        {
          "internalType": "uint256",
          "name": "",
          "type": "uint256"
        }
      ],
      "stateMutability": "view",
      "type": "function"
    },
    {
      "inputs": [],
      "name": "operatorAddress",
      "outputs": [
        {
          "internalType": "address",
          "name": "",
          "type": "address"
        }
      ],
      "stateMutability": "view",
      "type": "function"
    },
    {
      "inputs": [],
      "name": "owner",
      "outputs": [
        {
          "internalType": "address",
          "name": "",
          "type": "address"
        }
      ],
      "stateMutability": "view",
      "type": "function"
    },
    {
      "inputs": [],
      "name": "pendingInjectionNextLottery",
      "outputs": [
        {
          "internalType": "uint256",
          "name": "",
          "type": "uint256"
        }
      ],
      "stateMutability": "view",
      "type": "function"
    },
    {
      "inputs": [],
      "name": "randomGenerator",
      "outputs": [
        {
          "internalType": "contract IRandomNumberGenerator",
          "name": "",
          "type": "address"
        }
      ],
      "stateMutability": "view",
      "type": "function"
    },
    {
      "inputs": [
        {
          "internalType": "address",
          "name": "_tokenAddress",
          "type": "address"
        },
        {
          "internalType": "uint256",
          "name": "_tokenAmount",
          "type": "uint256"
        }
      ],
      "name": "recoverWrongTokens",
      "outputs": [],
      "stateMutability": "nonpayable",
      "type": "function"
    },
    {
      "inputs": [],
      "name": "renounceOwnership",
      "outputs": [],
      "stateMutability": "nonpayable",
      "type": "function"
    },
    {
      "inputs": [
        {
          "internalType": "uint256",
          "name": "_maxNumberTicketsPerBuy",
          "type": "uint256"
        }
      ],
      "name": "setMaxNumberTicketsPerBuy",
      "outputs": [],
      "stateMutability": "nonpayable",
      "type": "function"
    },
    {
      "inputs": [
        {
          "internalType": "uint256",
          "name": "_minPriceTicketInCake",
          "type": "uint256"
        },
        {
          "internalType": "uint256",
          "name": "_maxPriceTicketInCake",
          "type": "uint256"
        }
      ],
      "name": "setMinAndMaxTicketPriceInCake",
      "outputs": [],
      "stateMutability": "nonpayable",
      "type": "function"
    },
    {
      "inputs": [
        {
          "internalType": "address",
          "name": "_operatorAddress",
          "type": "address"
        },
        {
          "internalType": "address",
          "name": "_treasuryAddress",
          "type": "address"
        },
        {
          "internalType": "address",
          "name": "_injectorAddress",
          "type": "address"
        }
      ],
      "name": "setOperatorAndTreasuryAndInjectorAddresses",
      "outputs": [],
      "stateMutability": "nonpayable",
      "type": "function"
    },
    {
      "inputs": [
        {
          "internalType": "uint256",
          "name": "_endTime",
          "type": "uint256"
        },
        {
          "internalType": "uint256",
          "name": "_priceTicketInCake",
          "type": "uint256"
        },
        {
          "internalType": "uint256",
          "name": "_discountDivisor",
          "type": "uint256"
        },
        {
          "internalType": "uint256[6]",
          "name": "_rewardsBreakdown",
          "type": "uint256[6]"
        },
        {
          "internalType": "uint256",
          "name": "_treasuryFee",
          "type": "uint256"
        },
        {
          "internalType": "uint256",
          "name": "_ticketsSold",
          "type": "uint256"
        },
        {
          "internalType": "uint256",
          "name": "_minTicketsToSell",
          "type": "uint256"
        },
        {
          "internalType": "uint256",
          "name": "_maxTicketsToSell",
          "type": "uint256"
        },
        {
          "internalType": "uint256[]",
          "name": "_prizes",
          "type": "uint256[]"
        }
      ],
      "name": "startLottery",
      "outputs": [],
      "stateMutability": "nonpayable",
      "type": "function"
    },
    {
      "inputs": [
        {
          "internalType": "address",
          "name": "newOwner",
          "type": "address"
        }
      ],
      "name": "transferOwnership",
      "outputs": [],
      "stateMutability": "nonpayable",
      "type": "function"
    },
    {
      "inputs": [],
      "name": "treasuryAddress",
      "outputs": [
        {
          "internalType": "address",
          "name": "",
          "type": "address"
        }
      ],
      "stateMutability": "view",
      "type": "function"
    },
    {
      "inputs": [],
      "name": "viewCurrentLotteryId",
      "outputs": [
        {
          "internalType": "uint256",
          "name": "",
          "type": "uint256"
        }
      ],
      "stateMutability": "view",
      "type": "function"
    },
    {
      "inputs": [
        {
          "internalType": "uint256",
          "name": "_lotteryId",
          "type": "uint256"
        }
      ],
      "name": "viewLottery",
      "outputs": [
        {
          "components": [
            {
              "internalType": "enum PancakeSwapLottery.Status",
              "name": "status",
              "type": "uint8"
            },
            {
              "internalType": "uint256",
              "name": "startTime",
              "type": "uint256"
            },
            {
              "internalType": "uint256",
              "name": "endTime",
              "type": "uint256"
            },
            {
              "internalType": "uint256",
              "name": "priceTicketInCake",
              "type": "uint256"
            },
            {
              "internalType": "uint256",
              "name": "discountDivisor",
              "type": "uint256"
            },
            {
              "internalType": "uint256[6]",
              "name": "rewardsBreakdown",
              "type": "uint256[6]"
            },
            {
              "internalType": "uint256",
              "name": "treasuryFee",
              "type": "uint256"
            },
            {
              "internalType": "uint256[6]",
              "name": "cakePerBracket",
              "type": "uint256[6]"
            },
            {
              "internalType": "uint256[6]",
              "name": "countWinnersPerBracket",
              "type": "uint256[6]"
            },
            {
              "internalType": "uint256",
              "name": "firstTicketId",
              "type": "uint256"
            },
            {
              "internalType": "uint256",
              "name": "firstTicketIdNextLottery",
              "type": "uint256"
            },
            {
              "internalType": "uint256",
              "name": "amountCollectedInCake",
              "type": "uint256"
            },
            {
              "internalType": "uint32",
              "name": "finalNumber",
              "type": "uint32"
            },
            {
              "internalType": "uint256",
              "name": "ticketsSold",
              "type": "uint256"
            },
            {
              "internalType": "uint256",
              "name": "minTicketsToSell",
              "type": "uint256"
            },
            {
              "internalType": "uint256",
              "name": "maxTicketsToSell",
              "type": "uint256"
            },
            {
              "internalType": "uint256[]",
              "name": "prizes",
              "type": "uint256[]"
            }
          ],
          "internalType": "struct PancakeSwapLottery.Lottery",
          "name": "",
          "type": "tuple"
        }
      ],
      "stateMutability": "view",
      "type": "function"
    },
    {
      "inputs": [
        {
          "internalType": "uint256[]",
          "name": "_ticketIds",
          "type": "uint256[]"
        }
      ],
      "name": "viewNumbersAndStatusesForTicketIds",
      "outputs": [
        {
          "internalType": "uint32[]",
          "name": "",
          "type": "uint32[]"
        },
        {
          "internalType": "bool[]",
          "name": "",
          "type": "bool[]"
        }
      ],
      "stateMutability": "view",
      "type": "function"
    },
    {
      "inputs": [
        {
          "internalType": "uint256",
          "name": "_lotteryId",
          "type": "uint256"
        },
        {
          "internalType": "uint256",
          "name": "_ticketId",
          "type": "uint256"
        },
        {
          "internalType": "uint32",
          "name": "_bracket",
          "type": "uint32"
        }
      ],
      "name": "viewRewardsForTicketId",
      "outputs": [
        {
          "internalType": "uint256",
          "name": "",
          "type": "uint256"
        }
      ],
      "stateMutability": "view",
      "type": "function"
    },
    {
      "inputs": [
        {
          "internalType": "address",
          "name": "_user",
          "type": "address"
        },
        {
          "internalType": "uint256",
          "name": "_lotteryId",
          "type": "uint256"
        },
        {
          "internalType": "uint256",
          "name": "_cursor",
          "type": "uint256"
        },
        {
          "internalType": "uint256",
          "name": "_size",
          "type": "uint256"
        }
      ],
      "name": "viewUserInfoForLotteryId",
      "outputs": [
        {
          "internalType": "uint256[]",
          "name": "",
          "type": "uint256[]"
        },
        {
          "internalType": "uint32[]",
          "name": "",
          "type": "uint32[]"
        },
        {
          "internalType": "bool[]",
          "name": "",
          "type": "bool[]"
        },
        {
          "internalType": "uint256",
          "name": "",
          "type": "uint256"
        }
      ],
      "stateMutability": "view",
      "type": "function"
    }
  ],
  "bytecode": "0x608060405260646007556802b5e3af16b18800006008556611c37937e080006009553480156200002e57600080fd5b506040516200453438038062004534833981016040819052620000519162000219565b60016000556200006133620001aa565b600b80546001600160a01b039384166001600160a01b0319918216178255600c805493909416921691909117909155600f6020527ff4803e074bd026baaf6ed2e288c9515f68c72fb7216eebdd7cae1718a53ec375805463ffffffff199081166001179091557f169f97de0d9a84d840042b17d3c6b9638b3d6fd9024c9eb0c7a306a17b49f88f805482169092179091557fa74ba3945261e09fde15ba3db55005b205e61eeb4ad811ac0faa2b315bffeead80548216606f1790557f45f76dafbbad695564362934e24d72eedc57f9fc1a65f39bca62176cc8296828805482166104571790557f367ccd2d0ac16bf7110a5dffe0801fdc9452a95a1adb7e1a12fe97dd3e9a4edd80548216612b6717905560056000527f6bda57492eba051cb4a12a1e19df47c9755d78165341d4009b1d09b3f361620480549091166201b20717905562000250565b600180546001600160a01b038381166001600160a01b0319831681179093556040519116919082907f8be0079c531659141344cd1fd0a4f28419497f9722a3daafe3b4186f6b6457e090600090a35050565b80516001600160a01b03811681146200021457600080fd5b919050565b600080604083850312156200022c578182fd5b6200023783620001fc565b91506200024760208401620001fc565b90509250929050565b6142d480620002606000396000f3fe608060405234801561001057600080fd5b50600436106102415760003560e01c806388303dbd11610145578063c5f956af116100bd578063da7429f81161008c578063dcbad90d11610071578063dcbad90d14610491578063f2b3c809146104a4578063f2fde38b146104ad57600080fd5b8063da7429f814610474578063db19da0d1461048757600080fd5b8063c5f956af14610428578063c914914f1461043b578063d6762fdc1461044e578063da4ca0391461046157600080fd5b806398359fa1116101145780639d8ca531116100f95780639d8ca531146103ef578063c38de53914610402578063c4937ab91461041557600080fd5b806398359fa1146103c95780639c384653146103dc57600080fd5b806388303dbd146103715780638904bf2f146103845780638da5cb5b146103975780638fc3539a146103a857600080fd5b806331feb565116101d85780636b873788116101a7578063715018a61161018c578063715018a6146103585780637cb583bd1461036057806380a061601461036957600080fd5b80636b8737881461033c5780636be4097c1461034f57600080fd5b806331feb565146103025780633f138d4b1461030b578063471aeab414610320578063686465b81461033357600080fd5b80631f73664b116102145780631f73664b146102bd5780631fe86c6b146102c65780632423807a146102cf5780632e530cae146102ef57600080fd5b806305531eeb1461024657806307fb5a9c14610272578063127effb21461028957806312a9769d146102b4575b600080fd5b610259610254366004613a5d565b6104c0565b6040516102699493929190613e70565b60405180910390f35b61027b61371481565b604051908152602001610269565b60035461029c906001600160a01b031681565b6040516001600160a01b039091168152602001610269565b61027b600a5481565b61027b60085481565b61027b60075481565b6102e26102dd366004613af1565b610838565b6040516102699190613f1c565b61027b6102fd366004613cff565b610a41565b61027b60095481565b61031e610319366004613a34565b610ad6565b005b61031e61032e366004613c11565b610bed565b61027b60065481565b61031e61034a366004613af1565b610d46565b61027b60055481565b61031e610df2565b61027b61012c81565b60055461027b565b61031e61037f366004613b98565b610e58565b600b5461029c906001600160a01b031681565b6001546001600160a01b031661029c565b6103bb6103b6366004613a95565b6115fc565b604051610269929190613ebb565b61031e6103d73660046139d8565b611818565b60025461029c906001600160a01b031681565b61031e6103fd366004613af1565b611a5c565b61031e610410366004613be2565b611cce565b61027b610423366004613c32565b61232d565b60045461029c906001600160a01b031681565b61031e610449366004613b21565b6123d9565b61031e61045c366004613c5d565b612a3e565b61031e61046f3660046139f2565b613035565b61031e610482366004613c11565b613222565b61027b6205472c81565b600c5461029c906001600160a01b031681565b61027b610bb881565b61031e6104bb3660046139d8565b6132d7565b6001600160a01b0384166000908152601160209081526040808320868452909152812054606091829182919085906104f888826141b1565b82111561050c5761050988826141b1565b91505b60008267ffffffffffffffff81111561053557634e487b7160e01b600052604160045260246000fd5b60405190808252806020026020018201604052801561055e578160200160208202803683370190505b50905060008367ffffffffffffffff81111561058a57634e487b7160e01b600052604160045260246000fd5b6040519080825280602002602001820160405280156105b3578160200160208202803683370190505b50905060008467ffffffffffffffff8111156105df57634e487b7160e01b600052604160045260246000fd5b604051908082528060200260200182016040528015610608578160200160208202803683370190505b50905060005b8581101561081257601160008f6001600160a01b03166001600160a01b0316815260200190815260200160002060008e81526020019081526020016000208c82610658919061401d565b8154811061067657634e487b7160e01b600052603260045260246000fd5b90600052602060002001548482815181106106a157634e487b7160e01b600052603260045260246000fd5b602002602001018181525050600e60008583815181106106d157634e487b7160e01b600052603260045260246000fd5b6020026020010151815260200190815260200160002060000160009054906101000a900463ffffffff1683828151811061071b57634e487b7160e01b600052603260045260246000fd5b602002602001019063ffffffff16908163ffffffff168152505060006001600160a01b0316600e600086848151811061076457634e487b7160e01b600052603260045260246000fd5b60209081029190910181015182528101919091526040016000205464010000000090046001600160a01b031614156107cd5760018282815181106107b857634e487b7160e01b600052603260045260246000fd5b91151560209283029190910190910152610800565b60008282815181106107ef57634e487b7160e01b600052603260045260246000fd5b911515602092830291909101909101525b8061080a81614219565b91505061060e565b50828282610820888f61401d565b98509850985098505050505050945094509450949050565b610840613831565b6000828152600d602052604090819020815161022081019092528054829060ff16600381111561088057634e487b7160e01b600052602160045260246000fd5b600381111561089f57634e487b7160e01b600052602160045260246000fd5b81526001820154602082015260028201546040808301919091526003830154606083015260048301546080830152805160c081019182905260a09092019190600584019060069082845b8154815260200190600101908083116108e9575050509183525050600b82015460208201526040805160c081018252910190600c830160068282826020028201915b81548152602001906001019080831161092b5750505091835250506040805160c081019182905260209092019190601284019060069082845b81548152602001906001019080831161096457505050505081526020016018820154815260200160198201548152602001601a8201548152602001601b820160009054906101000a900463ffffffff1663ffffffff1663ffffffff168152602001601c8201548152602001601d8201548152602001601e8201548152602001601f8201805480602002602001604051908101604052809291908181526020018280548015610a3157602002820191906000526020600020905b815481526020019060010190808311610a1d575b5050505050815250509050919050565b600060036000858152600d602052604090205460ff166003811115610a7657634e487b7160e01b600052602160045260246000fd5b14610a8357506000610acf565b6000848152600d602052604090206019015483118015610ab457506000848152600d60205260409020601801548311155b15610ac157506000610acf565b610acc8484846133b9565b90505b9392505050565b6001546001600160a01b03163314610b355760405162461bcd60e51b815260206004820181905260248201527f4f776e61626c653a2063616c6c6572206973206e6f7420746865206f776e657260448201526064015b60405180910390fd5b600b546001600160a01b0383811691161415610b935760405162461bcd60e51b815260206004820152601460248201527f43616e6e6f742062652043414b4520746f6b656e0000000000000000000000006044820152606401610b2c565b610ba76001600160a01b03831633836134d2565b604080516001600160a01b0384168152602081018390527f74545154aac348a3eac92596bd1971957ca94795f4e954ec5f613b55fab78129910160405180910390a15050565b6001546001600160a01b0316331480610c1057506002546001600160a01b031633145b610c5c5760405162461bcd60e51b815260206004820152601560248201527f4e6f74206f776e6572206f7220696e6a6563746f7200000000000000000000006044820152606401610b2c565b60016000838152600d602052604090205460ff166003811115610c8f57634e487b7160e01b600052602160045260246000fd5b14610ccf5760405162461bcd60e51b815260206004820152601060248201526f2637ba3a32b93c903737ba1037b832b760811b6044820152606401610b2c565b600b54610ce7906001600160a01b031633308461354f565b6000828152600d60205260408120601a018054839290610d0890849061401d565b909155505060405181815282907f1bbd659dd628a25f7ff2eabb69c74a56939c539728282275c1c9c1a2d3e340499060200160405180910390a25050565b6001546001600160a01b03163314610da05760405162461bcd60e51b815260206004820181905260248201527f4f776e61626c653a2063616c6c6572206973206e6f7420746865206f776e65726044820152606401610b2c565b80610ded5760405162461bcd60e51b815260206004820152600b60248201527f4d757374206265203e20300000000000000000000000000000000000000000006044820152606401610b2c565b600755565b6001546001600160a01b03163314610e4c5760405162461bcd60e51b815260206004820181905260248201527f4f776e61626c653a2063616c6c6572206973206e6f7420746865206f776e65726044820152606401610b2c565b610e56600061358d565b565b333b15610ea75760405162461bcd60e51b815260206004820152601460248201527f436f6e7472616374206e6f7420616c6c6f7765640000000000000000000000006044820152606401610b2c565b333214610ef65760405162461bcd60e51b815260206004820152601a60248201527f50726f787920636f6e7472616374206e6f7420616c6c6f7765640000000000006044820152606401610b2c565b60026000541415610f495760405162461bcd60e51b815260206004820152601f60248201527f5265656e7472616e637947756172643a207265656e7472616e742063616c6c006044820152606401610b2c565b600260005580610f9b5760405162461bcd60e51b815260206004820152601360248201527f4e6f207469636b657420737065636966696564000000000000000000000000006044820152606401610b2c565b600754811115610fe05760405162461bcd60e51b815260206004820152601060248201526f546f6f206d616e79207469636b65747360801b6044820152606401610b2c565b60016000848152600d602052604090205460ff16600381111561101357634e487b7160e01b600052602160045260246000fd5b146110605760405162461bcd60e51b815260206004820152601360248201527f4c6f7474657279206973206e6f74206f70656e000000000000000000000000006044820152606401610b2c565b6000838152600d602052604090206002015442106110c05760405162461bcd60e51b815260206004820152600f60248201527f4c6f7474657279206973206f76657200000000000000000000000000000000006044820152606401610b2c565b6000838152600d60205260409020601c810154601e90910154111561113a5760405162461bcd60e51b815260206004820152602a60248201527f4d6178696d756d206e756d626572206f66206c6f7474657279207469636b65746044820152691cc8195e18d95959195960b21b6064820152608401610b2c565b6000838152600d60205260408120601c015461115690836135ec565b6000858152600d60205260409020601e01549091508110156111cd5760405162461bcd60e51b815260206004820152602a60248201527f4d6178696d756d206e756d626572206f66206c6f7474657279207469636b65746044820152691cc8195e18d95959195960b21b6064820152608401610b2c565b6000848152600d6020526040812060048101546003909101546111f1919085613601565b600b5490915061120c906001600160a01b031633308461354f565b6000858152600d60205260408120601a01805483929061122d90849061401d565b90915550600090505b838110156115b857600085858381811061126057634e487b7160e01b600052603260045260246000fd5b90506020020160208101906112759190613d37565b9050620f42408163ffffffff16101580156112995750621e847f8163ffffffff1611155b6112e55760405162461bcd60e51b815260206004820152600d60248201527f4f7574736964652072616e6765000000000000000000000000000000000000006044820152606401610b2c565b6000878152601060205260408120906112ff600a84614258565b61130a906001614035565b63ffffffff1681526020810191909152604001600090812080549161132e83614219565b909155505060008781526010602052604081209061134d606484614258565b61135890600b614035565b63ffffffff1681526020810191909152604001600090812080549161137c83614219565b909155505060008781526010602052604081209061139c6103e884614258565b6113a790606f614035565b63ffffffff168152602081019190915260400160009081208054916113cb83614219565b90915550506000878152601060205260408120906113eb61271084614258565b6113f790610457614035565b63ffffffff1681526020810191909152604001600090812080549161141b83614219565b909155505060008781526010602052604081209061143c620186a084614258565b61144890612b67614035565b63ffffffff1681526020810191909152604001600090812080549161146c83614219565b909155505060008781526010602052604081209061148d620f424084614258565b61149a906201b207614035565b63ffffffff168152602081019190915260400160009081208054916114be83614219565b90915550503360008181526011602090815260408083208b84528252808320600680548254600181018455928652848620909201919091558151808301835263ffffffff808816825281850196875282548652600e9094529184209151825495516001600160a01b0316640100000000027fffffffffffffffff000000000000000000000000000000000000000000000000909616931692909217939093179092558154919061156d83614219565b90915550506000878152600d60205260408120601c0180549161158f83614219565b909155506000888152600d60205260409020601c015550806115b081614219565b915050611236565b50604051838152859033907fd7d247b583de1023852eef87b48f54354dbec771d01bc2cc49e96094efc322b99060200160405180910390a350506001600055505050565b6060808260008167ffffffffffffffff81111561162957634e487b7160e01b600052604160045260246000fd5b604051908082528060200260200182016040528015611652578160200160208202803683370190505b50905060008267ffffffffffffffff81111561167e57634e487b7160e01b600052604160045260246000fd5b6040519080825280602002602001820160405280156116a7578160200160208202803683370190505b50905060005b8381101561180957600e60008989848181106116d957634e487b7160e01b600052603260045260246000fd5b90506020020135815260200190815260200160002060000160009054906101000a900463ffffffff1683828151811061172257634e487b7160e01b600052603260045260246000fd5b63ffffffff909216602092830291909101909101526000600e818a8a8581811061175c57634e487b7160e01b600052603260045260246000fd5b602090810292909201358352508101919091526040016000205464010000000090046001600160a01b031614156117c45760018282815181106117af57634e487b7160e01b600052603260045260246000fd5b911515602092830291909101909101526117f7565b60008282815181106117e657634e487b7160e01b600052603260045260246000fd5b911515602092830291909101909101525b8061180181614219565b9150506116ad565b509093509150505b9250929050565b6001546001600160a01b031633146118725760405162461bcd60e51b815260206004820181905260248201527f4f776e61626c653a2063616c6c6572206973206e6f7420746865206f776e65726044820152606401610b2c565b60055415806118b4575060036005546000908152600d602052604090205460ff1660038111156118b257634e487b7160e01b600052602160045260246000fd5b145b6119005760405162461bcd60e51b815260206004820152601860248201527f4c6f7474657279206e6f7420696e20636c61696d61626c6500000000000000006044820152606401610b2c565b806001600160a01b031663b37217a460055460065460405160200161192f929190918252602082015260400190565b60408051808303601f1901815290829052805160209091012060e083901b6001600160e01b03191682526004820152602401600060405180830381600087803b15801561197b57600080fd5b505af115801561198f573d6000803e3d6000fd5b50505050806001600160a01b031663a1c4f55a6040518163ffffffff1660e01b815260040160206040518083038186803b1580156119cc57600080fd5b505afa1580156119e0573d6000803e3d6000fd5b505050506040513d601f19601f82011682018060405250810190611a049190613d53565b50600c805473ffffffffffffffffffffffffffffffffffffffff19166001600160a01b0383169081179091556040517f383f8cb39dfa7c3fb901a460dd449ea924868f0a92ff03da64740fffa5f1de6290600090a250565b6003546001600160a01b03163314611aa55760405162461bcd60e51b815260206004820152600c60248201526b2737ba1037b832b930ba37b960a11b6044820152606401610b2c565b60026000541415611af85760405162461bcd60e51b815260206004820152601f60248201527f5265656e7472616e637947756172643a207265656e7472616e742063616c6c006044820152606401610b2c565b600260005560016000828152600d602052604090205460ff166003811115611b3057634e487b7160e01b600052602160045260246000fd5b14611b705760405162461bcd60e51b815260206004820152601060248201526f2637ba3a32b93c903737ba1037b832b760811b6044820152606401610b2c565b6000818152600d60205260409020600201544211611bd05760405162461bcd60e51b815260206004820152601060248201527f4c6f7474657279206e6f74206f766572000000000000000000000000000000006044820152606401610b2c565b6006546000828152600d6020908152604091829020601901839055600c548251918201859052918101929092526001600160a01b03169063b37217a49060600160408051808303601f1901815290829052805160209091012060e083901b6001600160e01b03191682526004820152602401600060405180830381600087803b158015611c5c57600080fd5b505af1158015611c70573d6000803e3d6000fd5b5050506000828152600d6020908152604091829020805460ff1916600217905560065491519182528392507f3728e75294796694d59d2ffced9c394279baf7b9ebd2702db43f5f04bac67929910160405180910390a2506001600055565b6003546001600160a01b03163314611d175760405162461bcd60e51b815260206004820152600c60248201526b2737ba1037b832b930ba37b960a11b6044820152606401610b2c565b60026000541415611d6a5760405162461bcd60e51b815260206004820152601f60248201527f5265656e7472616e637947756172643a207265656e7472616e742063616c6c006044820152606401610b2c565b60026000818155838152600d602052604090205460ff166003811115611da057634e487b7160e01b600052602160045260246000fd5b14611ded5760405162461bcd60e51b815260206004820152601160248201527f4c6f7474657279206e6f7420636c6f73650000000000000000000000000000006044820152606401610b2c565b600c60009054906101000a90046001600160a01b03166001600160a01b031663fbe5d9176040518163ffffffff1660e01b815260040160206040518083038186803b158015611e3b57600080fd5b505afa158015611e4f573d6000803e3d6000fd5b505050506040513d601f19601f82011682018060405250810190611e739190613b09565b8214611ec15760405162461bcd60e51b815260206004820152601160248201527f4e756d62657273206e6f7420647261776e0000000000000000000000000000006044820152606401610b2c565b600c54604080516350e27aad60e11b815290516000926001600160a01b03169163a1c4f55a916004808301926020929190829003018186803b158015611f0657600080fd5b505afa158015611f1a573d6000803e3d6000fd5b505050506040513d601f19601f82011682018060405250810190611f3e9190613d53565b6000848152600d60205260408120600b015491925090819061271090611f6490826141b1565b6000878152600d60205260409020601a0154611f809190614192565b611f8a919061405d565b90506000805b60068163ffffffff161015612258576000611fac8260056141c8565b90506000611fbb826001614035565b611fc690600a6140b6565b611fd09088614258565b63ffffffff8084166000908152600f6020526040902054611ff2929116614035565b60008a815260106020908152604080832063ffffffff851684529091529020549091506120209087906141b1565b60008a8152600d6020526040902060120163ffffffff84166006811061205657634e487b7160e01b600052603260045260246000fd5b0155600089815260106020908152604080832063ffffffff851684529091529020546120839087906141b1565b156121ac576000898152600d6020526040902060050163ffffffff8316600681106120be57634e487b7160e01b600052603260045260246000fd5b0154156121a757600089815260106020908152604080832063ffffffff85168452909152902054612710906120f49088906141b1565b60008b8152600d60205260409020879060050163ffffffff86166006811061212c57634e487b7160e01b600052603260045260246000fd5b01546121389190614192565b612142919061405d565b61214c919061405d565b60008a8152600d60205260409020600c0163ffffffff84166006811061218257634e487b7160e01b600052603260045260246000fd5b0155600089815260106020908152604080832063ffffffff8516845290915290205495505b612243565b6000898152600d60205260408120600c0163ffffffff8416600681106121e257634e487b7160e01b600052603260045260246000fd5b01556000898152600d6020526040902061271090869060050163ffffffff85166006811061222057634e487b7160e01b600052603260045260246000fd5b015461222c9190614192565b612236919061405d565b612240908561401d565b93505b5050808061225090614234565b915050611f90565b506000868152600d60205260409020601b8101805463ffffffff871663ffffffff19909116179055805460ff19166003179055841561229757600a5560005b6000868152600d60205260409020601a01546122b49083906141b1565b6122be908261401d565b600454600b549192506122de916001600160a01b039081169116836134d2565b6005546040805163ffffffff87168152602081018690527f98e31a6607b8b15b4d5b91de54f4c09ffe4c4cf162aa532c70b5213754e2e703910160405180910390a25050600160005550505050565b600061012c8410156123815760405162461bcd60e51b815260206004820152601f60248201527f4d757374206265203e3d204d494e5f444953434f554e545f44495649534f52006044820152606401610b2c565b816123ce5760405162461bcd60e51b815260206004820152601d60248201527f4e756d626572206f66207469636b657473206d757374206265203e20300000006044820152606401610b2c565b610acc848484613601565b333b156124285760405162461bcd60e51b815260206004820152601460248201527f436f6e7472616374206e6f7420616c6c6f7765640000000000000000000000006044820152606401610b2c565b3332146124775760405162461bcd60e51b815260206004820152601a60248201527f50726f787920636f6e7472616374206e6f7420616c6c6f7765640000000000006044820152606401610b2c565b600260005414156124ca5760405162461bcd60e51b815260206004820152601f60248201527f5265656e7472616e637947756172643a207265656e7472616e742063616c6c006044820152606401610b2c565b600260005582811461251e5760405162461bcd60e51b815260206004820152600f60248201527f4e6f742073616d65206c656e67746800000000000000000000000000000000006044820152606401610b2c565b8261256b5760405162461bcd60e51b815260206004820152601160248201527f4c656e677468206d757374206265203e300000000000000000000000000000006044820152606401610b2c565b6007548311156125b05760405162461bcd60e51b815260206004820152601060248201526f546f6f206d616e79207469636b65747360801b6044820152606401610b2c565b60036000868152600d602052604090205460ff1660038111156125e357634e487b7160e01b600052602160045260246000fd5b146126305760405162461bcd60e51b815260206004820152601560248201527f4c6f7474657279206e6f7420636c61696d61626c6500000000000000000000006044820152606401610b2c565b6000805b848110156129dc57600684848381811061265e57634e487b7160e01b600052603260045260246000fd5b90506020020160208101906126739190613d37565b63ffffffff16106126c65760405162461bcd60e51b815260206004820152601460248201527f427261636b6574206f7574206f662072616e67650000000000000000000000006044820152606401610b2c565b60008686838181106126e857634e487b7160e01b600052603260045260246000fd5b90506020020135905080600d60008a815260200190815260200160002060190154116127565760405162461bcd60e51b815260206004820152601160248201527f5469636b6574496420746f6f20686967680000000000000000000000000000006044820152606401610b2c565b6000888152600d60205260409020601801548110156127b75760405162461bcd60e51b815260206004820152601060248201527f5469636b6574496420746f6f206c6f77000000000000000000000000000000006044820152606401610b2c565b6000818152600e602052604090205464010000000090046001600160a01b031633146128255760405162461bcd60e51b815260206004820152600d60248201527f4e6f7420746865206f776e6572000000000000000000000000000000000000006044820152606401610b2c565b6000818152600e6020526040812080547fffffffffffffffff0000000000000000000000000000000000000000ffffffff169055612898898388888781811061287e57634e487b7160e01b600052603260045260246000fd5b90506020020160208101906128939190613d37565b6133b9565b9050806128e75760405162461bcd60e51b815260206004820152601960248201527f4e6f207072697a6520666f72207468697320627261636b6574000000000000006044820152606401610b2c565b85858481811061290757634e487b7160e01b600052603260045260246000fd5b905060200201602081019061291c9190613d37565b63ffffffff166005146129bb5761296e898388888781811061294e57634e487b7160e01b600052603260045260246000fd5b90506020020160208101906129639190613d37565b612893906001614035565b156129bb5760405162461bcd60e51b815260206004820152601660248201527f427261636b6574206d75737420626520686967686572000000000000000000006044820152606401610b2c565b6129c5818561401d565b9350505080806129d490614219565b915050612634565b50600b546129f4906001600160a01b031633836134d2565b6040805182815260208101869052879133917f0f5fca62da8fb5d95525b49e5eaa7b20bc6bd9e2f6b64b493442d1c0bd6ef486910160405180910390a35050600160005550505050565b6003546001600160a01b03163314612a875760405162461bcd60e51b815260206004820152600c60248201526b2737ba1037b832b930ba37b960a11b6044820152606401610b2c565b6005541580612ac9575060036005546000908152600d602052604090205460ff166003811115612ac757634e487b7160e01b600052602160045260246000fd5b145b612b155760405162461bcd60e51b815260206004820152601960248201527f4e6f742074696d6520746f207374617274206c6f7474657279000000000000006044820152606401610b2c565b613714612b22428c6141b1565b118015612b3a57506205472c612b38428c6141b1565b105b612b865760405162461bcd60e51b815260206004820152601f60248201527f4c6f7474657279206c656e677468206f757473696465206f662072616e6765006044820152606401610b2c565b6009548910158015612b9a57506008548911155b612be65760405162461bcd60e51b815260206004820152601160248201527f4f757473696465206f66206c696d6974730000000000000000000000000000006044820152606401610b2c565b61012c881015612c385760405162461bcd60e51b815260206004820152601860248201527f446973636f756e742064697669736f7220746f6f206c6f7700000000000000006044820152606401610b2c565b610bb8861115612c8a5760405162461bcd60e51b815260206004820152601560248201527f54726561737572792066656520746f6f206869676800000000000000000000006044820152606401610b2c565b60a08701356080880135606089013560408a0135612cad60208c01358c3561401d565b612cb7919061401d565b612cc1919061401d565b612ccb919061401d565b612cd5919061401d565b61271014612d255760405162461bcd60e51b815260206004820152601860248201527f52657761726473206d75737420657175616c20313030303000000000000000006044820152606401610b2c565b60058054906000612d3583614219565b909155505060408051610220810190915280600181526020014281526020018b81526020018a8152602001898152602001886006806020026040519081016040528092919082600660200280828437600081840152601f19601f82011690508083019250505050505081526020018781526020016040518060c001604052806000815260200160008152602001600081526020016000815260200160008152602001600081525081526020016040518060c0016040528060008152602001600081526020016000815260200160008152602001600081526020016000815250815260200160065481526020016006548152602001600a548152602001600063ffffffff16815260200186815260200185815260200184815260200183838080602002602001604051908101604052809392919081815260200183836020028082843760009201829052509390945250506005548152600d602052604090208251815491925090829060ff19166001836003811115612ec357634e487b7160e01b600052602160045260246000fd5b02179055506020820151600182015560408201516002820155606082015160038201556080820151600482015560a0820151612f0590600583019060066138ce565b5060c0820151600b82015560e0820151612f2590600c83019060066138ce565b50610100820151612f3c90601283019060066138ce565b5061012082015160188201556101408201516019820155610160820151601a820155610180820151601b8201805463ffffffff191663ffffffff9092169190911790556101a0820151601c8201556101c0820151601d8201556101e0820151601e8201556102008201518051612fbc91601f84019160209091019061390c565b509050506005547f367e70f8c0e0c0a6504d92172bda155c02022d532fc85b5d66a9c49e31c8bc77428c8c600654600a5460405161301c959493929190948552602085019390935260408401919091526060830152608082015260a00190565b60405180910390a250506000600a555050505050505050565b6001546001600160a01b0316331461308f5760405162461bcd60e51b815260206004820181905260248201527f4f776e61626c653a2063616c6c6572206973206e6f7420746865206f776e65726044820152606401610b2c565b6001600160a01b0383166130e55760405162461bcd60e51b815260206004820152601660248201527f43616e6e6f74206265207a65726f2061646472657373000000000000000000006044820152606401610b2c565b6001600160a01b03821661313b5760405162461bcd60e51b815260206004820152601660248201527f43616e6e6f74206265207a65726f2061646472657373000000000000000000006044820152606401610b2c565b6001600160a01b0381166131915760405162461bcd60e51b815260206004820152601660248201527f43616e6e6f74206265207a65726f2061646472657373000000000000000000006044820152606401610b2c565b600380546001600160a01b0385811673ffffffffffffffffffffffffffffffffffffffff19928316811790935560048054868316908416811790915560028054928616929093168217909255604080519384526020840192909252908201527f3e945b7660001d46cfd5e729545f7f0b6c65bdee54066a91c7acad703f1b731e9060600160405180910390a1505050565b6001546001600160a01b0316331461327c5760405162461bcd60e51b815260206004820181905260248201527f4f776e61626c653a2063616c6c6572206973206e6f7420746865206f776e65726044820152606401610b2c565b808211156132cc5760405162461bcd60e51b815260206004820152601b60248201527f6d696e5072696365206d757374206265203c206d6178507269636500000000006044820152606401610b2c565b600991909155600855565b6001546001600160a01b031633146133315760405162461bcd60e51b815260206004820181905260248201527f4f776e61626c653a2063616c6c6572206973206e6f7420746865206f776e65726044820152606401610b2c565b6001600160a01b0381166133ad5760405162461bcd60e51b815260206004820152602660248201527f4f776e61626c653a206e6577206f776e657220697320746865207a65726f206160448201527f64647265737300000000000000000000000000000000000000000000000000006064820152608401610b2c565b6133b68161358d565b50565b6000838152600d60209081526040808320601b0154858452600e90925282205463ffffffff9182169116826133ef856001614035565b6133fa90600a6140b6565b6134049084614258565b63ffffffff8087166000908152600f6020526040902054613426929116614035565b90506000613435866001614035565b61344090600a6140b6565b61344a9084614258565b63ffffffff8088166000908152600f602052604090205461346c929116614035565b90508063ffffffff168263ffffffff1614156134c5576000888152600d60205260409020600c0163ffffffff8716600681106134b857634e487b7160e01b600052603260045260246000fd5b0154945050505050610acf565b6000945050505050610acf565b6040516001600160a01b03831660248201526044810182905261354a90849063a9059cbb60e01b906064015b60408051601f198184030181529190526020810180517bffffffffffffffffffffffffffffffffffffffffffffffffffffffff166001600160e01b031990931692909217909152613638565b505050565b6040516001600160a01b03808516602483015283166044820152606481018290526135879085906323b872dd60e01b906084016134fe565b50505050565b600180546001600160a01b0383811673ffffffffffffffffffffffffffffffffffffffff19831681179093556040519116919082907f8be0079c531659141344cd1fd0a4f28419497f9722a3daafe3b4186f6b6457e090600090a35050565b60006135f8828461401d565b90505b92915050565b6000838261361082600161401d565b61361a91906141b1565b6136248486614192565b61362e9190614192565b610acc919061405d565b600061368d826040518060400160405280602081526020017f5361666545524332303a206c6f772d6c6576656c2063616c6c206661696c6564815250856001600160a01b031661371d9092919063ffffffff16565b80519091501561354a57808060200190518101906136ab9190613ad5565b61354a5760405162461bcd60e51b815260206004820152602a60248201527f5361666545524332303a204552433230206f7065726174696f6e20646964206e60448201527f6f742073756363656564000000000000000000000000000000000000000000006064820152608401610b2c565b6060610acc8484600085856001600160a01b0385163b61377f5760405162461bcd60e51b815260206004820152601d60248201527f416464726573733a2063616c6c20746f206e6f6e2d636f6e74726163740000006044820152606401610b2c565b600080866001600160a01b0316858760405161379b9190613e54565b60006040518083038185875af1925050503d80600081146137d8576040519150601f19603f3d011682016040523d82523d6000602084013e6137dd565b606091505b50915091506137ed8282866137f8565b979650505050505050565b60608315613807575081610acf565b8251156138175782518084602001fd5b8160405162461bcd60e51b8152600401610b2c9190613ee9565b604080516102208101909152806000815260200160008152602001600081526020016000815260200160008152602001613869613946565b81526020016000815260200161387d613946565b815260200161388a613946565b8152602001600081526020016000815260200160008152602001600063ffffffff168152602001600081526020016000815260200160008152602001606081525090565b82600681019282156138fc579160200282015b828111156138fc5782518255916020019190600101906138e1565b50613908929150613964565b5090565b8280548282559060005260206000209081019282156138fc57916020028201828111156138fc5782518255916020019190600101906138e1565b6040518060c001604052806006906020820280368337509192915050565b5b808211156139085760008155600101613965565b80356001600160a01b038116811461399057600080fd5b919050565b60008083601f8401126139a6578182fd5b50813567ffffffffffffffff8111156139bd578182fd5b6020830191508360208260051b850101111561181157600080fd5b6000602082840312156139e9578081fd5b6135f882613979565b600080600060608486031215613a06578182fd5b613a0f84613979565b9250613a1d60208501613979565b9150613a2b60408501613979565b90509250925092565b60008060408385031215613a46578182fd5b613a4f83613979565b946020939093013593505050565b60008060008060808587031215613a72578081fd5b613a7b85613979565b966020860135965060408601359560600135945092505050565b60008060208385031215613aa7578182fd5b823567ffffffffffffffff811115613abd578283fd5b613ac985828601613995565b90969095509350505050565b600060208284031215613ae6578081fd5b8151610acf816142a7565b600060208284031215613b02578081fd5b5035919050565b600060208284031215613b1a578081fd5b5051919050565b600080600080600060608688031215613b38578081fd5b85359450602086013567ffffffffffffffff80821115613b56578283fd5b613b6289838a01613995565b90965094506040880135915080821115613b7a578283fd5b50613b8788828901613995565b969995985093965092949392505050565b600080600060408486031215613bac578283fd5b83359250602084013567ffffffffffffffff811115613bc9578283fd5b613bd586828701613995565b9497909650939450505050565b60008060408385031215613bf4578182fd5b823591506020830135613c06816142a7565b809150509250929050565b60008060408385031215613c23578182fd5b50508035926020909101359150565b600080600060608486031215613c46578283fd5b505081359360208301359350604090920135919050565b6000806000806000806000806000806101c08b8d031215613c7c578788fd5b8a35995060208b0135985060408b013597506101208b018c811115613c9f578586fd5b60608c0197503595506101408b013594506101608b013593506101808b013592506101a08b013567ffffffffffffffff811115613cda578283fd5b613ce68d828e01613995565b915080935050809150509295989b9194979a5092959850565b600080600060608486031215613d13578081fd5b83359250602084013591506040840135613d2c816142b5565b809150509250925092565b600060208284031215613d48578081fd5b8135610acf816142b5565b600060208284031215613d64578081fd5b8151610acf816142b5565b6000815180845260208085019450808401835b83811015613da0578151151587529582019590820190600101613d82565b509495945050505050565b8060005b6006811015613587578151845260209384019390910190600101613daf565b6000815180845260208085019450808401835b83811015613da057815187529582019590820190600101613de1565b6000815180845260208085019450808401835b83811015613da057815163ffffffff1687529582019590820190600101613e10565b60048110613e5057634e487b7160e01b600052602160045260246000fd5b9052565b60008251613e668184602087016141ed565b9190910192915050565b608081526000613e836080830187613dce565b8281036020840152613e958187613dfd565b90508281036040840152613ea98186613d6f565b91505082606083015295945050505050565b604081526000613ece6040830185613dfd565b8281036020840152613ee08185613d6f565b95945050505050565b6020815260008251806020840152613f088160408501602087016141ed565b601f01601f19169190910160400192915050565b60208152613f2e602082018351613e32565b602082015160408201526040820151606082015260608201516080820152608082015160a0820152600060a0830151613f6a60c0840182613dab565b5060c0830151610180818185015260e085015191506101a0613f8e81860184613dab565b6101008601519250613fa4610260860184613dab565b6101208601516103208601526101408601516103408601526101608601516103608601529085015163ffffffff166103808501528401516103a0840152506101c08301516103c08301526101e08301516103e083015261020083015161040080840152614015610420840182613dce565b949350505050565b600082198211156140305761403061427b565b500190565b600063ffffffff8083168185168083038211156140545761405461427b565b01949350505050565b60008261406c5761406c614291565b500490565b600181815b808511156140ae578163ffffffff048211156140945761409461427b565b808516156140a157918102915b93841c9390800290614076565b509250929050565b600063ffffffff6140158185168285166000826140d5575060016135fb565b816140e2575060006135fb565b81600181146140f8576002811461410257614133565b60019150506135fb565b60ff8411156141135761411361427b565b6001841b915063ffffffff82111561412d5761412d61427b565b506135fb565b5060208310610133831016604e8410600b841016171561416a575081810a63ffffffff8111156141655761416561427b565b6135fb565b6141748383614071565b8063ffffffff0482111561418a5761418a61427b565b029392505050565b60008160001904831182151516156141ac576141ac61427b565b500290565b6000828210156141c3576141c361427b565b500390565b600063ffffffff838116908316818110156141e5576141e561427b565b039392505050565b60005b838110156142085781810151838201526020016141f0565b838111156135875750506000910152565b600060001982141561422d5761422d61427b565b5060010190565b600063ffffffff8083168181141561424e5761424e61427b565b6001019392505050565b600063ffffffff8084168061426f5761426f614291565b92169190910692915050565b634e487b7160e01b600052601160045260246000fd5b634e487b7160e01b600052601260045260246000fd5b80151581146133b657600080fd5b63ffffffff811681146133b657600080fdfea164736f6c6343000804000a",
  "linkReferences": {},
  "deployedLinkReferences": {}
}