{
  "_format": "hh-sol-artifact-1",
  "contractName": "MockRandomNumberGenerator",
  "sourceName": "contracts/utils/MockRandomNumberGenerator.sol",
  "abi": [
    {
      "inputs": [],
      "stateMutability": "nonpayable",
      "type": "constructor"
    },
    {
      "anonymous": false,
      "inputs": [
        {
          "indexed": true,
          "internalType": "address",
          "name": "previousOwner",
          "type": "address"
        },
        {
          "indexed": true,
          "internalType": "address",
          "name": "newOwner",
          "type": "address"
        }
      ],
      "name": "OwnershipTransferred",
      "type": "event"
    },
    {
      "inputs": [],
      "name": "changeLatestLotteryId",
      "outputs": [],
      "stateMutability": "nonpayable",
      "type": "function"
    },
    {
      "inputs": [
        {
          "internalType": "uint256",
          "name": "randomValue",
          "type": "uint256"
        },
        {
          "internalType": "uint256",
          "name": "n",
          "type": "uint256"
        }
      ],
      "name": "expand",
      "outputs": [
        {
          "internalType": "uint256[]",
          "name": "expandedValues",
          "type": "uint256[]"
        }
      ],
      "stateMutability": "pure",
      "type": "function"
    },
    {
      "inputs": [
        {
          "internalType": "uint256",
          "name": "_seed",
          "type": "uint256"
        }
      ],
      "name": "getRandomNumber",
      "outputs": [],
      "stateMutability": "nonpayable",
      "type": "function"
    },
    {
      "inputs": [],
      "name": "latestLotteryId",
      "outputs": [
        {
          "internalType": "uint256",
          "name": "",
          "type": "uint256"
        }
      ],
      "stateMutability": "view",
      "type": "function"
    },
    {
      "inputs": [],
      "name": "nextRandomResult",
      "outputs": [
        {
          "internalType": "uint256",
          "name": "",
          "type": "uint256"
        }
      ],
      "stateMutability": "view",
      "type": "function"
    },
    {
      "inputs": [],
      "name": "owner",
      "outputs": [
        {
          "internalType": "address",
          "name": "",
          "type": "address"
        }
      ],
      "stateMutability": "view",
      "type": "function"
    },
    {
      "inputs": [],
      "name": "randomResult",
      "outputs": [
        {
          "internalType": "uint32",
          "name": "",
          "type": "uint32"
        }
      ],
      "stateMutability": "view",
      "type": "function"
    },
    {
      "inputs": [],
      "name": "renounceOwnership",
      "outputs": [],
      "stateMutability": "nonpayable",
      "type": "function"
    },
    {
      "inputs": [
        {
          "internalType": "address",
          "name": "_wincketLottery",
          "type": "address"
        }
      ],
      "name": "setLotteryAddress",
      "outputs": [],
      "stateMutability": "nonpayable",
      "type": "function"
    },
    {
      "inputs": [
        {
          "internalType": "uint256",
          "name": "_nextRandomResult",
          "type": "uint256"
        }
      ],
      "name": "setNextRandomResult",
      "outputs": [],
      "stateMutability": "nonpayable",
      "type": "function"
    },
    {
      "inputs": [
        {
          "internalType": "address",
          "name": "newOwner",
          "type": "address"
        }
      ],
      "name": "transferOwnership",
      "outputs": [],
      "stateMutability": "nonpayable",
      "type": "function"
    },
    {
      "inputs": [],
      "name": "viewLatestLotteryId",
      "outputs": [
        {
          "internalType": "uint256",
          "name": "",
          "type": "uint256"
        }
      ],
      "stateMutability": "view",
      "type": "function"
    },
    {
      "inputs": [],
      "name": "viewRandomResult",
      "outputs": [
        {
          "internalType": "uint32",
          "name": "",
          "type": "uint32"
        }
      ],
      "stateMutability": "view",
      "type": "function"
    },
    {
      "inputs": [],
      "name": "wincketLottery",
      "outputs": [
        {
          "internalType": "address",
          "name": "",
          "type": "address"
        }
      ],
      "stateMutability": "view",
      "type": "function"
    }
  ],
  "bytecode": "0x608060405234801561001057600080fd5b5061001a3361001f565b61006f565b600080546001600160a01b038381166001600160a01b0319831681178455604051919092169283917f8be0079c531659141344cd1fd0a4f28419497f9722a3daafe3b4186f6b6457e09190a35050565b6107e28061007e6000396000f3fe608060405234801561001057600080fd5b50600436106100e95760003560e01c8063874b3afc1161008c578063b37217a411610066578063b37217a4146101df578063eed8e1ee146101f2578063f2fde38b146101fb578063fbe5d9171461020e57600080fd5b8063874b3afc146101995780638da5cb5b146101b9578063a1c4f55a146101ca57600080fd5b806342619f66116100c857806342619f661461014a5780634610852b14610176578063715018a61461017e57806380df99361461018657600080fd5b806204fd88146100ee5780631334165d1461010a5780632a332b2a14610135575b600080fd5b6100f760025481565b6040519081526020015b60405180910390f35b60015461011d906001600160a01b031681565b6040516001600160a01b039091168152602001610101565b6101486101433660046106a9565b610216565b005b60015461016190600160a01b900463ffffffff1681565b60405163ffffffff9091168152602001610101565b6101486102a4565b610148610331565b6101486101943660046106d7565b610397565b6101ac6101a7366004610707565b6103f6565b6040516101019190610728565b6000546001600160a01b031661011d565b600154600160a01b900463ffffffff16610161565b6101486101ed3660046106d7565b6104c7565b6100f760035481565b6101486102093660046106a9565b610533565b6003546100f7565b6000546001600160a01b031633146102755760405162461bcd60e51b815260206004820181905260248201527f4f776e61626c653a2063616c6c6572206973206e6f7420746865206f776e657260448201526064015b60405180910390fd5b6001805473ffffffffffffffffffffffffffffffffffffffff19166001600160a01b0392909216919091179055565b600160009054906101000a90046001600160a01b03166001600160a01b03166380a061606040518163ffffffff1660e01b8152600401602060405180830381600087803b1580156102f457600080fd5b505af1158015610308573d6000803e3d6000fd5b505050506040513d601f19601f8201168201806040525081019061032c91906106ef565b600355565b6000546001600160a01b0316331461038b5760405162461bcd60e51b815260206004820181905260248201527f4f776e61626c653a2063616c6c6572206973206e6f7420746865206f776e6572604482015260640161026c565b610395600061060e565b565b6000546001600160a01b031633146103f15760405162461bcd60e51b815260206004820181905260248201527f4f776e61626c653a2063616c6c6572206973206e6f7420746865206f776e6572604482015260640161026c565b600255565b60608167ffffffffffffffff81111561041f57634e487b7160e01b600052604160045260246000fd5b604051908082528060200260200182016040528015610448578160200160208202803683370190505b50905060005b828110156104c05760408051602081018690529081018290526060016040516020818303038152906040528051906020012060001c8282815181106104a357634e487b7160e01b600052603260045260246000fd5b6020908102919091010152806104b881610784565b91505061044e565b5092915050565b6001546001600160a01b031633146105215760405162461bcd60e51b815260206004820152601360248201527f4f6e6c792057696e636b65744c6f747465727900000000000000000000000000604482015260640161026c565b6105306000801b60025461066b565b50565b6000546001600160a01b0316331461058d5760405162461bcd60e51b815260206004820181905260248201527f4f776e61626c653a2063616c6c6572206973206e6f7420746865206f776e6572604482015260640161026c565b6001600160a01b0381166106095760405162461bcd60e51b815260206004820152602660248201527f4f776e61626c653a206e6577206f776e657220697320746865207a65726f206160448201527f6464726573730000000000000000000000000000000000000000000000000000606482015260840161026c565b610530815b600080546001600160a01b0383811673ffffffffffffffffffffffffffffffffffffffff19831681178455604051919092169283917f8be0079c531659141344cd1fd0a4f28419497f9722a3daafe3b4186f6b6457e09190a35050565b610678620f42408261079f565b61068590620f424061076c565b600160146101000a81548163ffffffff021916908363ffffffff1602179055505050565b6000602082840312156106ba578081fd5b81356001600160a01b03811681146106d0578182fd5b9392505050565b6000602082840312156106e8578081fd5b5035919050565b600060208284031215610700578081fd5b5051919050565b60008060408385031215610719578081fd5b50508035926020909101359150565b6020808252825182820181905260009190848201906040850190845b8181101561076057835183529284019291840191600101610744565b50909695505050505050565b6000821982111561077f5761077f6107bf565b500190565b6000600019821415610798576107986107bf565b5060010190565b6000826107ba57634e487b7160e01b81526012600452602481fd5b500690565b634e487b7160e01b600052601160045260246000fdfea164736f6c6343000804000a",
  "linkReferences": {},
  "deployedLinkReferences": {}
}