{
  "_format": "hh-sol-artifact-1",
  "contractName": "MockRandomNumberGenerator",
  "sourceName": "contracts/utils/MockRandomNumberGenerator.sol",
  "abi": [
    {
      "inputs": [],
      "stateMutability": "nonpayable",
      "type": "constructor"
    },
    {
      "anonymous": false,
      "inputs": [
        {
          "indexed": true,
          "internalType": "address",
          "name": "previousOwner",
          "type": "address"
        },
        {
          "indexed": true,
          "internalType": "address",
          "name": "newOwner",
          "type": "address"
        }
      ],
      "name": "OwnershipTransferred",
      "type": "event"
    },
    {
      "inputs": [],
      "name": "changeLatestLotteryId",
      "outputs": [],
      "stateMutability": "nonpayable",
      "type": "function"
    },
    {
      "inputs": [
        {
          "internalType": "uint256",
          "name": "_seed",
          "type": "uint256"
        }
      ],
      "name": "getRandomNumber",
      "outputs": [],
      "stateMutability": "nonpayable",
      "type": "function"
    },
    {
      "inputs": [],
      "name": "latestLotteryId",
      "outputs": [
        {
          "internalType": "uint256",
          "name": "",
          "type": "uint256"
        }
      ],
      "stateMutability": "view",
      "type": "function"
    },
    {
      "inputs": [],
      "name": "nextRandomResult",
      "outputs": [
        {
          "internalType": "uint256",
          "name": "",
          "type": "uint256"
        }
      ],
      "stateMutability": "view",
      "type": "function"
    },
    {
      "inputs": [],
      "name": "owner",
      "outputs": [
        {
          "internalType": "address",
          "name": "",
          "type": "address"
        }
      ],
      "stateMutability": "view",
      "type": "function"
    },
    {
      "inputs": [],
      "name": "pancakeSwapLottery",
      "outputs": [
        {
          "internalType": "address",
          "name": "",
          "type": "address"
        }
      ],
      "stateMutability": "view",
      "type": "function"
    },
    {
      "inputs": [],
      "name": "randomResult",
      "outputs": [
        {
          "internalType": "uint32",
          "name": "",
          "type": "uint32"
        }
      ],
      "stateMutability": "view",
      "type": "function"
    },
    {
      "inputs": [],
      "name": "renounceOwnership",
      "outputs": [],
      "stateMutability": "nonpayable",
      "type": "function"
    },
    {
      "inputs": [
        {
          "internalType": "address",
          "name": "_pancakeSwapLottery",
          "type": "address"
        }
      ],
      "name": "setLotteryAddress",
      "outputs": [],
      "stateMutability": "nonpayable",
      "type": "function"
    },
    {
      "inputs": [
        {
          "internalType": "uint256",
          "name": "_nextRandomResult",
          "type": "uint256"
        }
      ],
      "name": "setNextRandomResult",
      "outputs": [],
      "stateMutability": "nonpayable",
      "type": "function"
    },
    {
      "inputs": [
        {
          "internalType": "address",
          "name": "newOwner",
          "type": "address"
        }
      ],
      "name": "transferOwnership",
      "outputs": [],
      "stateMutability": "nonpayable",
      "type": "function"
    },
    {
      "inputs": [],
      "name": "viewLatestLotteryId",
      "outputs": [
        {
          "internalType": "uint256",
          "name": "",
          "type": "uint256"
        }
      ],
      "stateMutability": "view",
      "type": "function"
    },
    {
      "inputs": [],
      "name": "viewRandomResult",
      "outputs": [
        {
          "internalType": "uint32",
          "name": "",
          "type": "uint32"
        }
      ],
      "stateMutability": "view",
      "type": "function"
    }
  ],
  "bytecode": "0x608060405234801561001057600080fd5b5061001a3361001f565b61006f565b600080546001600160a01b038381166001600160a01b0319831681178455604051919092169283917f8be0079c531659141344cd1fd0a4f28419497f9722a3daafe3b4186f6b6457e09190a35050565b61065c8061007e6000396000f3fe608060405234801561001057600080fd5b50600436106100de5760003560e01c806380df99361161008c578063b37217a411610066578063b37217a4146101b4578063eed8e1ee146101c7578063f2fde38b146101d0578063fbe5d917146101e357600080fd5b806380df99361461017b5780638da5cb5b1461018e578063a1c4f55a1461019f57600080fd5b80634610852b116100bd5780634610852b146101405780634bf3057d14610148578063715018a61461017357600080fd5b806204fd88146100e35780632a332b2a146100ff57806342619f6614610114575b600080fd5b6100ec60025481565b6040519081526020015b60405180910390f35b61011261010d3660046105ad565b6101eb565b005b60015461012b90600160a01b900463ffffffff1681565b60405163ffffffff90911681526020016100f6565b610112610279565b60015461015b906001600160a01b031681565b6040516001600160a01b0390911681526020016100f6565b610112610306565b6101126101893660046105db565b61036c565b6000546001600160a01b031661015b565b600154600160a01b900463ffffffff1661012b565b6101126101c23660046105db565b6103cb565b6100ec60035481565b6101126101de3660046105ad565b610437565b6003546100ec565b6000546001600160a01b0316331461024a5760405162461bcd60e51b815260206004820181905260248201527f4f776e61626c653a2063616c6c6572206973206e6f7420746865206f776e657260448201526064015b60405180910390fd5b6001805473ffffffffffffffffffffffffffffffffffffffff19166001600160a01b0392909216919091179055565b600160009054906101000a90046001600160a01b03166001600160a01b03166380a061606040518163ffffffff1660e01b8152600401602060405180830381600087803b1580156102c957600080fd5b505af11580156102dd573d6000803e3d6000fd5b505050506040513d601f19601f8201168201806040525081019061030191906105f3565b600355565b6000546001600160a01b031633146103605760405162461bcd60e51b815260206004820181905260248201527f4f776e61626c653a2063616c6c6572206973206e6f7420746865206f776e65726044820152606401610241565b61036a6000610512565b565b6000546001600160a01b031633146103c65760405162461bcd60e51b815260206004820181905260248201527f4f776e61626c653a2063616c6c6572206973206e6f7420746865206f776e65726044820152606401610241565b600255565b6001546001600160a01b031633146104255760405162461bcd60e51b815260206004820152601760248201527f4f6e6c792050616e63616b65537761704c6f74746572790000000000000000006044820152606401610241565b6104346000801b60025461056f565b50565b6000546001600160a01b031633146104915760405162461bcd60e51b815260206004820181905260248201527f4f776e61626c653a2063616c6c6572206973206e6f7420746865206f776e65726044820152606401610241565b6001600160a01b03811661050d5760405162461bcd60e51b815260206004820152602660248201527f4f776e61626c653a206e6577206f776e657220697320746865207a65726f206160448201527f64647265737300000000000000000000000000000000000000000000000000006064820152608401610241565b610434815b600080546001600160a01b0383811673ffffffffffffffffffffffffffffffffffffffff19831681178455604051919092169283917f8be0079c531659141344cd1fd0a4f28419497f9722a3daafe3b4186f6b6457e09190a35050565b61057c620f42408261062f565b61058990620f424061060b565b600160146101000a81548163ffffffff021916908363ffffffff1602179055505050565b6000602082840312156105be578081fd5b81356001600160a01b03811681146105d4578182fd5b9392505050565b6000602082840312156105ec578081fd5b5035919050565b600060208284031215610604578081fd5b5051919050565b6000821982111561062a57634e487b7160e01b81526011600452602481fd5b500190565b60008261064a57634e487b7160e01b81526012600452602481fd5b50069056fea164736f6c6343000804000a",
  "linkReferences": {},
  "deployedLinkReferences": {}
}